{
	"contracts/FarmVault.sol": {
		"FarmVault": {
			"abi": [
				{
					"inputs": [
						{
							"internalType": "string",
							"name": "name",
							"type": "string"
						},
						{
							"internalType": "string",
							"name": "symbol",
							"type": "string"
						}
					],
					"stateMutability": "nonpayable",
					"type": "constructor"
				},
				{
					"inputs": [],
					"name": "tokenDebtAddress",
					"outputs": [
						{
							"internalType": "address",
							"name": "",
							"type": "address"
						}
					],
					"stateMutability": "view",
					"type": "function"
				},
				{
					"inputs": [],
					"name": "vaultAddress",
					"outputs": [
						{
							"internalType": "address",
							"name": "",
							"type": "address"
						}
					],
					"stateMutability": "view",
					"type": "function"
				}
			],
			"devdoc": {
				"kind": "dev",
				"methods": {},
				"version": 1
			},
			"evm": {
				"assembly": "    /* \"contracts/FarmVault.sol\":110:535  contract FarmVault is Initializable {... */\n  mstore(0x40, 0x80)\n    /* \"contracts/FarmVault.sol\":193:330  constructor(string memory name, string memory symbol) {... */\n  callvalue\n  dup1\n  iszero\n  tag_1\n  jumpi\n  0x00\n  dup1\n  revert\ntag_1:\n  pop\n  mload(0x40)\n  sub(codesize, bytecodeSize)\n  dup1\n  bytecodeSize\n  dup4\n  codecopy\n  dup2\n  dup2\n  add\n  0x40\n  mstore\n  dup2\n  add\n  swap1\n  tag_2\n  swap2\n  swap1\n  tag_3\n  jump\t// in\ntag_2:\n    /* \"contracts/FarmVault.sol\":309:313  name */\n  dup2\n    /* \"contracts/FarmVault.sol\":290:314  string.concat(\"i\", name) */\n  add(0x20, mload(0x40))\n  tag_6\n  swap2\n  swap1\n  tag_7\n  jump\t// in\ntag_6:\n  mload(0x40)\n  0x20\n  dup2\n  dup4\n  sub\n  sub\n  dup2\n  mstore\n  swap1\n  0x40\n  mstore\n    /* \"contracts/FarmVault.sol\":316:322  symbol */\n  dup2\n    /* \"contracts/FarmVault.sol\":269:323  new ERC20UpgradeSafe(string.concat(\"i\", name), symbol) */\n  mload(0x40)\n  tag_8\n  swap1\n  tag_9\n  jump\t// in\ntag_8:\n  tag_10\n  swap3\n  swap2\n  swap1\n  tag_11\n  jump\t// in\ntag_10:\n  mload(0x40)\n  dup1\n  swap2\n  sub\n  swap1\n  0x00\n  create\n  dup1\n  iszero\n  dup1\n  iszero\n  tag_12\n  jumpi\n  returndatasize\n  0x00\n  dup1\n  returndatacopy\n  revert(0x00, returndatasize)\ntag_12:\n  pop\n    /* \"contracts/FarmVault.sol\":257:266  tokenDebt */\n  0x33\n  0x00\n    /* \"contracts/FarmVault.sol\":257:323  tokenDebt = new ERC20UpgradeSafe(string.concat(\"i\", name), symbol) */\n  0x0100\n  exp\n  dup2\n  sload\n  dup2\n  0xffffffffffffffffffffffffffffffffffffffff\n  mul\n  not\n  and\n  swap1\n  dup4\n  0xffffffffffffffffffffffffffffffffffffffff\n  and\n  mul\n  or\n  swap1\n  sstore\n  pop\n    /* \"contracts/FarmVault.sol\":193:330  constructor(string memory name, string memory symbol) {... */\n  pop\n  pop\n    /* \"contracts/FarmVault.sol\":110:535  contract FarmVault is Initializable {... */\n  jump(tag_13)\ntag_9:\n  dataSize(sub_1)\n  dup1\n  dataOffset(sub_1)\n  dup4\n  codecopy\n  add\n  swap1\n  jump\t// out\n    /* \"#utility.yul\":7:82   */\ntag_14:\n    /* \"#utility.yul\":40:46   */\n  0x00\n    /* \"#utility.yul\":73:75   */\n  0x40\n    /* \"#utility.yul\":67:76   */\n  mload\n    /* \"#utility.yul\":57:76   */\n  swap1\n  pop\n    /* \"#utility.yul\":7:82   */\n  swap1\n  jump\t// out\n    /* \"#utility.yul\":88:205   */\ntag_15:\n    /* \"#utility.yul\":197:198   */\n  0x00\n    /* \"#utility.yul\":194:195   */\n  dup1\n    /* \"#utility.yul\":187:199   */\n  revert\n    /* \"#utility.yul\":211:328   */\ntag_16:\n    /* \"#utility.yul\":320:321   */\n  0x00\n    /* \"#utility.yul\":317:318   */\n  dup1\n    /* \"#utility.yul\":310:322   */\n  revert\n    /* \"#utility.yul\":334:451   */\ntag_17:\n    /* \"#utility.yul\":443:444   */\n  0x00\n    /* \"#utility.yul\":440:441   */\n  dup1\n    /* \"#utility.yul\":433:445   */\n  revert\n    /* \"#utility.yul\":457:574   */\ntag_18:\n    /* \"#utility.yul\":566:567   */\n  0x00\n    /* \"#utility.yul\":563:564   */\n  dup1\n    /* \"#utility.yul\":556:568   */\n  revert\n    /* \"#utility.yul\":580:682   */\ntag_19:\n    /* \"#utility.yul\":621:627   */\n  0x00\n    /* \"#utility.yul\":672:674   */\n  0x1f\n    /* \"#utility.yul\":668:675   */\n  not\n    /* \"#utility.yul\":663:665   */\n  0x1f\n    /* \"#utility.yul\":656:661   */\n  dup4\n    /* \"#utility.yul\":652:666   */\n  add\n    /* \"#utility.yul\":648:676   */\n  and\n    /* \"#utility.yul\":638:676   */\n  swap1\n  pop\n    /* \"#utility.yul\":580:682   */\n  swap2\n  swap1\n  pop\n  jump\t// out\n    /* \"#utility.yul\":688:868   */\ntag_20:\n    /* \"#utility.yul\":736:813   */\n  0x4e487b7100000000000000000000000000000000000000000000000000000000\n    /* \"#utility.yul\":733:734   */\n  0x00\n    /* \"#utility.yul\":726:814   */\n  mstore\n    /* \"#utility.yul\":833:837   */\n  0x41\n    /* \"#utility.yul\":830:831   */\n  0x04\n    /* \"#utility.yul\":823:838   */\n  mstore\n    /* \"#utility.yul\":857:861   */\n  0x24\n    /* \"#utility.yul\":854:855   */\n  0x00\n    /* \"#utility.yul\":847:862   */\n  revert\n    /* \"#utility.yul\":874:1155   */\ntag_21:\n    /* \"#utility.yul\":957:984   */\n  tag_42\n    /* \"#utility.yul\":979:983   */\n  dup3\n    /* \"#utility.yul\":957:984   */\n  tag_19\n  jump\t// in\ntag_42:\n    /* \"#utility.yul\":949:955   */\n  dup2\n    /* \"#utility.yul\":945:985   */\n  add\n    /* \"#utility.yul\":1087:1093   */\n  dup2\n    /* \"#utility.yul\":1075:1085   */\n  dup2\n    /* \"#utility.yul\":1072:1094   */\n  lt\n    /* \"#utility.yul\":1051:1069   */\n  0xffffffffffffffff\n    /* \"#utility.yul\":1039:1049   */\n  dup3\n    /* \"#utility.yul\":1036:1070   */\n  gt\n    /* \"#utility.yul\":1033:1095   */\n  or\n    /* \"#utility.yul\":1030:1118   */\n  iszero\n  tag_43\n  jumpi\n    /* \"#utility.yul\":1098:1116   */\n  tag_44\n  tag_20\n  jump\t// in\ntag_44:\n    /* \"#utility.yul\":1030:1118   */\ntag_43:\n    /* \"#utility.yul\":1138:1148   */\n  dup1\n    /* \"#utility.yul\":1134:1136   */\n  0x40\n    /* \"#utility.yul\":1127:1149   */\n  mstore\n    /* \"#utility.yul\":917:1155   */\n  pop\n    /* \"#utility.yul\":874:1155   */\n  pop\n  pop\n  jump\t// out\n    /* \"#utility.yul\":1161:1290   */\ntag_22:\n    /* \"#utility.yul\":1195:1201   */\n  0x00\n    /* \"#utility.yul\":1222:1242   */\n  tag_46\n  tag_14\n  jump\t// in\ntag_46:\n    /* \"#utility.yul\":1212:1242   */\n  swap1\n  pop\n    /* \"#utility.yul\":1251:1284   */\n  tag_47\n    /* \"#utility.yul\":1279:1283   */\n  dup3\n    /* \"#utility.yul\":1271:1277   */\n  dup3\n    /* \"#utility.yul\":1251:1284   */\n  tag_21\n  jump\t// in\ntag_47:\n    /* \"#utility.yul\":1161:1290   */\n  swap2\n  swap1\n  pop\n  jump\t// out\n    /* \"#utility.yul\":1296:1604   */\ntag_23:\n    /* \"#utility.yul\":1358:1362   */\n  0x00\n    /* \"#utility.yul\":1448:1466   */\n  0xffffffffffffffff\n    /* \"#utility.yul\":1440:1446   */\n  dup3\n    /* \"#utility.yul\":1437:1467   */\n  gt\n    /* \"#utility.yul\":1434:1490   */\n  iszero\n  tag_49\n  jumpi\n    /* \"#utility.yul\":1470:1488   */\n  tag_50\n  tag_20\n  jump\t// in\ntag_50:\n    /* \"#utility.yul\":1434:1490   */\ntag_49:\n    /* \"#utility.yul\":1508:1537   */\n  tag_51\n    /* \"#utility.yul\":1530:1536   */\n  dup3\n    /* \"#utility.yul\":1508:1537   */\n  tag_19\n  jump\t// in\ntag_51:\n    /* \"#utility.yul\":1500:1537   */\n  swap1\n  pop\n    /* \"#utility.yul\":1592:1596   */\n  0x20\n    /* \"#utility.yul\":1586:1590   */\n  dup2\n    /* \"#utility.yul\":1582:1597   */\n  add\n    /* \"#utility.yul\":1574:1597   */\n  swap1\n  pop\n    /* \"#utility.yul\":1296:1604   */\n  swap2\n  swap1\n  pop\n  jump\t// out\n    /* \"#utility.yul\":1610:1856   */\ntag_24:\n    /* \"#utility.yul\":1691:1692   */\n  0x00\n    /* \"#utility.yul\":1701:1814   */\ntag_53:\n    /* \"#utility.yul\":1715:1721   */\n  dup4\n    /* \"#utility.yul\":1712:1713   */\n  dup2\n    /* \"#utility.yul\":1709:1722   */\n  lt\n    /* \"#utility.yul\":1701:1814   */\n  iszero\n  tag_55\n  jumpi\n    /* \"#utility.yul\":1800:1801   */\n  dup1\n    /* \"#utility.yul\":1795:1798   */\n  dup3\n    /* \"#utility.yul\":1791:1802   */\n  add\n    /* \"#utility.yul\":1785:1803   */\n  mload\n    /* \"#utility.yul\":1781:1782   */\n  dup2\n    /* \"#utility.yul\":1776:1779   */\n  dup5\n    /* \"#utility.yul\":1772:1783   */\n  add\n    /* \"#utility.yul\":1765:1804   */\n  mstore\n    /* \"#utility.yul\":1737:1739   */\n  0x20\n    /* \"#utility.yul\":1734:1735   */\n  dup2\n    /* \"#utility.yul\":1730:1740   */\n  add\n    /* \"#utility.yul\":1725:1740   */\n  swap1\n  pop\n    /* \"#utility.yul\":1701:1814   */\n  jump(tag_53)\ntag_55:\n    /* \"#utility.yul\":1848:1849   */\n  0x00\n    /* \"#utility.yul\":1839:1845   */\n  dup5\n    /* \"#utility.yul\":1834:1837   */\n  dup5\n    /* \"#utility.yul\":1830:1846   */\n  add\n    /* \"#utility.yul\":1823:1850   */\n  mstore\n    /* \"#utility.yul\":1672:1856   */\n  pop\n    /* \"#utility.yul\":1610:1856   */\n  pop\n  pop\n  pop\n  jump\t// out\n    /* \"#utility.yul\":1862:2296   */\ntag_25:\n    /* \"#utility.yul\":1951:1956   */\n  0x00\n    /* \"#utility.yul\":1976:2042   */\n  tag_57\n    /* \"#utility.yul\":1992:2041   */\n  tag_58\n    /* \"#utility.yul\":2034:2040   */\n  dup5\n    /* \"#utility.yul\":1992:2041   */\n  tag_23\n  jump\t// in\ntag_58:\n    /* \"#utility.yul\":1976:2042   */\n  tag_22\n  jump\t// in\ntag_57:\n    /* \"#utility.yul\":1967:2042   */\n  swap1\n  pop\n    /* \"#utility.yul\":2065:2071   */\n  dup3\n    /* \"#utility.yul\":2058:2063   */\n  dup2\n    /* \"#utility.yul\":2051:2072   */\n  mstore\n    /* \"#utility.yul\":2103:2107   */\n  0x20\n    /* \"#utility.yul\":2096:2101   */\n  dup2\n    /* \"#utility.yul\":2092:2108   */\n  add\n    /* \"#utility.yul\":2141:2144   */\n  dup5\n    /* \"#utility.yul\":2132:2138   */\n  dup5\n    /* \"#utility.yul\":2127:2130   */\n  dup5\n    /* \"#utility.yul\":2123:2139   */\n  add\n    /* \"#utility.yul\":2120:2145   */\n  gt\n    /* \"#utility.yul\":2117:2229   */\n  iszero\n  tag_59\n  jumpi\n    /* \"#utility.yul\":2148:2227   */\n  tag_60\n  tag_18\n  jump\t// in\ntag_60:\n    /* \"#utility.yul\":2117:2229   */\ntag_59:\n    /* \"#utility.yul\":2238:2290   */\n  tag_61\n    /* \"#utility.yul\":2283:2289   */\n  dup5\n    /* \"#utility.yul\":2278:2281   */\n  dup3\n    /* \"#utility.yul\":2273:2276   */\n  dup6\n    /* \"#utility.yul\":2238:2290   */\n  tag_24\n  jump\t// in\ntag_61:\n    /* \"#utility.yul\":1957:2296   */\n  pop\n    /* \"#utility.yul\":1862:2296   */\n  swap4\n  swap3\n  pop\n  pop\n  pop\n  jump\t// out\n    /* \"#utility.yul\":2316:2671   */\ntag_26:\n    /* \"#utility.yul\":2383:2388   */\n  0x00\n    /* \"#utility.yul\":2432:2435   */\n  dup3\n    /* \"#utility.yul\":2425:2429   */\n  0x1f\n    /* \"#utility.yul\":2417:2423   */\n  dup4\n    /* \"#utility.yul\":2413:2430   */\n  add\n    /* \"#utility.yul\":2409:2436   */\n  slt\n    /* \"#utility.yul\":2399:2521   */\n  tag_63\n  jumpi\n    /* \"#utility.yul\":2440:2519   */\n  tag_64\n  tag_17\n  jump\t// in\ntag_64:\n    /* \"#utility.yul\":2399:2521   */\ntag_63:\n    /* \"#utility.yul\":2550:2556   */\n  dup2\n    /* \"#utility.yul\":2544:2557   */\n  mload\n    /* \"#utility.yul\":2575:2665   */\n  tag_65\n    /* \"#utility.yul\":2661:2664   */\n  dup5\n    /* \"#utility.yul\":2653:2659   */\n  dup3\n    /* \"#utility.yul\":2646:2650   */\n  0x20\n    /* \"#utility.yul\":2638:2644   */\n  dup7\n    /* \"#utility.yul\":2634:2651   */\n  add\n    /* \"#utility.yul\":2575:2665   */\n  tag_25\n  jump\t// in\ntag_65:\n    /* \"#utility.yul\":2566:2665   */\n  swap2\n  pop\n    /* \"#utility.yul\":2389:2671   */\n  pop\n    /* \"#utility.yul\":2316:2671   */\n  swap3\n  swap2\n  pop\n  pop\n  jump\t// out\n    /* \"#utility.yul\":2677:3530   */\ntag_3:\n    /* \"#utility.yul\":2776:2782   */\n  0x00\n    /* \"#utility.yul\":2784:2790   */\n  dup1\n    /* \"#utility.yul\":2833:2835   */\n  0x40\n    /* \"#utility.yul\":2821:2830   */\n  dup4\n    /* \"#utility.yul\":2812:2819   */\n  dup6\n    /* \"#utility.yul\":2808:2831   */\n  sub\n    /* \"#utility.yul\":2804:2836   */\n  slt\n    /* \"#utility.yul\":2801:2920   */\n  iszero\n  tag_67\n  jumpi\n    /* \"#utility.yul\":2839:2918   */\n  tag_68\n  tag_15\n  jump\t// in\ntag_68:\n    /* \"#utility.yul\":2801:2920   */\ntag_67:\n    /* \"#utility.yul\":2980:2981   */\n  0x00\n    /* \"#utility.yul\":2969:2978   */\n  dup4\n    /* \"#utility.yul\":2965:2982   */\n  add\n    /* \"#utility.yul\":2959:2983   */\n  mload\n    /* \"#utility.yul\":3010:3028   */\n  0xffffffffffffffff\n    /* \"#utility.yul\":3002:3008   */\n  dup2\n    /* \"#utility.yul\":2999:3029   */\n  gt\n    /* \"#utility.yul\":2996:3113   */\n  iszero\n  tag_69\n  jumpi\n    /* \"#utility.yul\":3032:3111   */\n  tag_70\n  tag_16\n  jump\t// in\ntag_70:\n    /* \"#utility.yul\":2996:3113   */\ntag_69:\n    /* \"#utility.yul\":3137:3211   */\n  tag_71\n    /* \"#utility.yul\":3203:3210   */\n  dup6\n    /* \"#utility.yul\":3194:3200   */\n  dup3\n    /* \"#utility.yul\":3183:3192   */\n  dup7\n    /* \"#utility.yul\":3179:3201   */\n  add\n    /* \"#utility.yul\":3137:3211   */\n  tag_26\n  jump\t// in\ntag_71:\n    /* \"#utility.yul\":3127:3211   */\n  swap3\n  pop\n    /* \"#utility.yul\":2930:3221   */\n  pop\n    /* \"#utility.yul\":3281:3283   */\n  0x20\n    /* \"#utility.yul\":3270:3279   */\n  dup4\n    /* \"#utility.yul\":3266:3284   */\n  add\n    /* \"#utility.yul\":3260:3285   */\n  mload\n    /* \"#utility.yul\":3312:3330   */\n  0xffffffffffffffff\n    /* \"#utility.yul\":3304:3310   */\n  dup2\n    /* \"#utility.yul\":3301:3331   */\n  gt\n    /* \"#utility.yul\":3298:3415   */\n  iszero\n  tag_72\n  jumpi\n    /* \"#utility.yul\":3334:3413   */\n  tag_73\n  tag_16\n  jump\t// in\ntag_73:\n    /* \"#utility.yul\":3298:3415   */\ntag_72:\n    /* \"#utility.yul\":3439:3513   */\n  tag_74\n    /* \"#utility.yul\":3505:3512   */\n  dup6\n    /* \"#utility.yul\":3496:3502   */\n  dup3\n    /* \"#utility.yul\":3485:3494   */\n  dup7\n    /* \"#utility.yul\":3481:3503   */\n  add\n    /* \"#utility.yul\":3439:3513   */\n  tag_26\n  jump\t// in\ntag_74:\n    /* \"#utility.yul\":3429:3513   */\n  swap2\n  pop\n    /* \"#utility.yul\":3231:3523   */\n  pop\n    /* \"#utility.yul\":2677:3530   */\n  swap3\n  pop\n  swap3\n  swap1\n  pop\n  jump\t// out\n    /* \"#utility.yul\":3536:3714   */\ntag_27:\n    /* \"#utility.yul\":3704:3707   */\n  0x6900000000000000000000000000000000000000000000000000000000000000\n    /* \"#utility.yul\":3699:3702   */\n  dup2\n    /* \"#utility.yul\":3692:3708   */\n  mstore\n    /* \"#utility.yul\":3536:3714   */\n  pop\n  jump\t// out\n    /* \"#utility.yul\":3720:3819   */\ntag_28:\n    /* \"#utility.yul\":3772:3778   */\n  0x00\n    /* \"#utility.yul\":3806:3811   */\n  dup2\n    /* \"#utility.yul\":3800:3812   */\n  mload\n    /* \"#utility.yul\":3790:3812   */\n  swap1\n  pop\n    /* \"#utility.yul\":3720:3819   */\n  swap2\n  swap1\n  pop\n  jump\t// out\n    /* \"#utility.yul\":3825:3973   */\ntag_29:\n    /* \"#utility.yul\":3927:3938   */\n  0x00\n    /* \"#utility.yul\":3964:3967   */\n  dup2\n    /* \"#utility.yul\":3949:3967   */\n  swap1\n  pop\n    /* \"#utility.yul\":3825:3973   */\n  swap3\n  swap2\n  pop\n  pop\n  jump\t// out\n    /* \"#utility.yul\":3979:4369   */\ntag_30:\n    /* \"#utility.yul\":4085:4088   */\n  0x00\n    /* \"#utility.yul\":4113:4152   */\n  tag_79\n    /* \"#utility.yul\":4146:4151   */\n  dup3\n    /* \"#utility.yul\":4113:4152   */\n  tag_28\n  jump\t// in\ntag_79:\n    /* \"#utility.yul\":4168:4257   */\n  tag_80\n    /* \"#utility.yul\":4250:4256   */\n  dup2\n    /* \"#utility.yul\":4245:4248   */\n  dup6\n    /* \"#utility.yul\":4168:4257   */\n  tag_29\n  jump\t// in\ntag_80:\n    /* \"#utility.yul\":4161:4257   */\n  swap4\n  pop\n    /* \"#utility.yul\":4266:4331   */\n  tag_81\n    /* \"#utility.yul\":4324:4330   */\n  dup2\n    /* \"#utility.yul\":4319:4322   */\n  dup6\n    /* \"#utility.yul\":4312:4316   */\n  0x20\n    /* \"#utility.yul\":4305:4310   */\n  dup7\n    /* \"#utility.yul\":4301:4317   */\n  add\n    /* \"#utility.yul\":4266:4331   */\n  tag_24\n  jump\t// in\ntag_81:\n    /* \"#utility.yul\":4356:4362   */\n  dup1\n    /* \"#utility.yul\":4351:4354   */\n  dup5\n    /* \"#utility.yul\":4347:4363   */\n  add\n    /* \"#utility.yul\":4340:4363   */\n  swap2\n  pop\n    /* \"#utility.yul\":4089:4369   */\n  pop\n    /* \"#utility.yul\":3979:4369   */\n  swap3\n  swap2\n  pop\n  pop\n  jump\t// out\n    /* \"#utility.yul\":4375:4914   */\ntag_7:\n    /* \"#utility.yul\":4597:4600   */\n  0x00\n    /* \"#utility.yul\":4612:4749   */\n  tag_83\n    /* \"#utility.yul\":4745:4748   */\n  dup3\n    /* \"#utility.yul\":4612:4749   */\n  tag_27\n  jump\t// in\ntag_83:\n    /* \"#utility.yul\":4774:4775   */\n  0x01\n    /* \"#utility.yul\":4769:4772   */\n  dup3\n    /* \"#utility.yul\":4765:4776   */\n  add\n    /* \"#utility.yul\":4758:4776   */\n  swap2\n  pop\n    /* \"#utility.yul\":4793:4888   */\n  tag_84\n    /* \"#utility.yul\":4884:4887   */\n  dup3\n    /* \"#utility.yul\":4875:4881   */\n  dup5\n    /* \"#utility.yul\":4793:4888   */\n  tag_30\n  jump\t// in\ntag_84:\n    /* \"#utility.yul\":4786:4888   */\n  swap2\n  pop\n    /* \"#utility.yul\":4905:4908   */\n  dup2\n    /* \"#utility.yul\":4898:4908   */\n  swap1\n  pop\n    /* \"#utility.yul\":4375:4914   */\n  swap3\n  swap2\n  pop\n  pop\n  jump\t// out\n    /* \"#utility.yul\":4920:5089   */\ntag_31:\n    /* \"#utility.yul\":5004:5015   */\n  0x00\n    /* \"#utility.yul\":5038:5044   */\n  dup3\n    /* \"#utility.yul\":5033:5036   */\n  dup3\n    /* \"#utility.yul\":5026:5045   */\n  mstore\n    /* \"#utility.yul\":5078:5082   */\n  0x20\n    /* \"#utility.yul\":5073:5076   */\n  dup3\n    /* \"#utility.yul\":5069:5083   */\n  add\n    /* \"#utility.yul\":5054:5083   */\n  swap1\n  pop\n    /* \"#utility.yul\":4920:5089   */\n  swap3\n  swap2\n  pop\n  pop\n  jump\t// out\n    /* \"#utility.yul\":5095:5472   */\ntag_32:\n    /* \"#utility.yul\":5183:5186   */\n  0x00\n    /* \"#utility.yul\":5211:5250   */\n  tag_87\n    /* \"#utility.yul\":5244:5249   */\n  dup3\n    /* \"#utility.yul\":5211:5250   */\n  tag_28\n  jump\t// in\ntag_87:\n    /* \"#utility.yul\":5266:5337   */\n  tag_88\n    /* \"#utility.yul\":5330:5336   */\n  dup2\n    /* \"#utility.yul\":5325:5328   */\n  dup6\n    /* \"#utility.yul\":5266:5337   */\n  tag_31\n  jump\t// in\ntag_88:\n    /* \"#utility.yul\":5259:5337   */\n  swap4\n  pop\n    /* \"#utility.yul\":5346:5411   */\n  tag_89\n    /* \"#utility.yul\":5404:5410   */\n  dup2\n    /* \"#utility.yul\":5399:5402   */\n  dup6\n    /* \"#utility.yul\":5392:5396   */\n  0x20\n    /* \"#utility.yul\":5385:5390   */\n  dup7\n    /* \"#utility.yul\":5381:5397   */\n  add\n    /* \"#utility.yul\":5346:5411   */\n  tag_24\n  jump\t// in\ntag_89:\n    /* \"#utility.yul\":5436:5465   */\n  tag_90\n    /* \"#utility.yul\":5458:5464   */\n  dup2\n    /* \"#utility.yul\":5436:5465   */\n  tag_19\n  jump\t// in\ntag_90:\n    /* \"#utility.yul\":5431:5434   */\n  dup5\n    /* \"#utility.yul\":5427:5466   */\n  add\n    /* \"#utility.yul\":5420:5466   */\n  swap2\n  pop\n    /* \"#utility.yul\":5187:5472   */\n  pop\n    /* \"#utility.yul\":5095:5472   */\n  swap3\n  swap2\n  pop\n  pop\n  jump\t// out\n    /* \"#utility.yul\":5478:5992   */\ntag_11:\n    /* \"#utility.yul\":5639:5643   */\n  0x00\n    /* \"#utility.yul\":5677:5679   */\n  0x40\n    /* \"#utility.yul\":5666:5675   */\n  dup3\n    /* \"#utility.yul\":5662:5680   */\n  add\n    /* \"#utility.yul\":5654:5680   */\n  swap1\n  pop\n    /* \"#utility.yul\":5726:5735   */\n  dup2\n    /* \"#utility.yul\":5720:5724   */\n  dup2\n    /* \"#utility.yul\":5716:5736   */\n  sub\n    /* \"#utility.yul\":5712:5713   */\n  0x00\n    /* \"#utility.yul\":5701:5710   */\n  dup4\n    /* \"#utility.yul\":5697:5714   */\n  add\n    /* \"#utility.yul\":5690:5737   */\n  mstore\n    /* \"#utility.yul\":5754:5832   */\n  tag_92\n    /* \"#utility.yul\":5827:5831   */\n  dup2\n    /* \"#utility.yul\":5818:5824   */\n  dup6\n    /* \"#utility.yul\":5754:5832   */\n  tag_32\n  jump\t// in\ntag_92:\n    /* \"#utility.yul\":5746:5832   */\n  swap1\n  pop\n    /* \"#utility.yul\":5879:5888   */\n  dup2\n    /* \"#utility.yul\":5873:5877   */\n  dup2\n    /* \"#utility.yul\":5869:5889   */\n  sub\n    /* \"#utility.yul\":5864:5866   */\n  0x20\n    /* \"#utility.yul\":5853:5862   */\n  dup4\n    /* \"#utility.yul\":5849:5867   */\n  add\n    /* \"#utility.yul\":5842:5890   */\n  mstore\n    /* \"#utility.yul\":5907:5985   */\n  tag_93\n    /* \"#utility.yul\":5980:5984   */\n  dup2\n    /* \"#utility.yul\":5971:5977   */\n  dup5\n    /* \"#utility.yul\":5907:5985   */\n  tag_32\n  jump\t// in\ntag_93:\n    /* \"#utility.yul\":5899:5985   */\n  swap1\n  pop\n    /* \"#utility.yul\":5478:5992   */\n  swap4\n  swap3\n  pop\n  pop\n  pop\n  jump\t// out\n    /* \"contracts/FarmVault.sol\":110:535  contract FarmVault is Initializable {... */\ntag_13:\n  dataSize(sub_0)\n  dup1\n  dataOffset(sub_0)\n  0x00\n  codecopy\n  0x00\n  return\nstop\n\nsub_0: assembly {\n        /* \"contracts/FarmVault.sol\":110:535  contract FarmVault is Initializable {... */\n      mstore(0x40, 0x80)\n      callvalue\n      dup1\n      iszero\n      tag_1\n      jumpi\n      0x00\n      dup1\n      revert\n    tag_1:\n      pop\n      jumpi(tag_2, lt(calldatasize, 0x04))\n      shr(0xe0, calldataload(0x00))\n      dup1\n      0x430bf08a\n      eq\n      tag_3\n      jumpi\n      dup1\n      0xc7fc2228\n      eq\n      tag_4\n      jumpi\n    tag_2:\n      0x00\n      dup1\n      revert\n        /* \"contracts/FarmVault.sol\":442:533  function vaultAddress() public view returns (address) {... */\n    tag_3:\n      tag_5\n      tag_6\n      jump\t// in\n    tag_5:\n      mload(0x40)\n      tag_7\n      swap2\n      swap1\n      tag_8\n      jump\t// in\n    tag_7:\n      mload(0x40)\n      dup1\n      swap2\n      sub\n      swap1\n      return\n        /* \"contracts/FarmVault.sol\":336:436  function tokenDebtAddress() public view returns (address) {... */\n    tag_4:\n      tag_9\n      tag_10\n      jump\t// in\n    tag_9:\n      mload(0x40)\n      tag_11\n      swap2\n      swap1\n      tag_8\n      jump\t// in\n    tag_11:\n      mload(0x40)\n      dup1\n      swap2\n      sub\n      swap1\n      return\n        /* \"contracts/FarmVault.sol\":442:533  function vaultAddress() public view returns (address) {... */\n    tag_6:\n        /* \"contracts/FarmVault.sol\":487:494  address */\n      0x00\n        /* \"contracts/FarmVault.sol\":521:525  this */\n      address\n        /* \"contracts/FarmVault.sol\":506:526  return address(this) */\n      swap1\n      pop\n        /* \"contracts/FarmVault.sol\":442:533  function vaultAddress() public view returns (address) {... */\n      swap1\n      jump\t// out\n        /* \"contracts/FarmVault.sol\":336:436  function tokenDebtAddress() public view returns (address) {... */\n    tag_10:\n        /* \"contracts/FarmVault.sol\":385:392  address */\n      0x00\n        /* \"contracts/FarmVault.sol\":419:428  tokenDebt */\n      0x33\n      0x00\n      swap1\n      sload\n      swap1\n      0x0100\n      exp\n      swap1\n      div\n      0xffffffffffffffffffffffffffffffffffffffff\n      and\n        /* \"contracts/FarmVault.sol\":404:429  return address(tokenDebt) */\n      swap1\n      pop\n        /* \"contracts/FarmVault.sol\":336:436  function tokenDebtAddress() public view returns (address) {... */\n      swap1\n      jump\t// out\n        /* \"#utility.yul\":7:133   */\n    tag_14:\n        /* \"#utility.yul\":44:51   */\n      0x00\n        /* \"#utility.yul\":84:126   */\n      0xffffffffffffffffffffffffffffffffffffffff\n        /* \"#utility.yul\":77:82   */\n      dup3\n        /* \"#utility.yul\":73:127   */\n      and\n        /* \"#utility.yul\":62:127   */\n      swap1\n      pop\n        /* \"#utility.yul\":7:133   */\n      swap2\n      swap1\n      pop\n      jump\t// out\n        /* \"#utility.yul\":139:235   */\n    tag_15:\n        /* \"#utility.yul\":176:183   */\n      0x00\n        /* \"#utility.yul\":205:229   */\n      tag_20\n        /* \"#utility.yul\":223:228   */\n      dup3\n        /* \"#utility.yul\":205:229   */\n      tag_14\n      jump\t// in\n    tag_20:\n        /* \"#utility.yul\":194:229   */\n      swap1\n      pop\n        /* \"#utility.yul\":139:235   */\n      swap2\n      swap1\n      pop\n      jump\t// out\n        /* \"#utility.yul\":241:359   */\n    tag_16:\n        /* \"#utility.yul\":328:352   */\n      tag_22\n        /* \"#utility.yul\":346:351   */\n      dup2\n        /* \"#utility.yul\":328:352   */\n      tag_15\n      jump\t// in\n    tag_22:\n        /* \"#utility.yul\":323:326   */\n      dup3\n        /* \"#utility.yul\":316:353   */\n      mstore\n        /* \"#utility.yul\":241:359   */\n      pop\n      pop\n      jump\t// out\n        /* \"#utility.yul\":365:587   */\n    tag_8:\n        /* \"#utility.yul\":458:462   */\n      0x00\n        /* \"#utility.yul\":496:498   */\n      0x20\n        /* \"#utility.yul\":485:494   */\n      dup3\n        /* \"#utility.yul\":481:499   */\n      add\n        /* \"#utility.yul\":473:499   */\n      swap1\n      pop\n        /* \"#utility.yul\":509:580   */\n      tag_24\n        /* \"#utility.yul\":577:578   */\n      0x00\n        /* \"#utility.yul\":566:575   */\n      dup4\n        /* \"#utility.yul\":562:579   */\n      add\n        /* \"#utility.yul\":553:559   */\n      dup5\n        /* \"#utility.yul\":509:580   */\n      tag_16\n      jump\t// in\n    tag_24:\n        /* \"#utility.yul\":365:587   */\n      swap3\n      swap2\n      pop\n      pop\n      jump\t// out\n\n    auxdata: 0xa264697066735822122018ecebeeaab8ea6beaeb9bd2446dca8bb1fa9214d1becabe26ca6ea030f399b764736f6c63430008110033\n}\n\nsub_1: assembly {\n        /* \"contracts/ERC20.sol\":184:10346  contract ERC20UpgradeSafe is Initializable, ContextUpgradeSafe, IERC20 {... */\n      mstore(0x40, 0x80)\n        /* \"contracts/ERC20.sol\":887:1088  constructor(string memory tokenName, string memory tokenSymbol) initializer {... */\n      callvalue\n      dup1\n      iszero\n      tag_1\n      jumpi\n      0x00\n      dup1\n      revert\n    tag_1:\n      pop\n      mload(0x40)\n      sub(codesize, bytecodeSize)\n      dup1\n      bytecodeSize\n      dup4\n      codecopy\n      dup2\n      dup2\n      add\n      0x40\n      mstore\n      dup2\n      add\n      swap1\n      tag_2\n      swap2\n      swap1\n      tag_3\n      jump\t// in\n    tag_2:\n        /* \"contracts/Initializable.sol\":443:455  initializing */\n      0x00\n      0x01\n      swap1\n      sload\n      swap1\n      0x0100\n      exp\n      swap1\n      div\n      0xff\n      and\n        /* \"contracts/Initializable.sol\":443:474  initializing || isConstructor() */\n      dup1\n      tag_6\n      jumpi\n      pop\n        /* \"contracts/Initializable.sol\":459:474  isConstructor() */\n      tag_7\n        /* \"contracts/Initializable.sol\":459:472  isConstructor */\n      shl(0x20, tag_8)\n        /* \"contracts/Initializable.sol\":459:474  isConstructor() */\n      0x20\n      shr\n      jump\t// in\n    tag_7:\n        /* \"contracts/Initializable.sol\":443:474  initializing || isConstructor() */\n    tag_6:\n        /* \"contracts/Initializable.sol\":443:490  initializing || isConstructor() || !initialized */\n      dup1\n      tag_9\n      jumpi\n      pop\n        /* \"contracts/Initializable.sol\":479:490  initialized */\n      0x00\n      dup1\n      sload\n      swap1\n      0x0100\n      exp\n      swap1\n      div\n      0xff\n      and\n        /* \"contracts/Initializable.sol\":478:490  !initialized */\n      iszero\n        /* \"contracts/Initializable.sol\":443:490  initializing || isConstructor() || !initialized */\n    tag_9:\n        /* \"contracts/Initializable.sol\":435:541  require(initializing || isConstructor() || !initialized, \"Contract instance has already been initialized\") */\n      tag_10\n      jumpi\n      mload(0x40)\n      0x08c379a000000000000000000000000000000000000000000000000000000000\n      dup2\n      mstore\n      0x04\n      add\n      tag_11\n      swap1\n      tag_12\n      jump\t// in\n    tag_11:\n      mload(0x40)\n      dup1\n      swap2\n      sub\n      swap1\n      revert\n    tag_10:\n        /* \"contracts/Initializable.sol\":550:569  bool isTopLevelCall */\n      0x00\n        /* \"contracts/Initializable.sol\":573:585  initializing */\n      dup1\n      0x01\n      swap1\n      sload\n      swap1\n      0x0100\n      exp\n      swap1\n      div\n      0xff\n      and\n        /* \"contracts/Initializable.sol\":572:585  !initializing */\n      iszero\n        /* \"contracts/Initializable.sol\":550:585  bool isTopLevelCall = !initializing */\n      swap1\n      pop\n        /* \"contracts/Initializable.sol\":596:610  isTopLevelCall */\n      dup1\n        /* \"contracts/Initializable.sol\":592:675  if (isTopLevelCall) {... */\n      iszero\n      tag_13\n      jumpi\n        /* \"contracts/Initializable.sol\":636:640  true */\n      0x01\n        /* \"contracts/Initializable.sol\":621:633  initializing */\n      0x00\n      0x01\n        /* \"contracts/Initializable.sol\":621:640  initializing = true */\n      0x0100\n      exp\n      dup2\n      sload\n      dup2\n      0xff\n      mul\n      not\n      and\n      swap1\n      dup4\n      iszero\n      iszero\n      mul\n      or\n      swap1\n      sstore\n      pop\n        /* \"contracts/Initializable.sol\":663:667  true */\n      0x01\n        /* \"contracts/Initializable.sol\":649:660  initialized */\n      0x00\n      dup1\n        /* \"contracts/Initializable.sol\":649:667  initialized = true */\n      0x0100\n      exp\n      dup2\n      sload\n      dup2\n      0xff\n      mul\n      not\n      and\n      swap1\n      dup4\n      iszero\n      iszero\n      mul\n      or\n      swap1\n      sstore\n      pop\n        /* \"contracts/Initializable.sol\":592:675  if (isTopLevelCall) {... */\n    tag_13:\n        /* \"contracts/ERC20.sol\":973:999  __Context_init_unchained() */\n      tag_15\n        /* \"contracts/ERC20.sol\":973:997  __Context_init_unchained */\n      shl(0x20, tag_16)\n        /* \"contracts/ERC20.sol\":973:999  __Context_init_unchained() */\n      0x20\n      shr\n      jump\t// in\n    tag_15:\n        /* \"contracts/ERC20.sol\":1017:1026  tokenName */\n      dup3\n        /* \"contracts/ERC20.sol\":1009:1014  _name */\n      0x68\n        /* \"contracts/ERC20.sol\":1009:1026  _name = tokenName */\n      swap1\n      dup2\n      tag_17\n      swap2\n      swap1\n      tag_18\n      jump\t// in\n    tag_17:\n      pop\n        /* \"contracts/ERC20.sol\":1046:1057  tokenSymbol */\n      dup2\n        /* \"contracts/ERC20.sol\":1036:1043  _symbol */\n      0x69\n        /* \"contracts/ERC20.sol\":1036:1057  _symbol = tokenSymbol */\n      swap1\n      dup2\n      tag_19\n      swap2\n      swap1\n      tag_18\n      jump\t// in\n    tag_19:\n      pop\n        /* \"contracts/ERC20.sol\":1079:1081  18 */\n      0x12\n        /* \"contracts/ERC20.sol\":1067:1076  _decimals */\n      0x6a\n      0x00\n        /* \"contracts/ERC20.sol\":1067:1081  _decimals = 18 */\n      0x0100\n      exp\n      dup2\n      sload\n      dup2\n      0xff\n      mul\n      not\n      and\n      swap1\n      dup4\n      0xff\n      and\n      mul\n      or\n      swap1\n      sstore\n      pop\n        /* \"contracts/Initializable.sol\":697:711  isTopLevelCall */\n      dup1\n        /* \"contracts/Initializable.sol\":693:750  if (isTopLevelCall) {... */\n      iszero\n      tag_20\n      jumpi\n        /* \"contracts/Initializable.sol\":737:742  false */\n      0x00\n        /* \"contracts/Initializable.sol\":722:734  initializing */\n      dup1\n      0x01\n        /* \"contracts/Initializable.sol\":722:742  initializing = false */\n      0x0100\n      exp\n      dup2\n      sload\n      dup2\n      0xff\n      mul\n      not\n      and\n      swap1\n      dup4\n      iszero\n      iszero\n      mul\n      or\n      swap1\n      sstore\n      pop\n        /* \"contracts/Initializable.sol\":693:750  if (isTopLevelCall) {... */\n    tag_20:\n        /* \"contracts/Initializable.sol\":428:755  {... */\n      pop\n        /* \"contracts/ERC20.sol\":887:1088  constructor(string memory tokenName, string memory tokenSymbol) initializer {... */\n      pop\n      pop\n        /* \"contracts/ERC20.sol\":184:10346  contract ERC20UpgradeSafe is Initializable, ContextUpgradeSafe, IERC20 {... */\n      jump(tag_21)\n        /* \"contracts/Initializable.sol\":844:1352  function isConstructor() private view returns (bool) {... */\n    tag_8:\n        /* \"contracts/Initializable.sol\":891:895  bool */\n      0x00\n        /* \"contracts/Initializable.sol\":1238:1250  address self */\n      dup1\n        /* \"contracts/Initializable.sol\":1261:1265  this */\n      address\n        /* \"contracts/Initializable.sol\":1238:1266  address self = address(this) */\n      swap1\n      pop\n        /* \"contracts/Initializable.sol\":1273:1283  uint256 cs */\n      0x00\n        /* \"contracts/Initializable.sol\":1319:1323  self */\n      dup2\n        /* \"contracts/Initializable.sol\":1307:1324  extcodesize(self) */\n      extcodesize\n        /* \"contracts/Initializable.sol\":1301:1324  cs := extcodesize(self) */\n      swap1\n      pop\n        /* \"contracts/Initializable.sol\":1345:1346  0 */\n      0x00\n        /* \"contracts/Initializable.sol\":1339:1341  cs */\n      dup2\n        /* \"contracts/Initializable.sol\":1339:1346  cs == 0 */\n      eq\n        /* \"contracts/Initializable.sol\":1332:1346  return cs == 0 */\n      swap3\n      pop\n      pop\n      pop\n        /* \"contracts/Initializable.sol\":844:1352  function isConstructor() private view returns (bool) {... */\n      swap1\n      jump\t// out\n        /* \"contracts/Context.sol\":389:448  function __Context_init_unchained() internal initializer {} */\n    tag_16:\n        /* \"contracts/Initializable.sol\":443:455  initializing */\n      0x00\n      0x01\n      swap1\n      sload\n      swap1\n      0x0100\n      exp\n      swap1\n      div\n      0xff\n      and\n        /* \"contracts/Initializable.sol\":443:474  initializing || isConstructor() */\n      dup1\n      tag_24\n      jumpi\n      pop\n        /* \"contracts/Initializable.sol\":459:474  isConstructor() */\n      tag_25\n        /* \"contracts/Initializable.sol\":459:472  isConstructor */\n      shl(0x20, tag_8)\n        /* \"contracts/Initializable.sol\":459:474  isConstructor() */\n      0x20\n      shr\n      jump\t// in\n    tag_25:\n        /* \"contracts/Initializable.sol\":443:474  initializing || isConstructor() */\n    tag_24:\n        /* \"contracts/Initializable.sol\":443:490  initializing || isConstructor() || !initialized */\n      dup1\n      tag_26\n      jumpi\n      pop\n        /* \"contracts/Initializable.sol\":479:490  initialized */\n      0x00\n      dup1\n      sload\n      swap1\n      0x0100\n      exp\n      swap1\n      div\n      0xff\n      and\n        /* \"contracts/Initializable.sol\":478:490  !initialized */\n      iszero\n        /* \"contracts/Initializable.sol\":443:490  initializing || isConstructor() || !initialized */\n    tag_26:\n        /* \"contracts/Initializable.sol\":435:541  require(initializing || isConstructor() || !initialized, \"Contract instance has already been initialized\") */\n      tag_27\n      jumpi\n      mload(0x40)\n      0x08c379a000000000000000000000000000000000000000000000000000000000\n      dup2\n      mstore\n      0x04\n      add\n      tag_28\n      swap1\n      tag_12\n      jump\t// in\n    tag_28:\n      mload(0x40)\n      dup1\n      swap2\n      sub\n      swap1\n      revert\n    tag_27:\n        /* \"contracts/Initializable.sol\":550:569  bool isTopLevelCall */\n      0x00\n        /* \"contracts/Initializable.sol\":573:585  initializing */\n      dup1\n      0x01\n      swap1\n      sload\n      swap1\n      0x0100\n      exp\n      swap1\n      div\n      0xff\n      and\n        /* \"contracts/Initializable.sol\":572:585  !initializing */\n      iszero\n        /* \"contracts/Initializable.sol\":550:585  bool isTopLevelCall = !initializing */\n      swap1\n      pop\n        /* \"contracts/Initializable.sol\":596:610  isTopLevelCall */\n      dup1\n        /* \"contracts/Initializable.sol\":592:675  if (isTopLevelCall) {... */\n      iszero\n      tag_29\n      jumpi\n        /* \"contracts/Initializable.sol\":636:640  true */\n      0x01\n        /* \"contracts/Initializable.sol\":621:633  initializing */\n      0x00\n      0x01\n        /* \"contracts/Initializable.sol\":621:640  initializing = true */\n      0x0100\n      exp\n      dup2\n      sload\n      dup2\n      0xff\n      mul\n      not\n      and\n      swap1\n      dup4\n      iszero\n      iszero\n      mul\n      or\n      swap1\n      sstore\n      pop\n        /* \"contracts/Initializable.sol\":663:667  true */\n      0x01\n        /* \"contracts/Initializable.sol\":649:660  initialized */\n      0x00\n      dup1\n        /* \"contracts/Initializable.sol\":649:667  initialized = true */\n      0x0100\n      exp\n      dup2\n      sload\n      dup2\n      0xff\n      mul\n      not\n      and\n      swap1\n      dup4\n      iszero\n      iszero\n      mul\n      or\n      swap1\n      sstore\n      pop\n        /* \"contracts/Initializable.sol\":592:675  if (isTopLevelCall) {... */\n    tag_29:\n        /* \"contracts/Initializable.sol\":697:711  isTopLevelCall */\n      dup1\n        /* \"contracts/Initializable.sol\":693:750  if (isTopLevelCall) {... */\n      iszero\n      tag_31\n      jumpi\n        /* \"contracts/Initializable.sol\":737:742  false */\n      0x00\n        /* \"contracts/Initializable.sol\":722:734  initializing */\n      dup1\n      0x01\n        /* \"contracts/Initializable.sol\":722:742  initializing = false */\n      0x0100\n      exp\n      dup2\n      sload\n      dup2\n      0xff\n      mul\n      not\n      and\n      swap1\n      dup4\n      iszero\n      iszero\n      mul\n      or\n      swap1\n      sstore\n      pop\n        /* \"contracts/Initializable.sol\":693:750  if (isTopLevelCall) {... */\n    tag_31:\n        /* \"contracts/Initializable.sol\":428:755  {... */\n      pop\n        /* \"contracts/Context.sol\":389:448  function __Context_init_unchained() internal initializer {} */\n      jump\t// out\n        /* \"#utility.yul\":7:82   */\n    tag_32:\n        /* \"#utility.yul\":40:46   */\n      0x00\n        /* \"#utility.yul\":73:75   */\n      0x40\n        /* \"#utility.yul\":67:76   */\n      mload\n        /* \"#utility.yul\":57:76   */\n      swap1\n      pop\n        /* \"#utility.yul\":7:82   */\n      swap1\n      jump\t// out\n        /* \"#utility.yul\":88:205   */\n    tag_33:\n        /* \"#utility.yul\":197:198   */\n      0x00\n        /* \"#utility.yul\":194:195   */\n      dup1\n        /* \"#utility.yul\":187:199   */\n      revert\n        /* \"#utility.yul\":211:328   */\n    tag_34:\n        /* \"#utility.yul\":320:321   */\n      0x00\n        /* \"#utility.yul\":317:318   */\n      dup1\n        /* \"#utility.yul\":310:322   */\n      revert\n        /* \"#utility.yul\":334:451   */\n    tag_35:\n        /* \"#utility.yul\":443:444   */\n      0x00\n        /* \"#utility.yul\":440:441   */\n      dup1\n        /* \"#utility.yul\":433:445   */\n      revert\n        /* \"#utility.yul\":457:574   */\n    tag_36:\n        /* \"#utility.yul\":566:567   */\n      0x00\n        /* \"#utility.yul\":563:564   */\n      dup1\n        /* \"#utility.yul\":556:568   */\n      revert\n        /* \"#utility.yul\":580:682   */\n    tag_37:\n        /* \"#utility.yul\":621:627   */\n      0x00\n        /* \"#utility.yul\":672:674   */\n      0x1f\n        /* \"#utility.yul\":668:675   */\n      not\n        /* \"#utility.yul\":663:665   */\n      0x1f\n        /* \"#utility.yul\":656:661   */\n      dup4\n        /* \"#utility.yul\":652:666   */\n      add\n        /* \"#utility.yul\":648:676   */\n      and\n        /* \"#utility.yul\":638:676   */\n      swap1\n      pop\n        /* \"#utility.yul\":580:682   */\n      swap2\n      swap1\n      pop\n      jump\t// out\n        /* \"#utility.yul\":688:868   */\n    tag_38:\n        /* \"#utility.yul\":736:813   */\n      0x4e487b7100000000000000000000000000000000000000000000000000000000\n        /* \"#utility.yul\":733:734   */\n      0x00\n        /* \"#utility.yul\":726:814   */\n      mstore\n        /* \"#utility.yul\":833:837   */\n      0x41\n        /* \"#utility.yul\":830:831   */\n      0x04\n        /* \"#utility.yul\":823:838   */\n      mstore\n        /* \"#utility.yul\":857:861   */\n      0x24\n        /* \"#utility.yul\":854:855   */\n      0x00\n        /* \"#utility.yul\":847:862   */\n      revert\n        /* \"#utility.yul\":874:1155   */\n    tag_39:\n        /* \"#utility.yul\":957:984   */\n      tag_76\n        /* \"#utility.yul\":979:983   */\n      dup3\n        /* \"#utility.yul\":957:984   */\n      tag_37\n      jump\t// in\n    tag_76:\n        /* \"#utility.yul\":949:955   */\n      dup2\n        /* \"#utility.yul\":945:985   */\n      add\n        /* \"#utility.yul\":1087:1093   */\n      dup2\n        /* \"#utility.yul\":1075:1085   */\n      dup2\n        /* \"#utility.yul\":1072:1094   */\n      lt\n        /* \"#utility.yul\":1051:1069   */\n      0xffffffffffffffff\n        /* \"#utility.yul\":1039:1049   */\n      dup3\n        /* \"#utility.yul\":1036:1070   */\n      gt\n        /* \"#utility.yul\":1033:1095   */\n      or\n        /* \"#utility.yul\":1030:1118   */\n      iszero\n      tag_77\n      jumpi\n        /* \"#utility.yul\":1098:1116   */\n      tag_78\n      tag_38\n      jump\t// in\n    tag_78:\n        /* \"#utility.yul\":1030:1118   */\n    tag_77:\n        /* \"#utility.yul\":1138:1148   */\n      dup1\n        /* \"#utility.yul\":1134:1136   */\n      0x40\n        /* \"#utility.yul\":1127:1149   */\n      mstore\n        /* \"#utility.yul\":917:1155   */\n      pop\n        /* \"#utility.yul\":874:1155   */\n      pop\n      pop\n      jump\t// out\n        /* \"#utility.yul\":1161:1290   */\n    tag_40:\n        /* \"#utility.yul\":1195:1201   */\n      0x00\n        /* \"#utility.yul\":1222:1242   */\n      tag_80\n      tag_32\n      jump\t// in\n    tag_80:\n        /* \"#utility.yul\":1212:1242   */\n      swap1\n      pop\n        /* \"#utility.yul\":1251:1284   */\n      tag_81\n        /* \"#utility.yul\":1279:1283   */\n      dup3\n        /* \"#utility.yul\":1271:1277   */\n      dup3\n        /* \"#utility.yul\":1251:1284   */\n      tag_39\n      jump\t// in\n    tag_81:\n        /* \"#utility.yul\":1161:1290   */\n      swap2\n      swap1\n      pop\n      jump\t// out\n        /* \"#utility.yul\":1296:1604   */\n    tag_41:\n        /* \"#utility.yul\":1358:1362   */\n      0x00\n        /* \"#utility.yul\":1448:1466   */\n      0xffffffffffffffff\n        /* \"#utility.yul\":1440:1446   */\n      dup3\n        /* \"#utility.yul\":1437:1467   */\n      gt\n        /* \"#utility.yul\":1434:1490   */\n      iszero\n      tag_83\n      jumpi\n        /* \"#utility.yul\":1470:1488   */\n      tag_84\n      tag_38\n      jump\t// in\n    tag_84:\n        /* \"#utility.yul\":1434:1490   */\n    tag_83:\n        /* \"#utility.yul\":1508:1537   */\n      tag_85\n        /* \"#utility.yul\":1530:1536   */\n      dup3\n        /* \"#utility.yul\":1508:1537   */\n      tag_37\n      jump\t// in\n    tag_85:\n        /* \"#utility.yul\":1500:1537   */\n      swap1\n      pop\n        /* \"#utility.yul\":1592:1596   */\n      0x20\n        /* \"#utility.yul\":1586:1590   */\n      dup2\n        /* \"#utility.yul\":1582:1597   */\n      add\n        /* \"#utility.yul\":1574:1597   */\n      swap1\n      pop\n        /* \"#utility.yul\":1296:1604   */\n      swap2\n      swap1\n      pop\n      jump\t// out\n        /* \"#utility.yul\":1610:1856   */\n    tag_42:\n        /* \"#utility.yul\":1691:1692   */\n      0x00\n        /* \"#utility.yul\":1701:1814   */\n    tag_87:\n        /* \"#utility.yul\":1715:1721   */\n      dup4\n        /* \"#utility.yul\":1712:1713   */\n      dup2\n        /* \"#utility.yul\":1709:1722   */\n      lt\n        /* \"#utility.yul\":1701:1814   */\n      iszero\n      tag_89\n      jumpi\n        /* \"#utility.yul\":1800:1801   */\n      dup1\n        /* \"#utility.yul\":1795:1798   */\n      dup3\n        /* \"#utility.yul\":1791:1802   */\n      add\n        /* \"#utility.yul\":1785:1803   */\n      mload\n        /* \"#utility.yul\":1781:1782   */\n      dup2\n        /* \"#utility.yul\":1776:1779   */\n      dup5\n        /* \"#utility.yul\":1772:1783   */\n      add\n        /* \"#utility.yul\":1765:1804   */\n      mstore\n        /* \"#utility.yul\":1737:1739   */\n      0x20\n        /* \"#utility.yul\":1734:1735   */\n      dup2\n        /* \"#utility.yul\":1730:1740   */\n      add\n        /* \"#utility.yul\":1725:1740   */\n      swap1\n      pop\n        /* \"#utility.yul\":1701:1814   */\n      jump(tag_87)\n    tag_89:\n        /* \"#utility.yul\":1848:1849   */\n      0x00\n        /* \"#utility.yul\":1839:1845   */\n      dup5\n        /* \"#utility.yul\":1834:1837   */\n      dup5\n        /* \"#utility.yul\":1830:1846   */\n      add\n        /* \"#utility.yul\":1823:1850   */\n      mstore\n        /* \"#utility.yul\":1672:1856   */\n      pop\n        /* \"#utility.yul\":1610:1856   */\n      pop\n      pop\n      pop\n      jump\t// out\n        /* \"#utility.yul\":1862:2296   */\n    tag_43:\n        /* \"#utility.yul\":1951:1956   */\n      0x00\n        /* \"#utility.yul\":1976:2042   */\n      tag_91\n        /* \"#utility.yul\":1992:2041   */\n      tag_92\n        /* \"#utility.yul\":2034:2040   */\n      dup5\n        /* \"#utility.yul\":1992:2041   */\n      tag_41\n      jump\t// in\n    tag_92:\n        /* \"#utility.yul\":1976:2042   */\n      tag_40\n      jump\t// in\n    tag_91:\n        /* \"#utility.yul\":1967:2042   */\n      swap1\n      pop\n        /* \"#utility.yul\":2065:2071   */\n      dup3\n        /* \"#utility.yul\":2058:2063   */\n      dup2\n        /* \"#utility.yul\":2051:2072   */\n      mstore\n        /* \"#utility.yul\":2103:2107   */\n      0x20\n        /* \"#utility.yul\":2096:2101   */\n      dup2\n        /* \"#utility.yul\":2092:2108   */\n      add\n        /* \"#utility.yul\":2141:2144   */\n      dup5\n        /* \"#utility.yul\":2132:2138   */\n      dup5\n        /* \"#utility.yul\":2127:2130   */\n      dup5\n        /* \"#utility.yul\":2123:2139   */\n      add\n        /* \"#utility.yul\":2120:2145   */\n      gt\n        /* \"#utility.yul\":2117:2229   */\n      iszero\n      tag_93\n      jumpi\n        /* \"#utility.yul\":2148:2227   */\n      tag_94\n      tag_36\n      jump\t// in\n    tag_94:\n        /* \"#utility.yul\":2117:2229   */\n    tag_93:\n        /* \"#utility.yul\":2238:2290   */\n      tag_95\n        /* \"#utility.yul\":2283:2289   */\n      dup5\n        /* \"#utility.yul\":2278:2281   */\n      dup3\n        /* \"#utility.yul\":2273:2276   */\n      dup6\n        /* \"#utility.yul\":2238:2290   */\n      tag_42\n      jump\t// in\n    tag_95:\n        /* \"#utility.yul\":1957:2296   */\n      pop\n        /* \"#utility.yul\":1862:2296   */\n      swap4\n      swap3\n      pop\n      pop\n      pop\n      jump\t// out\n        /* \"#utility.yul\":2316:2671   */\n    tag_44:\n        /* \"#utility.yul\":2383:2388   */\n      0x00\n        /* \"#utility.yul\":2432:2435   */\n      dup3\n        /* \"#utility.yul\":2425:2429   */\n      0x1f\n        /* \"#utility.yul\":2417:2423   */\n      dup4\n        /* \"#utility.yul\":2413:2430   */\n      add\n        /* \"#utility.yul\":2409:2436   */\n      slt\n        /* \"#utility.yul\":2399:2521   */\n      tag_97\n      jumpi\n        /* \"#utility.yul\":2440:2519   */\n      tag_98\n      tag_35\n      jump\t// in\n    tag_98:\n        /* \"#utility.yul\":2399:2521   */\n    tag_97:\n        /* \"#utility.yul\":2550:2556   */\n      dup2\n        /* \"#utility.yul\":2544:2557   */\n      mload\n        /* \"#utility.yul\":2575:2665   */\n      tag_99\n        /* \"#utility.yul\":2661:2664   */\n      dup5\n        /* \"#utility.yul\":2653:2659   */\n      dup3\n        /* \"#utility.yul\":2646:2650   */\n      0x20\n        /* \"#utility.yul\":2638:2644   */\n      dup7\n        /* \"#utility.yul\":2634:2651   */\n      add\n        /* \"#utility.yul\":2575:2665   */\n      tag_43\n      jump\t// in\n    tag_99:\n        /* \"#utility.yul\":2566:2665   */\n      swap2\n      pop\n        /* \"#utility.yul\":2389:2671   */\n      pop\n        /* \"#utility.yul\":2316:2671   */\n      swap3\n      swap2\n      pop\n      pop\n      jump\t// out\n        /* \"#utility.yul\":2677:3530   */\n    tag_3:\n        /* \"#utility.yul\":2776:2782   */\n      0x00\n        /* \"#utility.yul\":2784:2790   */\n      dup1\n        /* \"#utility.yul\":2833:2835   */\n      0x40\n        /* \"#utility.yul\":2821:2830   */\n      dup4\n        /* \"#utility.yul\":2812:2819   */\n      dup6\n        /* \"#utility.yul\":2808:2831   */\n      sub\n        /* \"#utility.yul\":2804:2836   */\n      slt\n        /* \"#utility.yul\":2801:2920   */\n      iszero\n      tag_101\n      jumpi\n        /* \"#utility.yul\":2839:2918   */\n      tag_102\n      tag_33\n      jump\t// in\n    tag_102:\n        /* \"#utility.yul\":2801:2920   */\n    tag_101:\n        /* \"#utility.yul\":2980:2981   */\n      0x00\n        /* \"#utility.yul\":2969:2978   */\n      dup4\n        /* \"#utility.yul\":2965:2982   */\n      add\n        /* \"#utility.yul\":2959:2983   */\n      mload\n        /* \"#utility.yul\":3010:3028   */\n      0xffffffffffffffff\n        /* \"#utility.yul\":3002:3008   */\n      dup2\n        /* \"#utility.yul\":2999:3029   */\n      gt\n        /* \"#utility.yul\":2996:3113   */\n      iszero\n      tag_103\n      jumpi\n        /* \"#utility.yul\":3032:3111   */\n      tag_104\n      tag_34\n      jump\t// in\n    tag_104:\n        /* \"#utility.yul\":2996:3113   */\n    tag_103:\n        /* \"#utility.yul\":3137:3211   */\n      tag_105\n        /* \"#utility.yul\":3203:3210   */\n      dup6\n        /* \"#utility.yul\":3194:3200   */\n      dup3\n        /* \"#utility.yul\":3183:3192   */\n      dup7\n        /* \"#utility.yul\":3179:3201   */\n      add\n        /* \"#utility.yul\":3137:3211   */\n      tag_44\n      jump\t// in\n    tag_105:\n        /* \"#utility.yul\":3127:3211   */\n      swap3\n      pop\n        /* \"#utility.yul\":2930:3221   */\n      pop\n        /* \"#utility.yul\":3281:3283   */\n      0x20\n        /* \"#utility.yul\":3270:3279   */\n      dup4\n        /* \"#utility.yul\":3266:3284   */\n      add\n        /* \"#utility.yul\":3260:3285   */\n      mload\n        /* \"#utility.yul\":3312:3330   */\n      0xffffffffffffffff\n        /* \"#utility.yul\":3304:3310   */\n      dup2\n        /* \"#utility.yul\":3301:3331   */\n      gt\n        /* \"#utility.yul\":3298:3415   */\n      iszero\n      tag_106\n      jumpi\n        /* \"#utility.yul\":3334:3413   */\n      tag_107\n      tag_34\n      jump\t// in\n    tag_107:\n        /* \"#utility.yul\":3298:3415   */\n    tag_106:\n        /* \"#utility.yul\":3439:3513   */\n      tag_108\n        /* \"#utility.yul\":3505:3512   */\n      dup6\n        /* \"#utility.yul\":3496:3502   */\n      dup3\n        /* \"#utility.yul\":3485:3494   */\n      dup7\n        /* \"#utility.yul\":3481:3503   */\n      add\n        /* \"#utility.yul\":3439:3513   */\n      tag_44\n      jump\t// in\n    tag_108:\n        /* \"#utility.yul\":3429:3513   */\n      swap2\n      pop\n        /* \"#utility.yul\":3231:3523   */\n      pop\n        /* \"#utility.yul\":2677:3530   */\n      swap3\n      pop\n      swap3\n      swap1\n      pop\n      jump\t// out\n        /* \"#utility.yul\":3536:3705   */\n    tag_45:\n        /* \"#utility.yul\":3620:3631   */\n      0x00\n        /* \"#utility.yul\":3654:3660   */\n      dup3\n        /* \"#utility.yul\":3649:3652   */\n      dup3\n        /* \"#utility.yul\":3642:3661   */\n      mstore\n        /* \"#utility.yul\":3694:3698   */\n      0x20\n        /* \"#utility.yul\":3689:3692   */\n      dup3\n        /* \"#utility.yul\":3685:3699   */\n      add\n        /* \"#utility.yul\":3670:3699   */\n      swap1\n      pop\n        /* \"#utility.yul\":3536:3705   */\n      swap3\n      swap2\n      pop\n      pop\n      jump\t// out\n        /* \"#utility.yul\":3711:3944   */\n    tag_46:\n        /* \"#utility.yul\":3851:3885   */\n      0x436f6e747261637420696e7374616e63652068617320616c7265616479206265\n        /* \"#utility.yul\":3847:3848   */\n      0x00\n        /* \"#utility.yul\":3839:3845   */\n      dup3\n        /* \"#utility.yul\":3835:3849   */\n      add\n        /* \"#utility.yul\":3828:3886   */\n      mstore\n        /* \"#utility.yul\":3920:3936   */\n      0x656e20696e697469616c697a6564000000000000000000000000000000000000\n        /* \"#utility.yul\":3915:3917   */\n      0x20\n        /* \"#utility.yul\":3907:3913   */\n      dup3\n        /* \"#utility.yul\":3903:3918   */\n      add\n        /* \"#utility.yul\":3896:3937   */\n      mstore\n        /* \"#utility.yul\":3711:3944   */\n      pop\n      jump\t// out\n        /* \"#utility.yul\":3950:4316   */\n    tag_47:\n        /* \"#utility.yul\":4092:4095   */\n      0x00\n        /* \"#utility.yul\":4113:4180   */\n      tag_112\n        /* \"#utility.yul\":4177:4179   */\n      0x2e\n        /* \"#utility.yul\":4172:4175   */\n      dup4\n        /* \"#utility.yul\":4113:4180   */\n      tag_45\n      jump\t// in\n    tag_112:\n        /* \"#utility.yul\":4106:4180   */\n      swap2\n      pop\n        /* \"#utility.yul\":4189:4282   */\n      tag_113\n        /* \"#utility.yul\":4278:4281   */\n      dup3\n        /* \"#utility.yul\":4189:4282   */\n      tag_46\n      jump\t// in\n    tag_113:\n        /* \"#utility.yul\":4307:4309   */\n      0x40\n        /* \"#utility.yul\":4302:4305   */\n      dup3\n        /* \"#utility.yul\":4298:4310   */\n      add\n        /* \"#utility.yul\":4291:4310   */\n      swap1\n      pop\n        /* \"#utility.yul\":3950:4316   */\n      swap2\n      swap1\n      pop\n      jump\t// out\n        /* \"#utility.yul\":4322:4741   */\n    tag_12:\n        /* \"#utility.yul\":4488:4492   */\n      0x00\n        /* \"#utility.yul\":4526:4528   */\n      0x20\n        /* \"#utility.yul\":4515:4524   */\n      dup3\n        /* \"#utility.yul\":4511:4529   */\n      add\n        /* \"#utility.yul\":4503:4529   */\n      swap1\n      pop\n        /* \"#utility.yul\":4575:4584   */\n      dup2\n        /* \"#utility.yul\":4569:4573   */\n      dup2\n        /* \"#utility.yul\":4565:4585   */\n      sub\n        /* \"#utility.yul\":4561:4562   */\n      0x00\n        /* \"#utility.yul\":4550:4559   */\n      dup4\n        /* \"#utility.yul\":4546:4563   */\n      add\n        /* \"#utility.yul\":4539:4586   */\n      mstore\n        /* \"#utility.yul\":4603:4734   */\n      tag_115\n        /* \"#utility.yul\":4729:4733   */\n      dup2\n        /* \"#utility.yul\":4603:4734   */\n      tag_47\n      jump\t// in\n    tag_115:\n        /* \"#utility.yul\":4595:4734   */\n      swap1\n      pop\n        /* \"#utility.yul\":4322:4741   */\n      swap2\n      swap1\n      pop\n      jump\t// out\n        /* \"#utility.yul\":4747:4846   */\n    tag_48:\n        /* \"#utility.yul\":4799:4805   */\n      0x00\n        /* \"#utility.yul\":4833:4838   */\n      dup2\n        /* \"#utility.yul\":4827:4839   */\n      mload\n        /* \"#utility.yul\":4817:4839   */\n      swap1\n      pop\n        /* \"#utility.yul\":4747:4846   */\n      swap2\n      swap1\n      pop\n      jump\t// out\n        /* \"#utility.yul\":4852:5032   */\n    tag_49:\n        /* \"#utility.yul\":4900:4977   */\n      0x4e487b7100000000000000000000000000000000000000000000000000000000\n        /* \"#utility.yul\":4897:4898   */\n      0x00\n        /* \"#utility.yul\":4890:4978   */\n      mstore\n        /* \"#utility.yul\":4997:5001   */\n      0x22\n        /* \"#utility.yul\":4994:4995   */\n      0x04\n        /* \"#utility.yul\":4987:5002   */\n      mstore\n        /* \"#utility.yul\":5021:5025   */\n      0x24\n        /* \"#utility.yul\":5018:5019   */\n      0x00\n        /* \"#utility.yul\":5011:5026   */\n      revert\n        /* \"#utility.yul\":5038:5358   */\n    tag_50:\n        /* \"#utility.yul\":5082:5088   */\n      0x00\n        /* \"#utility.yul\":5119:5120   */\n      0x02\n        /* \"#utility.yul\":5113:5117   */\n      dup3\n        /* \"#utility.yul\":5109:5121   */\n      div\n        /* \"#utility.yul\":5099:5121   */\n      swap1\n      pop\n        /* \"#utility.yul\":5166:5167   */\n      0x01\n        /* \"#utility.yul\":5160:5164   */\n      dup3\n        /* \"#utility.yul\":5156:5168   */\n      and\n        /* \"#utility.yul\":5187:5205   */\n      dup1\n        /* \"#utility.yul\":5177:5258   */\n      tag_119\n      jumpi\n        /* \"#utility.yul\":5243:5247   */\n      0x7f\n        /* \"#utility.yul\":5235:5241   */\n      dup3\n        /* \"#utility.yul\":5231:5248   */\n      and\n        /* \"#utility.yul\":5221:5248   */\n      swap2\n      pop\n        /* \"#utility.yul\":5177:5258   */\n    tag_119:\n        /* \"#utility.yul\":5305:5307   */\n      0x20\n        /* \"#utility.yul\":5297:5303   */\n      dup3\n        /* \"#utility.yul\":5294:5308   */\n      lt\n        /* \"#utility.yul\":5274:5292   */\n      dup2\n        /* \"#utility.yul\":5271:5309   */\n      sub\n        /* \"#utility.yul\":5268:5352   */\n      tag_120\n      jumpi\n        /* \"#utility.yul\":5324:5342   */\n      tag_121\n      tag_49\n      jump\t// in\n    tag_121:\n        /* \"#utility.yul\":5268:5352   */\n    tag_120:\n        /* \"#utility.yul\":5089:5358   */\n      pop\n        /* \"#utility.yul\":5038:5358   */\n      swap2\n      swap1\n      pop\n      jump\t// out\n        /* \"#utility.yul\":5364:5505   */\n    tag_51:\n        /* \"#utility.yul\":5413:5417   */\n      0x00\n        /* \"#utility.yul\":5436:5439   */\n      dup2\n        /* \"#utility.yul\":5428:5439   */\n      swap1\n      pop\n        /* \"#utility.yul\":5459:5462   */\n      dup2\n        /* \"#utility.yul\":5456:5457   */\n      0x00\n        /* \"#utility.yul\":5449:5463   */\n      mstore\n        /* \"#utility.yul\":5493:5497   */\n      0x20\n        /* \"#utility.yul\":5490:5491   */\n      0x00\n        /* \"#utility.yul\":5480:5498   */\n      keccak256\n        /* \"#utility.yul\":5472:5498   */\n      swap1\n      pop\n        /* \"#utility.yul\":5364:5505   */\n      swap2\n      swap1\n      pop\n      jump\t// out\n        /* \"#utility.yul\":5511:5604   */\n    tag_52:\n        /* \"#utility.yul\":5548:5554   */\n      0x00\n        /* \"#utility.yul\":5595:5597   */\n      0x20\n        /* \"#utility.yul\":5590:5592   */\n      0x1f\n        /* \"#utility.yul\":5583:5588   */\n      dup4\n        /* \"#utility.yul\":5579:5593   */\n      add\n        /* \"#utility.yul\":5575:5598   */\n      div\n        /* \"#utility.yul\":5565:5598   */\n      swap1\n      pop\n        /* \"#utility.yul\":5511:5604   */\n      swap2\n      swap1\n      pop\n      jump\t// out\n        /* \"#utility.yul\":5610:5717   */\n    tag_53:\n        /* \"#utility.yul\":5654:5662   */\n      0x00\n        /* \"#utility.yul\":5704:5709   */\n      dup3\n        /* \"#utility.yul\":5698:5702   */\n      dup3\n        /* \"#utility.yul\":5694:5710   */\n      shl\n        /* \"#utility.yul\":5673:5710   */\n      swap1\n      pop\n        /* \"#utility.yul\":5610:5717   */\n      swap3\n      swap2\n      pop\n      pop\n      jump\t// out\n        /* \"#utility.yul\":5723:6116   */\n    tag_54:\n        /* \"#utility.yul\":5792:5798   */\n      0x00\n        /* \"#utility.yul\":5842:5843   */\n      0x08\n        /* \"#utility.yul\":5830:5840   */\n      dup4\n        /* \"#utility.yul\":5826:5844   */\n      mul\n        /* \"#utility.yul\":5865:5962   */\n      tag_126\n        /* \"#utility.yul\":5895:5961   */\n      0xffffffffffffffffffffffffffffffffffffffffffffffffffffffffffffffff\n        /* \"#utility.yul\":5884:5893   */\n      dup3\n        /* \"#utility.yul\":5865:5962   */\n      tag_53\n      jump\t// in\n    tag_126:\n        /* \"#utility.yul\":5983:6022   */\n      tag_127\n        /* \"#utility.yul\":6013:6021   */\n      dup7\n        /* \"#utility.yul\":6002:6011   */\n      dup4\n        /* \"#utility.yul\":5983:6022   */\n      tag_53\n      jump\t// in\n    tag_127:\n        /* \"#utility.yul\":5971:6022   */\n      swap6\n      pop\n        /* \"#utility.yul\":6055:6059   */\n      dup1\n        /* \"#utility.yul\":6051:6060   */\n      not\n        /* \"#utility.yul\":6044:6049   */\n      dup5\n        /* \"#utility.yul\":6040:6061   */\n      and\n        /* \"#utility.yul\":6031:6061   */\n      swap4\n      pop\n        /* \"#utility.yul\":6104:6108   */\n      dup1\n        /* \"#utility.yul\":6094:6102   */\n      dup7\n        /* \"#utility.yul\":6090:6109   */\n      and\n        /* \"#utility.yul\":6083:6088   */\n      dup5\n        /* \"#utility.yul\":6080:6110   */\n      or\n        /* \"#utility.yul\":6070:6110   */\n      swap3\n      pop\n        /* \"#utility.yul\":5799:6116   */\n      pop\n      pop\n        /* \"#utility.yul\":5723:6116   */\n      swap4\n      swap3\n      pop\n      pop\n      pop\n      jump\t// out\n        /* \"#utility.yul\":6122:6199   */\n    tag_55:\n        /* \"#utility.yul\":6159:6166   */\n      0x00\n        /* \"#utility.yul\":6188:6193   */\n      dup2\n        /* \"#utility.yul\":6177:6193   */\n      swap1\n      pop\n        /* \"#utility.yul\":6122:6199   */\n      swap2\n      swap1\n      pop\n      jump\t// out\n        /* \"#utility.yul\":6205:6265   */\n    tag_56:\n        /* \"#utility.yul\":6233:6236   */\n      0x00\n        /* \"#utility.yul\":6254:6259   */\n      dup2\n        /* \"#utility.yul\":6247:6259   */\n      swap1\n      pop\n        /* \"#utility.yul\":6205:6265   */\n      swap2\n      swap1\n      pop\n      jump\t// out\n        /* \"#utility.yul\":6271:6413   */\n    tag_57:\n        /* \"#utility.yul\":6321:6330   */\n      0x00\n        /* \"#utility.yul\":6354:6407   */\n      tag_131\n        /* \"#utility.yul\":6372:6406   */\n      tag_132\n        /* \"#utility.yul\":6381:6405   */\n      tag_133\n        /* \"#utility.yul\":6399:6404   */\n      dup5\n        /* \"#utility.yul\":6381:6405   */\n      tag_55\n      jump\t// in\n    tag_133:\n        /* \"#utility.yul\":6372:6406   */\n      tag_56\n      jump\t// in\n    tag_132:\n        /* \"#utility.yul\":6354:6407   */\n      tag_55\n      jump\t// in\n    tag_131:\n        /* \"#utility.yul\":6341:6407   */\n      swap1\n      pop\n        /* \"#utility.yul\":6271:6413   */\n      swap2\n      swap1\n      pop\n      jump\t// out\n        /* \"#utility.yul\":6419:6494   */\n    tag_58:\n        /* \"#utility.yul\":6462:6465   */\n      0x00\n        /* \"#utility.yul\":6483:6488   */\n      dup2\n        /* \"#utility.yul\":6476:6488   */\n      swap1\n      pop\n        /* \"#utility.yul\":6419:6494   */\n      swap2\n      swap1\n      pop\n      jump\t// out\n        /* \"#utility.yul\":6500:6769   */\n    tag_59:\n        /* \"#utility.yul\":6610:6649   */\n      tag_136\n        /* \"#utility.yul\":6641:6648   */\n      dup4\n        /* \"#utility.yul\":6610:6649   */\n      tag_57\n      jump\t// in\n    tag_136:\n        /* \"#utility.yul\":6671:6762   */\n      tag_137\n        /* \"#utility.yul\":6720:6761   */\n      tag_138\n        /* \"#utility.yul\":6744:6760   */\n      dup3\n        /* \"#utility.yul\":6720:6761   */\n      tag_58\n      jump\t// in\n    tag_138:\n        /* \"#utility.yul\":6712:6718   */\n      dup5\n        /* \"#utility.yul\":6705:6709   */\n      dup5\n        /* \"#utility.yul\":6699:6710   */\n      sload\n        /* \"#utility.yul\":6671:6762   */\n      tag_54\n      jump\t// in\n    tag_137:\n        /* \"#utility.yul\":6665:6669   */\n      dup3\n        /* \"#utility.yul\":6658:6763   */\n      sstore\n        /* \"#utility.yul\":6576:6769   */\n      pop\n        /* \"#utility.yul\":6500:6769   */\n      pop\n      pop\n      pop\n      jump\t// out\n        /* \"#utility.yul\":6775:6848   */\n    tag_60:\n        /* \"#utility.yul\":6820:6823   */\n      0x00\n        /* \"#utility.yul\":6775:6848   */\n      swap1\n      jump\t// out\n        /* \"#utility.yul\":6854:7043   */\n    tag_61:\n        /* \"#utility.yul\":6931:6963   */\n      tag_141\n      tag_60\n      jump\t// in\n    tag_141:\n        /* \"#utility.yul\":6972:7037   */\n      tag_142\n        /* \"#utility.yul\":7030:7036   */\n      dup2\n        /* \"#utility.yul\":7022:7028   */\n      dup5\n        /* \"#utility.yul\":7016:7020   */\n      dup5\n        /* \"#utility.yul\":6972:7037   */\n      tag_59\n      jump\t// in\n    tag_142:\n        /* \"#utility.yul\":6907:7043   */\n      pop\n        /* \"#utility.yul\":6854:7043   */\n      pop\n      pop\n      jump\t// out\n        /* \"#utility.yul\":7049:7235   */\n    tag_62:\n        /* \"#utility.yul\":7109:7229   */\n    tag_144:\n        /* \"#utility.yul\":7126:7129   */\n      dup2\n        /* \"#utility.yul\":7119:7124   */\n      dup2\n        /* \"#utility.yul\":7116:7130   */\n      lt\n        /* \"#utility.yul\":7109:7229   */\n      iszero\n      tag_146\n      jumpi\n        /* \"#utility.yul\":7180:7219   */\n      tag_147\n        /* \"#utility.yul\":7217:7218   */\n      0x00\n        /* \"#utility.yul\":7210:7215   */\n      dup3\n        /* \"#utility.yul\":7180:7219   */\n      tag_61\n      jump\t// in\n    tag_147:\n        /* \"#utility.yul\":7153:7154   */\n      0x01\n        /* \"#utility.yul\":7146:7151   */\n      dup2\n        /* \"#utility.yul\":7142:7155   */\n      add\n        /* \"#utility.yul\":7133:7155   */\n      swap1\n      pop\n        /* \"#utility.yul\":7109:7229   */\n      jump(tag_144)\n    tag_146:\n        /* \"#utility.yul\":7049:7235   */\n      pop\n      pop\n      jump\t// out\n        /* \"#utility.yul\":7241:7784   */\n    tag_63:\n        /* \"#utility.yul\":7342:7344   */\n      0x1f\n        /* \"#utility.yul\":7337:7340   */\n      dup3\n        /* \"#utility.yul\":7334:7345   */\n      gt\n        /* \"#utility.yul\":7331:7777   */\n      iszero\n      tag_149\n      jumpi\n        /* \"#utility.yul\":7376:7414   */\n      tag_150\n        /* \"#utility.yul\":7408:7413   */\n      dup2\n        /* \"#utility.yul\":7376:7414   */\n      tag_51\n      jump\t// in\n    tag_150:\n        /* \"#utility.yul\":7460:7489   */\n      tag_151\n        /* \"#utility.yul\":7478:7488   */\n      dup5\n        /* \"#utility.yul\":7460:7489   */\n      tag_52\n      jump\t// in\n    tag_151:\n        /* \"#utility.yul\":7450:7458   */\n      dup2\n        /* \"#utility.yul\":7446:7490   */\n      add\n        /* \"#utility.yul\":7643:7645   */\n      0x20\n        /* \"#utility.yul\":7631:7641   */\n      dup6\n        /* \"#utility.yul\":7628:7646   */\n      lt\n        /* \"#utility.yul\":7625:7674   */\n      iszero\n      tag_152\n      jumpi\n        /* \"#utility.yul\":7664:7672   */\n      dup2\n        /* \"#utility.yul\":7649:7672   */\n      swap1\n      pop\n        /* \"#utility.yul\":7625:7674   */\n    tag_152:\n        /* \"#utility.yul\":7687:7767   */\n      tag_153\n        /* \"#utility.yul\":7743:7765   */\n      tag_154\n        /* \"#utility.yul\":7761:7764   */\n      dup6\n        /* \"#utility.yul\":7743:7765   */\n      tag_52\n      jump\t// in\n    tag_154:\n        /* \"#utility.yul\":7733:7741   */\n      dup4\n        /* \"#utility.yul\":7729:7766   */\n      add\n        /* \"#utility.yul\":7716:7727   */\n      dup3\n        /* \"#utility.yul\":7687:7767   */\n      tag_62\n      jump\t// in\n    tag_153:\n        /* \"#utility.yul\":7346:7777   */\n      pop\n      pop\n        /* \"#utility.yul\":7331:7777   */\n    tag_149:\n        /* \"#utility.yul\":7241:7784   */\n      pop\n      pop\n      pop\n      jump\t// out\n        /* \"#utility.yul\":7790:7907   */\n    tag_64:\n        /* \"#utility.yul\":7844:7852   */\n      0x00\n        /* \"#utility.yul\":7894:7899   */\n      dup3\n        /* \"#utility.yul\":7888:7892   */\n      dup3\n        /* \"#utility.yul\":7884:7900   */\n      shr\n        /* \"#utility.yul\":7863:7900   */\n      swap1\n      pop\n        /* \"#utility.yul\":7790:7907   */\n      swap3\n      swap2\n      pop\n      pop\n      jump\t// out\n        /* \"#utility.yul\":7913:8082   */\n    tag_65:\n        /* \"#utility.yul\":7957:7963   */\n      0x00\n        /* \"#utility.yul\":7990:8041   */\n      tag_157\n        /* \"#utility.yul\":8038:8039   */\n      0x00\n        /* \"#utility.yul\":8034:8040   */\n      not\n        /* \"#utility.yul\":8026:8031   */\n      dup5\n        /* \"#utility.yul\":8023:8024   */\n      0x08\n        /* \"#utility.yul\":8019:8032   */\n      mul\n        /* \"#utility.yul\":7990:8041   */\n      tag_64\n      jump\t// in\n    tag_157:\n        /* \"#utility.yul\":7986:8042   */\n      not\n        /* \"#utility.yul\":8071:8075   */\n      dup1\n        /* \"#utility.yul\":8065:8069   */\n      dup4\n        /* \"#utility.yul\":8061:8076   */\n      and\n        /* \"#utility.yul\":8051:8076   */\n      swap2\n      pop\n        /* \"#utility.yul\":7964:8082   */\n      pop\n        /* \"#utility.yul\":7913:8082   */\n      swap3\n      swap2\n      pop\n      pop\n      jump\t// out\n        /* \"#utility.yul\":8087:8382   */\n    tag_66:\n        /* \"#utility.yul\":8163:8167   */\n      0x00\n        /* \"#utility.yul\":8309:8338   */\n      tag_159\n        /* \"#utility.yul\":8334:8337   */\n      dup4\n        /* \"#utility.yul\":8328:8332   */\n      dup4\n        /* \"#utility.yul\":8309:8338   */\n      tag_65\n      jump\t// in\n    tag_159:\n        /* \"#utility.yul\":8301:8338   */\n      swap2\n      pop\n        /* \"#utility.yul\":8371:8374   */\n      dup3\n        /* \"#utility.yul\":8368:8369   */\n      0x02\n        /* \"#utility.yul\":8364:8375   */\n      mul\n        /* \"#utility.yul\":8358:8362   */\n      dup3\n        /* \"#utility.yul\":8355:8376   */\n      or\n        /* \"#utility.yul\":8347:8376   */\n      swap1\n      pop\n        /* \"#utility.yul\":8087:8382   */\n      swap3\n      swap2\n      pop\n      pop\n      jump\t// out\n        /* \"#utility.yul\":8387:9782   */\n    tag_18:\n        /* \"#utility.yul\":8504:8541   */\n      tag_161\n        /* \"#utility.yul\":8537:8540   */\n      dup3\n        /* \"#utility.yul\":8504:8541   */\n      tag_48\n      jump\t// in\n    tag_161:\n        /* \"#utility.yul\":8606:8624   */\n      0xffffffffffffffff\n        /* \"#utility.yul\":8598:8604   */\n      dup2\n        /* \"#utility.yul\":8595:8625   */\n      gt\n        /* \"#utility.yul\":8592:8648   */\n      iszero\n      tag_162\n      jumpi\n        /* \"#utility.yul\":8628:8646   */\n      tag_163\n      tag_38\n      jump\t// in\n    tag_163:\n        /* \"#utility.yul\":8592:8648   */\n    tag_162:\n        /* \"#utility.yul\":8672:8710   */\n      tag_164\n        /* \"#utility.yul\":8704:8708   */\n      dup3\n        /* \"#utility.yul\":8698:8709   */\n      sload\n        /* \"#utility.yul\":8672:8710   */\n      tag_50\n      jump\t// in\n    tag_164:\n        /* \"#utility.yul\":8757:8824   */\n      tag_165\n        /* \"#utility.yul\":8817:8823   */\n      dup3\n        /* \"#utility.yul\":8809:8815   */\n      dup3\n        /* \"#utility.yul\":8803:8807   */\n      dup6\n        /* \"#utility.yul\":8757:8824   */\n      tag_63\n      jump\t// in\n    tag_165:\n        /* \"#utility.yul\":8851:8852   */\n      0x00\n        /* \"#utility.yul\":8875:8879   */\n      0x20\n        /* \"#utility.yul\":8862:8879   */\n      swap1\n      pop\n        /* \"#utility.yul\":8907:8909   */\n      0x1f\n        /* \"#utility.yul\":8899:8905   */\n      dup4\n        /* \"#utility.yul\":8896:8910   */\n      gt\n        /* \"#utility.yul\":8924:8925   */\n      0x01\n        /* \"#utility.yul\":8919:9537   */\n      dup2\n      eq\n      tag_167\n      jumpi\n        /* \"#utility.yul\":9581:9582   */\n      0x00\n        /* \"#utility.yul\":9598:9604   */\n      dup5\n        /* \"#utility.yul\":9595:9672   */\n      iszero\n      tag_168\n      jumpi\n        /* \"#utility.yul\":9647:9656   */\n      dup3\n        /* \"#utility.yul\":9642:9645   */\n      dup8\n        /* \"#utility.yul\":9638:9657   */\n      add\n        /* \"#utility.yul\":9632:9658   */\n      mload\n        /* \"#utility.yul\":9623:9658   */\n      swap1\n      pop\n        /* \"#utility.yul\":9595:9672   */\n    tag_168:\n        /* \"#utility.yul\":9698:9765   */\n      tag_169\n        /* \"#utility.yul\":9758:9764   */\n      dup6\n        /* \"#utility.yul\":9751:9756   */\n      dup3\n        /* \"#utility.yul\":9698:9765   */\n      tag_66\n      jump\t// in\n    tag_169:\n        /* \"#utility.yul\":9692:9696   */\n      dup7\n        /* \"#utility.yul\":9685:9766   */\n      sstore\n        /* \"#utility.yul\":9554:9776   */\n      pop\n        /* \"#utility.yul\":8889:9776   */\n      jump(tag_166)\n        /* \"#utility.yul\":8919:9537   */\n    tag_167:\n        /* \"#utility.yul\":8971:8975   */\n      0x1f\n        /* \"#utility.yul\":8967:8976   */\n      not\n        /* \"#utility.yul\":8959:8965   */\n      dup5\n        /* \"#utility.yul\":8955:8977   */\n      and\n        /* \"#utility.yul\":9005:9042   */\n      tag_170\n        /* \"#utility.yul\":9037:9041   */\n      dup7\n        /* \"#utility.yul\":9005:9042   */\n      tag_51\n      jump\t// in\n    tag_170:\n        /* \"#utility.yul\":9064:9065   */\n      0x00\n        /* \"#utility.yul\":9078:9286   */\n    tag_171:\n        /* \"#utility.yul\":9092:9099   */\n      dup3\n        /* \"#utility.yul\":9089:9090   */\n      dup2\n        /* \"#utility.yul\":9086:9100   */\n      lt\n        /* \"#utility.yul\":9078:9286   */\n      iszero\n      tag_173\n      jumpi\n        /* \"#utility.yul\":9171:9180   */\n      dup5\n        /* \"#utility.yul\":9166:9169   */\n      dup10\n        /* \"#utility.yul\":9162:9181   */\n      add\n        /* \"#utility.yul\":9156:9182   */\n      mload\n        /* \"#utility.yul\":9148:9154   */\n      dup3\n        /* \"#utility.yul\":9141:9183   */\n      sstore\n        /* \"#utility.yul\":9222:9223   */\n      0x01\n        /* \"#utility.yul\":9214:9220   */\n      dup3\n        /* \"#utility.yul\":9210:9224   */\n      add\n        /* \"#utility.yul\":9200:9224   */\n      swap2\n      pop\n        /* \"#utility.yul\":9269:9271   */\n      0x20\n        /* \"#utility.yul\":9258:9267   */\n      dup6\n        /* \"#utility.yul\":9254:9272   */\n      add\n        /* \"#utility.yul\":9241:9272   */\n      swap5\n      pop\n        /* \"#utility.yul\":9115:9119   */\n      0x20\n        /* \"#utility.yul\":9112:9113   */\n      dup2\n        /* \"#utility.yul\":9108:9120   */\n      add\n        /* \"#utility.yul\":9103:9120   */\n      swap1\n      pop\n        /* \"#utility.yul\":9078:9286   */\n      jump(tag_171)\n    tag_173:\n        /* \"#utility.yul\":9314:9320   */\n      dup7\n        /* \"#utility.yul\":9305:9312   */\n      dup4\n        /* \"#utility.yul\":9302:9321   */\n      lt\n        /* \"#utility.yul\":9299:9478   */\n      iszero\n      tag_174\n      jumpi\n        /* \"#utility.yul\":9372:9381   */\n      dup5\n        /* \"#utility.yul\":9367:9370   */\n      dup10\n        /* \"#utility.yul\":9363:9382   */\n      add\n        /* \"#utility.yul\":9357:9383   */\n      mload\n        /* \"#utility.yul\":9415:9463   */\n      tag_175\n        /* \"#utility.yul\":9457:9461   */\n      0x1f\n        /* \"#utility.yul\":9449:9455   */\n      dup10\n        /* \"#utility.yul\":9445:9462   */\n      and\n        /* \"#utility.yul\":9434:9443   */\n      dup3\n        /* \"#utility.yul\":9415:9463   */\n      tag_65\n      jump\t// in\n    tag_175:\n        /* \"#utility.yul\":9407:9413   */\n      dup4\n        /* \"#utility.yul\":9400:9464   */\n      sstore\n        /* \"#utility.yul\":9322:9478   */\n      pop\n        /* \"#utility.yul\":9299:9478   */\n    tag_174:\n        /* \"#utility.yul\":9524:9525   */\n      0x01\n        /* \"#utility.yul\":9520:9521   */\n      0x02\n        /* \"#utility.yul\":9512:9518   */\n      dup9\n        /* \"#utility.yul\":9508:9522   */\n      mul\n        /* \"#utility.yul\":9504:9526   */\n      add\n        /* \"#utility.yul\":9498:9502   */\n      dup9\n        /* \"#utility.yul\":9491:9527   */\n      sstore\n        /* \"#utility.yul\":8926:9537   */\n      pop\n      pop\n      pop\n        /* \"#utility.yul\":8889:9776   */\n    tag_166:\n      pop\n        /* \"#utility.yul\":8479:9782   */\n      pop\n      pop\n      pop\n        /* \"#utility.yul\":8387:9782   */\n      pop\n      pop\n      jump\t// out\n        /* \"contracts/ERC20.sol\":184:10346  contract ERC20UpgradeSafe is Initializable, ContextUpgradeSafe, IERC20 {... */\n    tag_21:\n      dataSize(sub_0)\n      dup1\n      dataOffset(sub_0)\n      0x00\n      codecopy\n      0x00\n      return\n    stop\n\n    sub_0: assembly {\n            /* \"contracts/ERC20.sol\":184:10346  contract ERC20UpgradeSafe is Initializable, ContextUpgradeSafe, IERC20 {... */\n          mstore(0x40, 0x80)\n          callvalue\n          dup1\n          iszero\n          tag_1\n          jumpi\n          0x00\n          dup1\n          revert\n        tag_1:\n          pop\n          jumpi(tag_2, lt(calldatasize, 0x04))\n          shr(0xe0, calldataload(0x00))\n          dup1\n          0x39509351\n          gt\n          tag_14\n          jumpi\n          dup1\n          0x39509351\n          eq\n          tag_8\n          jumpi\n          dup1\n          0x70a08231\n          eq\n          tag_9\n          jumpi\n          dup1\n          0x95d89b41\n          eq\n          tag_10\n          jumpi\n          dup1\n          0xa457c2d7\n          eq\n          tag_11\n          jumpi\n          dup1\n          0xa9059cbb\n          eq\n          tag_12\n          jumpi\n          dup1\n          0xdd62ed3e\n          eq\n          tag_13\n          jumpi\n          jump(tag_2)\n        tag_14:\n          dup1\n          0x06fdde03\n          eq\n          tag_3\n          jumpi\n          dup1\n          0x095ea7b3\n          eq\n          tag_4\n          jumpi\n          dup1\n          0x18160ddd\n          eq\n          tag_5\n          jumpi\n          dup1\n          0x23b872dd\n          eq\n          tag_6\n          jumpi\n          dup1\n          0x313ce567\n          eq\n          tag_7\n          jumpi\n        tag_2:\n          0x00\n          dup1\n          revert\n            /* \"contracts/ERC20.sol\":1153:1234  function name() public view returns (string memory) {... */\n        tag_3:\n          tag_15\n          tag_16\n          jump\t// in\n        tag_15:\n          mload(0x40)\n          tag_17\n          swap2\n          swap1\n          tag_18\n          jump\t// in\n        tag_17:\n          mload(0x40)\n          dup1\n          swap2\n          sub\n          swap1\n          return\n            /* \"contracts/ERC20.sol\":3269:3471  function approve(address spender, uint256 amount)... */\n        tag_4:\n          tag_19\n          0x04\n          dup1\n          calldatasize\n          sub\n          dup2\n          add\n          swap1\n          tag_20\n          swap2\n          swap1\n          tag_21\n          jump\t// in\n        tag_20:\n          tag_22\n          jump\t// in\n        tag_19:\n          mload(0x40)\n          tag_23\n          swap2\n          swap1\n          tag_24\n          jump\t// in\n        tag_23:\n          mload(0x40)\n          dup1\n          swap2\n          sub\n          swap1\n          return\n            /* \"contracts/ERC20.sol\":2196:2294  function totalSupply() public view override returns (uint256) {... */\n        tag_5:\n          tag_25\n          tag_26\n          jump\t// in\n        tag_25:\n          mload(0x40)\n          tag_27\n          swap2\n          swap1\n          tag_28\n          jump\t// in\n        tag_27:\n          mload(0x40)\n          dup1\n          swap2\n          sub\n          swap1\n          return\n            /* \"contracts/ERC20.sol\":3931:4370  function transferFrom(... */\n        tag_6:\n          tag_29\n          0x04\n          dup1\n          calldatasize\n          sub\n          dup2\n          add\n          swap1\n          tag_30\n          swap2\n          swap1\n          tag_31\n          jump\t// in\n        tag_30:\n          tag_32\n          jump\t// in\n        tag_29:\n          mload(0x40)\n          tag_33\n          swap2\n          swap1\n          tag_24\n          jump\t// in\n        tag_33:\n          mload(0x40)\n          dup1\n          swap2\n          sub\n          swap1\n          return\n            /* \"contracts/ERC20.sol\":2055:2136  function decimals() public view returns (uint8) {... */\n        tag_7:\n          tag_34\n          tag_35\n          jump\t// in\n        tag_34:\n          mload(0x40)\n          tag_36\n          swap2\n          swap1\n          tag_37\n          jump\t// in\n        tag_36:\n          mload(0x40)\n          dup1\n          swap2\n          sub\n          swap1\n          return\n            /* \"contracts/ERC20.sol\":4765:5054  function increaseAllowance(address spender, uint256 addedValue)... */\n        tag_8:\n          tag_38\n          0x04\n          dup1\n          calldatasize\n          sub\n          dup2\n          add\n          swap1\n          tag_39\n          swap2\n          swap1\n          tag_21\n          jump\t// in\n        tag_39:\n          tag_40\n          jump\t// in\n        tag_38:\n          mload(0x40)\n          tag_41\n          swap2\n          swap1\n          tag_24\n          jump\t// in\n        tag_41:\n          mload(0x40)\n          dup1\n          swap2\n          sub\n          swap1\n          return\n            /* \"contracts/ERC20.sol\":2352:2469  function balanceOf(address account) public view override returns (uint256) {... */\n        tag_9:\n          tag_42\n          0x04\n          dup1\n          calldatasize\n          sub\n          dup2\n          add\n          swap1\n          tag_43\n          swap2\n          swap1\n          tag_44\n          jump\t// in\n        tag_43:\n          tag_45\n          jump\t// in\n        tag_42:\n          mload(0x40)\n          tag_46\n          swap2\n          swap1\n          tag_28\n          jump\t// in\n        tag_46:\n          mload(0x40)\n          dup1\n          swap2\n          sub\n          swap1\n          return\n            /* \"contracts/ERC20.sol\":1347:1432  function symbol() public view returns (string memory) {... */\n        tag_10:\n          tag_47\n          tag_48\n          jump\t// in\n        tag_47:\n          mload(0x40)\n          tag_49\n          swap2\n          swap1\n          tag_18\n          jump\t// in\n        tag_49:\n          mload(0x40)\n          dup1\n          swap2\n          sub\n          swap1\n          return\n            /* \"contracts/ERC20.sol\":5541:5927  function decreaseAllowance(address spender, uint256 subtractedValue)... */\n        tag_11:\n          tag_50\n          0x04\n          dup1\n          calldatasize\n          sub\n          dup2\n          add\n          swap1\n          tag_51\n          swap2\n          swap1\n          tag_21\n          jump\t// in\n        tag_51:\n          tag_52\n          jump\t// in\n        tag_50:\n          mload(0x40)\n          tag_53\n          swap2\n          swap1\n          tag_24\n          jump\t// in\n        tag_53:\n          mload(0x40)\n          dup1\n          swap2\n          sub\n          swap1\n          return\n            /* \"contracts/ERC20.sol\":2672:2880  function transfer(address recipient, uint256 amount)... */\n        tag_12:\n          tag_54\n          0x04\n          dup1\n          calldatasize\n          sub\n          dup2\n          add\n          swap1\n          tag_55\n          swap2\n          swap1\n          tag_21\n          jump\t// in\n        tag_55:\n          tag_56\n          jump\t// in\n        tag_54:\n          mload(0x40)\n          tag_57\n          swap2\n          swap1\n          tag_24\n          jump\t// in\n        tag_57:\n          mload(0x40)\n          dup1\n          swap2\n          sub\n          swap1\n          return\n            /* \"contracts/ERC20.sol\":2938:3131  function allowance(address owner, address spender)... */\n        tag_13:\n          tag_58\n          0x04\n          dup1\n          calldatasize\n          sub\n          dup2\n          add\n          swap1\n          tag_59\n          swap2\n          swap1\n          tag_60\n          jump\t// in\n        tag_59:\n          tag_61\n          jump\t// in\n        tag_58:\n          mload(0x40)\n          tag_62\n          swap2\n          swap1\n          tag_28\n          jump\t// in\n        tag_62:\n          mload(0x40)\n          dup1\n          swap2\n          sub\n          swap1\n          return\n            /* \"contracts/ERC20.sol\":1153:1234  function name() public view returns (string memory) {... */\n        tag_16:\n            /* \"contracts/ERC20.sol\":1190:1203  string memory */\n          0x60\n            /* \"contracts/ERC20.sol\":1222:1227  _name */\n          0x68\n            /* \"contracts/ERC20.sol\":1215:1227  return _name */\n          dup1\n          sload\n          tag_64\n          swap1\n          tag_65\n          jump\t// in\n        tag_64:\n          dup1\n          0x1f\n          add\n          0x20\n          dup1\n          swap2\n          div\n          mul\n          0x20\n          add\n          mload(0x40)\n          swap1\n          dup2\n          add\n          0x40\n          mstore\n          dup1\n          swap3\n          swap2\n          swap1\n          dup2\n          dup2\n          mstore\n          0x20\n          add\n          dup3\n          dup1\n          sload\n          tag_66\n          swap1\n          tag_65\n          jump\t// in\n        tag_66:\n          dup1\n          iszero\n          tag_67\n          jumpi\n          dup1\n          0x1f\n          lt\n          tag_68\n          jumpi\n          0x0100\n          dup1\n          dup4\n          sload\n          div\n          mul\n          dup4\n          mstore\n          swap2\n          0x20\n          add\n          swap2\n          jump(tag_67)\n        tag_68:\n          dup3\n          add\n          swap2\n          swap1\n          0x00\n          mstore\n          keccak256(0x00, 0x20)\n          swap1\n        tag_69:\n          dup2\n          sload\n          dup2\n          mstore\n          swap1\n          0x01\n          add\n          swap1\n          0x20\n          add\n          dup1\n          dup4\n          gt\n          tag_69\n          jumpi\n          dup3\n          swap1\n          sub\n          0x1f\n          and\n          dup3\n          add\n          swap2\n        tag_67:\n          pop\n          pop\n          pop\n          pop\n          pop\n          swap1\n          pop\n            /* \"contracts/ERC20.sol\":1153:1234  function name() public view returns (string memory) {... */\n          swap1\n          jump\t// out\n            /* \"contracts/ERC20.sol\":3269:3471  function approve(address spender, uint256 amount)... */\n        tag_22:\n            /* \"contracts/ERC20.sol\":3384:3388  bool */\n          0x00\n            /* \"contracts/ERC20.sol\":3404:3443  _approve(_msgSender(), spender, amount) */\n          tag_71\n            /* \"contracts/ERC20.sol\":3413:3425  _msgSender() */\n          tag_72\n            /* \"contracts/ERC20.sol\":3413:3423  _msgSender */\n          tag_73\n            /* \"contracts/ERC20.sol\":3413:3425  _msgSender() */\n          jump\t// in\n        tag_72:\n            /* \"contracts/ERC20.sol\":3427:3434  spender */\n          dup5\n            /* \"contracts/ERC20.sol\":3436:3442  amount */\n          dup5\n            /* \"contracts/ERC20.sol\":3404:3412  _approve */\n          tag_74\n            /* \"contracts/ERC20.sol\":3404:3443  _approve(_msgSender(), spender, amount) */\n          jump\t// in\n        tag_71:\n            /* \"contracts/ERC20.sol\":3460:3464  true */\n          0x01\n            /* \"contracts/ERC20.sol\":3453:3464  return true */\n          swap1\n          pop\n            /* \"contracts/ERC20.sol\":3269:3471  function approve(address spender, uint256 amount)... */\n          swap3\n          swap2\n          pop\n          pop\n          jump\t// out\n            /* \"contracts/ERC20.sol\":2196:2294  function totalSupply() public view override returns (uint256) {... */\n        tag_26:\n            /* \"contracts/ERC20.sol\":2249:2256  uint256 */\n          0x00\n            /* \"contracts/ERC20.sol\":2275:2287  _totalSupply */\n          sload(0x67)\n            /* \"contracts/ERC20.sol\":2268:2287  return _totalSupply */\n          swap1\n          pop\n            /* \"contracts/ERC20.sol\":2196:2294  function totalSupply() public view override returns (uint256) {... */\n          swap1\n          jump\t// out\n            /* \"contracts/ERC20.sol\":3931:4370  function transferFrom(... */\n        tag_32:\n            /* \"contracts/ERC20.sol\":4067:4071  bool */\n          0x00\n            /* \"contracts/ERC20.sol\":4083:4119  _transfer(sender, recipient, amount) */\n          tag_77\n            /* \"contracts/ERC20.sol\":4093:4099  sender */\n          dup5\n            /* \"contracts/ERC20.sol\":4101:4110  recipient */\n          dup5\n            /* \"contracts/ERC20.sol\":4112:4118  amount */\n          dup5\n            /* \"contracts/ERC20.sol\":4083:4092  _transfer */\n          tag_78\n            /* \"contracts/ERC20.sol\":4083:4119  _transfer(sender, recipient, amount) */\n          jump\t// in\n        tag_77:\n            /* \"contracts/ERC20.sol\":4129:4342  _approve(... */\n          tag_79\n            /* \"contracts/ERC20.sol\":4151:4157  sender */\n          dup5\n            /* \"contracts/ERC20.sol\":4171:4183  _msgSender() */\n          tag_80\n            /* \"contracts/ERC20.sol\":4171:4181  _msgSender */\n          tag_73\n            /* \"contracts/ERC20.sol\":4171:4183  _msgSender() */\n          jump\t// in\n        tag_80:\n            /* \"contracts/ERC20.sol\":4197:4332  _allowances[sender][_msgSender()].sub(... */\n          tag_81\n            /* \"contracts/ERC20.sol\":4252:4258  amount */\n          dup6\n            /* \"contracts/ERC20.sol\":4197:4332  _allowances[sender][_msgSender()].sub(... */\n          mload(0x40)\n          dup1\n          0x60\n          add\n          0x40\n          mstore\n          dup1\n          0x28\n          dup2\n          mstore\n          0x20\n          add\n          data_974d1b4421da69cc60b481194f0dad36a5bb4e23da810da7a7fb30cdba178330\n          0x28\n          swap2\n          codecopy\n            /* \"contracts/ERC20.sol\":4197:4208  _allowances */\n          0x66\n            /* \"contracts/ERC20.sol\":4197:4216  _allowances[sender] */\n          0x00\n            /* \"contracts/ERC20.sol\":4209:4215  sender */\n          dup12\n            /* \"contracts/ERC20.sol\":4197:4216  _allowances[sender] */\n          0xffffffffffffffffffffffffffffffffffffffff\n          and\n          0xffffffffffffffffffffffffffffffffffffffff\n          and\n          dup2\n          mstore\n          0x20\n          add\n          swap1\n          dup2\n          mstore\n          0x20\n          add\n          0x00\n          keccak256\n            /* \"contracts/ERC20.sol\":4197:4230  _allowances[sender][_msgSender()] */\n          0x00\n            /* \"contracts/ERC20.sol\":4217:4229  _msgSender() */\n          tag_82\n            /* \"contracts/ERC20.sol\":4217:4227  _msgSender */\n          tag_73\n            /* \"contracts/ERC20.sol\":4217:4229  _msgSender() */\n          jump\t// in\n        tag_82:\n            /* \"contracts/ERC20.sol\":4197:4230  _allowances[sender][_msgSender()] */\n          0xffffffffffffffffffffffffffffffffffffffff\n          and\n          0xffffffffffffffffffffffffffffffffffffffff\n          and\n          dup2\n          mstore\n          0x20\n          add\n          swap1\n          dup2\n          mstore\n          0x20\n          add\n          0x00\n          keccak256\n          sload\n            /* \"contracts/ERC20.sol\":4197:4234  _allowances[sender][_msgSender()].sub */\n          tag_83\n          swap1\n            /* \"contracts/ERC20.sol\":4197:4332  _allowances[sender][_msgSender()].sub(... */\n          swap3\n          swap2\n          swap1\n          0xffffffff\n          and\n          jump\t// in\n        tag_81:\n            /* \"contracts/ERC20.sol\":4129:4137  _approve */\n          tag_74\n            /* \"contracts/ERC20.sol\":4129:4342  _approve(... */\n          jump\t// in\n        tag_79:\n            /* \"contracts/ERC20.sol\":4359:4363  true */\n          0x01\n            /* \"contracts/ERC20.sol\":4352:4363  return true */\n          swap1\n          pop\n            /* \"contracts/ERC20.sol\":3931:4370  function transferFrom(... */\n          swap4\n          swap3\n          pop\n          pop\n          pop\n          jump\t// out\n            /* \"contracts/ERC20.sol\":2055:2136  function decimals() public view returns (uint8) {... */\n        tag_35:\n            /* \"contracts/ERC20.sol\":2096:2101  uint8 */\n          0x00\n            /* \"contracts/ERC20.sol\":2120:2129  _decimals */\n          0x6a\n          0x00\n          swap1\n          sload\n          swap1\n          0x0100\n          exp\n          swap1\n          div\n          0xff\n          and\n            /* \"contracts/ERC20.sol\":2113:2129  return _decimals */\n          swap1\n          pop\n            /* \"contracts/ERC20.sol\":2055:2136  function decimals() public view returns (uint8) {... */\n          swap1\n          jump\t// out\n            /* \"contracts/ERC20.sol\":4765:5054  function increaseAllowance(address spender, uint256 addedValue)... */\n        tag_40:\n            /* \"contracts/ERC20.sol\":4877:4881  bool */\n          0x00\n            /* \"contracts/ERC20.sol\":4897:5026  _approve(... */\n          tag_86\n            /* \"contracts/ERC20.sol\":4919:4931  _msgSender() */\n          tag_87\n            /* \"contracts/ERC20.sol\":4919:4929  _msgSender */\n          tag_73\n            /* \"contracts/ERC20.sol\":4919:4931  _msgSender() */\n          jump\t// in\n        tag_87:\n            /* \"contracts/ERC20.sol\":4945:4952  spender */\n          dup5\n            /* \"contracts/ERC20.sol\":4966:5016  _allowances[_msgSender()][spender].add(addedValue) */\n          tag_88\n            /* \"contracts/ERC20.sol\":5005:5015  addedValue */\n          dup6\n            /* \"contracts/ERC20.sol\":4966:4977  _allowances */\n          0x66\n            /* \"contracts/ERC20.sol\":4966:4991  _allowances[_msgSender()] */\n          0x00\n            /* \"contracts/ERC20.sol\":4978:4990  _msgSender() */\n          tag_89\n            /* \"contracts/ERC20.sol\":4978:4988  _msgSender */\n          tag_73\n            /* \"contracts/ERC20.sol\":4978:4990  _msgSender() */\n          jump\t// in\n        tag_89:\n            /* \"contracts/ERC20.sol\":4966:4991  _allowances[_msgSender()] */\n          0xffffffffffffffffffffffffffffffffffffffff\n          and\n          0xffffffffffffffffffffffffffffffffffffffff\n          and\n          dup2\n          mstore\n          0x20\n          add\n          swap1\n          dup2\n          mstore\n          0x20\n          add\n          0x00\n          keccak256\n            /* \"contracts/ERC20.sol\":4966:5000  _allowances[_msgSender()][spender] */\n          0x00\n            /* \"contracts/ERC20.sol\":4992:4999  spender */\n          dup10\n            /* \"contracts/ERC20.sol\":4966:5000  _allowances[_msgSender()][spender] */\n          0xffffffffffffffffffffffffffffffffffffffff\n          and\n          0xffffffffffffffffffffffffffffffffffffffff\n          and\n          dup2\n          mstore\n          0x20\n          add\n          swap1\n          dup2\n          mstore\n          0x20\n          add\n          0x00\n          keccak256\n          sload\n            /* \"contracts/ERC20.sol\":4966:5004  _allowances[_msgSender()][spender].add */\n          tag_90\n          swap1\n            /* \"contracts/ERC20.sol\":4966:5016  _allowances[_msgSender()][spender].add(addedValue) */\n          swap2\n          swap1\n          0xffffffff\n          and\n          jump\t// in\n        tag_88:\n            /* \"contracts/ERC20.sol\":4897:4905  _approve */\n          tag_74\n            /* \"contracts/ERC20.sol\":4897:5026  _approve(... */\n          jump\t// in\n        tag_86:\n            /* \"contracts/ERC20.sol\":5043:5047  true */\n          0x01\n            /* \"contracts/ERC20.sol\":5036:5047  return true */\n          swap1\n          pop\n            /* \"contracts/ERC20.sol\":4765:5054  function increaseAllowance(address spender, uint256 addedValue)... */\n          swap3\n          swap2\n          pop\n          pop\n          jump\t// out\n            /* \"contracts/ERC20.sol\":2352:2469  function balanceOf(address account) public view override returns (uint256) {... */\n        tag_45:\n            /* \"contracts/ERC20.sol\":2418:2425  uint256 */\n          0x00\n            /* \"contracts/ERC20.sol\":2444:2453  _balances */\n          0x65\n            /* \"contracts/ERC20.sol\":2444:2462  _balances[account] */\n          0x00\n            /* \"contracts/ERC20.sol\":2454:2461  account */\n          dup4\n            /* \"contracts/ERC20.sol\":2444:2462  _balances[account] */\n          0xffffffffffffffffffffffffffffffffffffffff\n          and\n          0xffffffffffffffffffffffffffffffffffffffff\n          and\n          dup2\n          mstore\n          0x20\n          add\n          swap1\n          dup2\n          mstore\n          0x20\n          add\n          0x00\n          keccak256\n          sload\n            /* \"contracts/ERC20.sol\":2437:2462  return _balances[account] */\n          swap1\n          pop\n            /* \"contracts/ERC20.sol\":2352:2469  function balanceOf(address account) public view override returns (uint256) {... */\n          swap2\n          swap1\n          pop\n          jump\t// out\n            /* \"contracts/ERC20.sol\":1347:1432  function symbol() public view returns (string memory) {... */\n        tag_48:\n            /* \"contracts/ERC20.sol\":1386:1399  string memory */\n          0x60\n            /* \"contracts/ERC20.sol\":1418:1425  _symbol */\n          0x69\n            /* \"contracts/ERC20.sol\":1411:1425  return _symbol */\n          dup1\n          sload\n          tag_93\n          swap1\n          tag_65\n          jump\t// in\n        tag_93:\n          dup1\n          0x1f\n          add\n          0x20\n          dup1\n          swap2\n          div\n          mul\n          0x20\n          add\n          mload(0x40)\n          swap1\n          dup2\n          add\n          0x40\n          mstore\n          dup1\n          swap3\n          swap2\n          swap1\n          dup2\n          dup2\n          mstore\n          0x20\n          add\n          dup3\n          dup1\n          sload\n          tag_94\n          swap1\n          tag_65\n          jump\t// in\n        tag_94:\n          dup1\n          iszero\n          tag_95\n          jumpi\n          dup1\n          0x1f\n          lt\n          tag_96\n          jumpi\n          0x0100\n          dup1\n          dup4\n          sload\n          div\n          mul\n          dup4\n          mstore\n          swap2\n          0x20\n          add\n          swap2\n          jump(tag_95)\n        tag_96:\n          dup3\n          add\n          swap2\n          swap1\n          0x00\n          mstore\n          keccak256(0x00, 0x20)\n          swap1\n        tag_97:\n          dup2\n          sload\n          dup2\n          mstore\n          swap1\n          0x01\n          add\n          swap1\n          0x20\n          add\n          dup1\n          dup4\n          gt\n          tag_97\n          jumpi\n          dup3\n          swap1\n          sub\n          0x1f\n          and\n          dup3\n          add\n          swap2\n        tag_95:\n          pop\n          pop\n          pop\n          pop\n          pop\n          swap1\n          pop\n            /* \"contracts/ERC20.sol\":1347:1432  function symbol() public view returns (string memory) {... */\n          swap1\n          jump\t// out\n            /* \"contracts/ERC20.sol\":5541:5927  function decreaseAllowance(address spender, uint256 subtractedValue)... */\n        tag_52:\n            /* \"contracts/ERC20.sol\":5658:5662  bool */\n          0x00\n            /* \"contracts/ERC20.sol\":5678:5899  _approve(... */\n          tag_99\n            /* \"contracts/ERC20.sol\":5700:5712  _msgSender() */\n          tag_100\n            /* \"contracts/ERC20.sol\":5700:5710  _msgSender */\n          tag_73\n            /* \"contracts/ERC20.sol\":5700:5712  _msgSender() */\n          jump\t// in\n        tag_100:\n            /* \"contracts/ERC20.sol\":5726:5733  spender */\n          dup5\n            /* \"contracts/ERC20.sol\":5747:5889  _allowances[_msgSender()][spender].sub(... */\n          tag_101\n            /* \"contracts/ERC20.sol\":5803:5818  subtractedValue */\n          dup6\n            /* \"contracts/ERC20.sol\":5747:5889  _allowances[_msgSender()][spender].sub(... */\n          mload(0x40)\n          dup1\n          0x60\n          add\n          0x40\n          mstore\n          dup1\n          0x25\n          dup2\n          mstore\n          0x20\n          add\n          data_f8b476f7d28209d77d4a4ac1fe36b9f8259aa1bb6bddfa6e89de7e51615cf8a8\n          0x25\n          swap2\n          codecopy\n            /* \"contracts/ERC20.sol\":5747:5758  _allowances */\n          0x66\n            /* \"contracts/ERC20.sol\":5747:5772  _allowances[_msgSender()] */\n          0x00\n            /* \"contracts/ERC20.sol\":5759:5771  _msgSender() */\n          tag_102\n            /* \"contracts/ERC20.sol\":5759:5769  _msgSender */\n          tag_73\n            /* \"contracts/ERC20.sol\":5759:5771  _msgSender() */\n          jump\t// in\n        tag_102:\n            /* \"contracts/ERC20.sol\":5747:5772  _allowances[_msgSender()] */\n          0xffffffffffffffffffffffffffffffffffffffff\n          and\n          0xffffffffffffffffffffffffffffffffffffffff\n          and\n          dup2\n          mstore\n          0x20\n          add\n          swap1\n          dup2\n          mstore\n          0x20\n          add\n          0x00\n          keccak256\n            /* \"contracts/ERC20.sol\":5747:5781  _allowances[_msgSender()][spender] */\n          0x00\n            /* \"contracts/ERC20.sol\":5773:5780  spender */\n          dup11\n            /* \"contracts/ERC20.sol\":5747:5781  _allowances[_msgSender()][spender] */\n          0xffffffffffffffffffffffffffffffffffffffff\n          and\n          0xffffffffffffffffffffffffffffffffffffffff\n          and\n          dup2\n          mstore\n          0x20\n          add\n          swap1\n          dup2\n          mstore\n          0x20\n          add\n          0x00\n          keccak256\n          sload\n            /* \"contracts/ERC20.sol\":5747:5785  _allowances[_msgSender()][spender].sub */\n          tag_83\n          swap1\n            /* \"contracts/ERC20.sol\":5747:5889  _allowances[_msgSender()][spender].sub(... */\n          swap3\n          swap2\n          swap1\n          0xffffffff\n          and\n          jump\t// in\n        tag_101:\n            /* \"contracts/ERC20.sol\":5678:5686  _approve */\n          tag_74\n            /* \"contracts/ERC20.sol\":5678:5899  _approve(... */\n          jump\t// in\n        tag_99:\n            /* \"contracts/ERC20.sol\":5916:5920  true */\n          0x01\n            /* \"contracts/ERC20.sol\":5909:5920  return true */\n          swap1\n          pop\n            /* \"contracts/ERC20.sol\":5541:5927  function decreaseAllowance(address spender, uint256 subtractedValue)... */\n          swap3\n          swap2\n          pop\n          pop\n          jump\t// out\n            /* \"contracts/ERC20.sol\":2672:2880  function transfer(address recipient, uint256 amount)... */\n        tag_56:\n            /* \"contracts/ERC20.sol\":2790:2794  bool */\n          0x00\n            /* \"contracts/ERC20.sol\":2810:2852  _transfer(_msgSender(), recipient, amount) */\n          tag_104\n            /* \"contracts/ERC20.sol\":2820:2832  _msgSender() */\n          tag_105\n            /* \"contracts/ERC20.sol\":2820:2830  _msgSender */\n          tag_73\n            /* \"contracts/ERC20.sol\":2820:2832  _msgSender() */\n          jump\t// in\n        tag_105:\n            /* \"contracts/ERC20.sol\":2834:2843  recipient */\n          dup5\n            /* \"contracts/ERC20.sol\":2845:2851  amount */\n          dup5\n            /* \"contracts/ERC20.sol\":2810:2819  _transfer */\n          tag_78\n            /* \"contracts/ERC20.sol\":2810:2852  _transfer(_msgSender(), recipient, amount) */\n          jump\t// in\n        tag_104:\n            /* \"contracts/ERC20.sol\":2869:2873  true */\n          0x01\n            /* \"contracts/ERC20.sol\":2862:2873  return true */\n          swap1\n          pop\n            /* \"contracts/ERC20.sol\":2672:2880  function transfer(address recipient, uint256 amount)... */\n          swap3\n          swap2\n          pop\n          pop\n          jump\t// out\n            /* \"contracts/ERC20.sol\":2938:3131  function allowance(address owner, address spender)... */\n        tag_61:\n            /* \"contracts/ERC20.sol\":3067:3074  uint256 */\n          0x00\n            /* \"contracts/ERC20.sol\":3097:3108  _allowances */\n          0x66\n            /* \"contracts/ERC20.sol\":3097:3115  _allowances[owner] */\n          0x00\n            /* \"contracts/ERC20.sol\":3109:3114  owner */\n          dup5\n            /* \"contracts/ERC20.sol\":3097:3115  _allowances[owner] */\n          0xffffffffffffffffffffffffffffffffffffffff\n          and\n          0xffffffffffffffffffffffffffffffffffffffff\n          and\n          dup2\n          mstore\n          0x20\n          add\n          swap1\n          dup2\n          mstore\n          0x20\n          add\n          0x00\n          keccak256\n            /* \"contracts/ERC20.sol\":3097:3124  _allowances[owner][spender] */\n          0x00\n            /* \"contracts/ERC20.sol\":3116:3123  spender */\n          dup4\n            /* \"contracts/ERC20.sol\":3097:3124  _allowances[owner][spender] */\n          0xffffffffffffffffffffffffffffffffffffffff\n          and\n          0xffffffffffffffffffffffffffffffffffffffff\n          and\n          dup2\n          mstore\n          0x20\n          add\n          swap1\n          dup2\n          mstore\n          0x20\n          add\n          0x00\n          keccak256\n          sload\n            /* \"contracts/ERC20.sol\":3090:3124  return _allowances[owner][spender] */\n          swap1\n          pop\n            /* \"contracts/ERC20.sol\":2938:3131  function allowance(address owner, address spender)... */\n          swap3\n          swap2\n          pop\n          pop\n          jump\t// out\n            /* \"contracts/Context.sol\":454:567  function _msgSender() internal view virtual returns (address payable) {... */\n        tag_73:\n            /* \"contracts/Context.sol\":507:522  address payable */\n          0x00\n            /* \"contracts/Context.sol\":549:559  msg.sender */\n          caller\n            /* \"contracts/Context.sol\":534:560  return payable(msg.sender) */\n          swap1\n          pop\n            /* \"contracts/Context.sol\":454:567  function _msgSender() internal view virtual returns (address payable) {... */\n          swap1\n          jump\t// out\n            /* \"contracts/ERC20.sol\":8823:9193  function _approve(... */\n        tag_74:\n            /* \"contracts/ERC20.sol\":8971:8972  0 */\n          0x00\n            /* \"contracts/ERC20.sol\":8954:8973  owner != address(0) */\n          0xffffffffffffffffffffffffffffffffffffffff\n          and\n            /* \"contracts/ERC20.sol\":8954:8959  owner */\n          dup4\n            /* \"contracts/ERC20.sol\":8954:8973  owner != address(0) */\n          0xffffffffffffffffffffffffffffffffffffffff\n          and\n          sub\n            /* \"contracts/ERC20.sol\":8946:9014  require(owner != address(0), \"ERC20: approve from the zero address\") */\n          tag_109\n          jumpi\n          mload(0x40)\n          0x08c379a000000000000000000000000000000000000000000000000000000000\n          dup2\n          mstore\n          0x04\n          add\n          tag_110\n          swap1\n          tag_111\n          jump\t// in\n        tag_110:\n          mload(0x40)\n          dup1\n          swap2\n          sub\n          swap1\n          revert\n        tag_109:\n            /* \"contracts/ERC20.sol\":9051:9052  0 */\n          0x00\n            /* \"contracts/ERC20.sol\":9032:9053  spender != address(0) */\n          0xffffffffffffffffffffffffffffffffffffffff\n          and\n            /* \"contracts/ERC20.sol\":9032:9039  spender */\n          dup3\n            /* \"contracts/ERC20.sol\":9032:9053  spender != address(0) */\n          0xffffffffffffffffffffffffffffffffffffffff\n          and\n          sub\n            /* \"contracts/ERC20.sol\":9024:9092  require(spender != address(0), \"ERC20: approve to the zero address\") */\n          tag_112\n          jumpi\n          mload(0x40)\n          0x08c379a000000000000000000000000000000000000000000000000000000000\n          dup2\n          mstore\n          0x04\n          add\n          tag_113\n          swap1\n          tag_114\n          jump\t// in\n        tag_113:\n          mload(0x40)\n          dup1\n          swap2\n          sub\n          swap1\n          revert\n        tag_112:\n            /* \"contracts/ERC20.sol\":9133:9139  amount */\n          dup1\n            /* \"contracts/ERC20.sol\":9103:9114  _allowances */\n          0x66\n            /* \"contracts/ERC20.sol\":9103:9121  _allowances[owner] */\n          0x00\n            /* \"contracts/ERC20.sol\":9115:9120  owner */\n          dup6\n            /* \"contracts/ERC20.sol\":9103:9121  _allowances[owner] */\n          0xffffffffffffffffffffffffffffffffffffffff\n          and\n          0xffffffffffffffffffffffffffffffffffffffff\n          and\n          dup2\n          mstore\n          0x20\n          add\n          swap1\n          dup2\n          mstore\n          0x20\n          add\n          0x00\n          keccak256\n            /* \"contracts/ERC20.sol\":9103:9130  _allowances[owner][spender] */\n          0x00\n            /* \"contracts/ERC20.sol\":9122:9129  spender */\n          dup5\n            /* \"contracts/ERC20.sol\":9103:9130  _allowances[owner][spender] */\n          0xffffffffffffffffffffffffffffffffffffffff\n          and\n          0xffffffffffffffffffffffffffffffffffffffff\n          and\n          dup2\n          mstore\n          0x20\n          add\n          swap1\n          dup2\n          mstore\n          0x20\n          add\n          0x00\n          keccak256\n            /* \"contracts/ERC20.sol\":9103:9139  _allowances[owner][spender] = amount */\n          dup2\n          swap1\n          sstore\n          pop\n            /* \"contracts/ERC20.sol\":9170:9177  spender */\n          dup2\n            /* \"contracts/ERC20.sol\":9154:9186  Approval(owner, spender, amount) */\n          0xffffffffffffffffffffffffffffffffffffffff\n          and\n            /* \"contracts/ERC20.sol\":9163:9168  owner */\n          dup4\n            /* \"contracts/ERC20.sol\":9154:9186  Approval(owner, spender, amount) */\n          0xffffffffffffffffffffffffffffffffffffffff\n          and\n          0x8c5be1e5ebec7d5bd14f71427d1e84f3dd0314c0f7b2291e5b200ac8c7c3b925\n            /* \"contracts/ERC20.sol\":9179:9185  amount */\n          dup4\n            /* \"contracts/ERC20.sol\":9154:9186  Approval(owner, spender, amount) */\n          mload(0x40)\n          tag_115\n          swap2\n          swap1\n          tag_28\n          jump\t// in\n        tag_115:\n          mload(0x40)\n          dup1\n          swap2\n          sub\n          swap1\n          log3\n            /* \"contracts/ERC20.sol\":8823:9193  function _approve(... */\n          pop\n          pop\n          pop\n          jump\t// out\n            /* \"contracts/ERC20.sol\":6401:6995  function _transfer(... */\n        tag_78:\n            /* \"contracts/ERC20.sol\":6554:6555  0 */\n          0x00\n            /* \"contracts/ERC20.sol\":6536:6556  sender != address(0) */\n          0xffffffffffffffffffffffffffffffffffffffff\n          and\n            /* \"contracts/ERC20.sol\":6536:6542  sender */\n          dup4\n            /* \"contracts/ERC20.sol\":6536:6556  sender != address(0) */\n          0xffffffffffffffffffffffffffffffffffffffff\n          and\n          sub\n            /* \"contracts/ERC20.sol\":6528:6598  require(sender != address(0), \"ERC20: transfer from the zero address\") */\n          tag_117\n          jumpi\n          mload(0x40)\n          0x08c379a000000000000000000000000000000000000000000000000000000000\n          dup2\n          mstore\n          0x04\n          add\n          tag_118\n          swap1\n          tag_119\n          jump\t// in\n        tag_118:\n          mload(0x40)\n          dup1\n          swap2\n          sub\n          swap1\n          revert\n        tag_117:\n            /* \"contracts/ERC20.sol\":6637:6638  0 */\n          0x00\n            /* \"contracts/ERC20.sol\":6616:6639  recipient != address(0) */\n          0xffffffffffffffffffffffffffffffffffffffff\n          and\n            /* \"contracts/ERC20.sol\":6616:6625  recipient */\n          dup3\n            /* \"contracts/ERC20.sol\":6616:6639  recipient != address(0) */\n          0xffffffffffffffffffffffffffffffffffffffff\n          and\n          sub\n            /* \"contracts/ERC20.sol\":6608:6679  require(recipient != address(0), \"ERC20: transfer to the zero address\") */\n          tag_120\n          jumpi\n          mload(0x40)\n          0x08c379a000000000000000000000000000000000000000000000000000000000\n          dup2\n          mstore\n          0x04\n          add\n          tag_121\n          swap1\n          tag_122\n          jump\t// in\n        tag_121:\n          mload(0x40)\n          dup1\n          swap2\n          sub\n          swap1\n          revert\n        tag_120:\n            /* \"contracts/ERC20.sol\":6690:6737  _beforeTokenTransfer(sender, recipient, amount) */\n          tag_123\n            /* \"contracts/ERC20.sol\":6711:6717  sender */\n          dup4\n            /* \"contracts/ERC20.sol\":6719:6728  recipient */\n          dup4\n            /* \"contracts/ERC20.sol\":6730:6736  amount */\n          dup4\n            /* \"contracts/ERC20.sol\":6690:6710  _beforeTokenTransfer */\n          tag_124\n            /* \"contracts/ERC20.sol\":6690:6737  _beforeTokenTransfer(sender, recipient, amount) */\n          jump\t// in\n        tag_123:\n            /* \"contracts/ERC20.sol\":6768:6873  _balances[sender].sub(... */\n          tag_125\n            /* \"contracts/ERC20.sol\":6803:6809  amount */\n          dup2\n            /* \"contracts/ERC20.sol\":6768:6873  _balances[sender].sub(... */\n          mload(0x40)\n          dup1\n          0x60\n          add\n          0x40\n          mstore\n          dup1\n          0x26\n          dup2\n          mstore\n          0x20\n          add\n          data_4107e8a8b9e94bf8ff83080ddec1c0bffe897ebc2241b89d44f66b3d274088b6\n          0x26\n          swap2\n          codecopy\n            /* \"contracts/ERC20.sol\":6768:6777  _balances */\n          0x65\n            /* \"contracts/ERC20.sol\":6768:6785  _balances[sender] */\n          0x00\n            /* \"contracts/ERC20.sol\":6778:6784  sender */\n          dup8\n            /* \"contracts/ERC20.sol\":6768:6785  _balances[sender] */\n          0xffffffffffffffffffffffffffffffffffffffff\n          and\n          0xffffffffffffffffffffffffffffffffffffffff\n          and\n          dup2\n          mstore\n          0x20\n          add\n          swap1\n          dup2\n          mstore\n          0x20\n          add\n          0x00\n          keccak256\n          sload\n            /* \"contracts/ERC20.sol\":6768:6789  _balances[sender].sub */\n          tag_83\n          swap1\n            /* \"contracts/ERC20.sol\":6768:6873  _balances[sender].sub(... */\n          swap3\n          swap2\n          swap1\n          0xffffffff\n          and\n          jump\t// in\n        tag_125:\n            /* \"contracts/ERC20.sol\":6748:6757  _balances */\n          0x65\n            /* \"contracts/ERC20.sol\":6748:6765  _balances[sender] */\n          0x00\n            /* \"contracts/ERC20.sol\":6758:6764  sender */\n          dup6\n            /* \"contracts/ERC20.sol\":6748:6765  _balances[sender] */\n          0xffffffffffffffffffffffffffffffffffffffff\n          and\n          0xffffffffffffffffffffffffffffffffffffffff\n          and\n          dup2\n          mstore\n          0x20\n          add\n          swap1\n          dup2\n          mstore\n          0x20\n          add\n          0x00\n          keccak256\n            /* \"contracts/ERC20.sol\":6748:6873  _balances[sender] = _balances[sender].sub(... */\n          dup2\n          swap1\n          sstore\n          pop\n            /* \"contracts/ERC20.sol\":6906:6938  _balances[recipient].add(amount) */\n          tag_126\n            /* \"contracts/ERC20.sol\":6931:6937  amount */\n          dup2\n            /* \"contracts/ERC20.sol\":6906:6915  _balances */\n          0x65\n            /* \"contracts/ERC20.sol\":6906:6926  _balances[recipient] */\n          0x00\n            /* \"contracts/ERC20.sol\":6916:6925  recipient */\n          dup6\n            /* \"contracts/ERC20.sol\":6906:6926  _balances[recipient] */\n          0xffffffffffffffffffffffffffffffffffffffff\n          and\n          0xffffffffffffffffffffffffffffffffffffffff\n          and\n          dup2\n          mstore\n          0x20\n          add\n          swap1\n          dup2\n          mstore\n          0x20\n          add\n          0x00\n          keccak256\n          sload\n            /* \"contracts/ERC20.sol\":6906:6930  _balances[recipient].add */\n          tag_90\n          swap1\n            /* \"contracts/ERC20.sol\":6906:6938  _balances[recipient].add(amount) */\n          swap2\n          swap1\n          0xffffffff\n          and\n          jump\t// in\n        tag_126:\n            /* \"contracts/ERC20.sol\":6883:6892  _balances */\n          0x65\n            /* \"contracts/ERC20.sol\":6883:6903  _balances[recipient] */\n          0x00\n            /* \"contracts/ERC20.sol\":6893:6902  recipient */\n          dup5\n            /* \"contracts/ERC20.sol\":6883:6903  _balances[recipient] */\n          0xffffffffffffffffffffffffffffffffffffffff\n          and\n          0xffffffffffffffffffffffffffffffffffffffff\n          and\n          dup2\n          mstore\n          0x20\n          add\n          swap1\n          dup2\n          mstore\n          0x20\n          add\n          0x00\n          keccak256\n            /* \"contracts/ERC20.sol\":6883:6938  _balances[recipient] = _balances[recipient].add(amount) */\n          dup2\n          swap1\n          sstore\n          pop\n            /* \"contracts/ERC20.sol\":6970:6979  recipient */\n          dup2\n            /* \"contracts/ERC20.sol\":6953:6988  Transfer(sender, recipient, amount) */\n          0xffffffffffffffffffffffffffffffffffffffff\n          and\n            /* \"contracts/ERC20.sol\":6962:6968  sender */\n          dup4\n            /* \"contracts/ERC20.sol\":6953:6988  Transfer(sender, recipient, amount) */\n          0xffffffffffffffffffffffffffffffffffffffff\n          and\n          0xddf252ad1be2c89b69c2b068fc378daa952ba7f163c4a11628f55a4df523b3ef\n            /* \"contracts/ERC20.sol\":6981:6987  amount */\n          dup4\n            /* \"contracts/ERC20.sol\":6953:6988  Transfer(sender, recipient, amount) */\n          mload(0x40)\n          tag_127\n          swap2\n          swap1\n          tag_28\n          jump\t// in\n        tag_127:\n          mload(0x40)\n          dup1\n          swap2\n          sub\n          swap1\n          log3\n            /* \"contracts/ERC20.sol\":6401:6995  function _transfer(... */\n          pop\n          pop\n          pop\n          jump\t// out\n            /* \"contracts/SafeMath.sol\":1202:1394  function sub(uint256 a, uint256 b, string memory errorMessage) internal pure returns (uint256) {... */\n        tag_83:\n            /* \"contracts/SafeMath.sol\":1288:1295  uint256 */\n          0x00\n            /* \"contracts/SafeMath.sol\":1321:1322  a */\n          dup4\n            /* \"contracts/SafeMath.sol\":1316:1317  b */\n          dup4\n            /* \"contracts/SafeMath.sol\":1316:1322  b <= a */\n          gt\n          iszero\n            /* \"contracts/SafeMath.sol\":1324:1336  errorMessage */\n          dup3\n            /* \"contracts/SafeMath.sol\":1308:1337  require(b <= a, errorMessage) */\n          swap1\n          tag_129\n          jumpi\n          mload(0x40)\n          0x08c379a000000000000000000000000000000000000000000000000000000000\n          dup2\n          mstore\n          0x04\n          add\n          tag_130\n          swap2\n          swap1\n          tag_18\n          jump\t// in\n        tag_130:\n          mload(0x40)\n          dup1\n          swap2\n          sub\n          swap1\n          revert\n        tag_129:\n          pop\n            /* \"contracts/SafeMath.sol\":1348:1357  uint256 c */\n          0x00\n            /* \"contracts/SafeMath.sol\":1364:1365  b */\n          dup4\n            /* \"contracts/SafeMath.sol\":1360:1361  a */\n          dup6\n            /* \"contracts/SafeMath.sol\":1360:1365  a - b */\n          tag_131\n          swap2\n          swap1\n          tag_132\n          jump\t// in\n        tag_131:\n            /* \"contracts/SafeMath.sol\":1348:1365  uint256 c = a - b */\n          swap1\n          pop\n            /* \"contracts/SafeMath.sol\":1385:1386  c */\n          dup1\n            /* \"contracts/SafeMath.sol\":1378:1386  return c */\n          swap2\n          pop\n          pop\n            /* \"contracts/SafeMath.sol\":1202:1394  function sub(uint256 a, uint256 b, string memory errorMessage) internal pure returns (uint256) {... */\n          swap4\n          swap3\n          pop\n          pop\n          pop\n          jump\t// out\n            /* \"contracts/SafeMath.sol\":315:496  function add(uint256 a, uint256 b) internal pure returns (uint256) {... */\n        tag_90:\n            /* \"contracts/SafeMath.sol\":373:380  uint256 */\n          0x00\n            /* \"contracts/SafeMath.sol\":393:402  uint256 c */\n          dup1\n            /* \"contracts/SafeMath.sol\":409:410  b */\n          dup3\n            /* \"contracts/SafeMath.sol\":405:406  a */\n          dup5\n            /* \"contracts/SafeMath.sol\":405:410  a + b */\n          tag_134\n          swap2\n          swap1\n          tag_135\n          jump\t// in\n        tag_134:\n            /* \"contracts/SafeMath.sol\":393:410  uint256 c = a + b */\n          swap1\n          pop\n            /* \"contracts/SafeMath.sol\":434:435  a */\n          dup4\n            /* \"contracts/SafeMath.sol\":429:430  c */\n          dup2\n            /* \"contracts/SafeMath.sol\":429:435  c >= a */\n          lt\n          iszero\n            /* \"contracts/SafeMath.sol\":421:467  require(c >= a, \"SafeMath: addition overflow\") */\n          tag_136\n          jumpi\n          mload(0x40)\n          0x08c379a000000000000000000000000000000000000000000000000000000000\n          dup2\n          mstore\n          0x04\n          add\n          tag_137\n          swap1\n          tag_138\n          jump\t// in\n        tag_137:\n          mload(0x40)\n          dup1\n          swap2\n          sub\n          swap1\n          revert\n        tag_136:\n            /* \"contracts/SafeMath.sol\":487:488  c */\n          dup1\n            /* \"contracts/SafeMath.sol\":480:488  return c */\n          swap2\n          pop\n          pop\n            /* \"contracts/SafeMath.sol\":315:496  function add(uint256 a, uint256 b) internal pure returns (uint256) {... */\n          swap3\n          swap2\n          pop\n          pop\n          jump\t// out\n            /* \"contracts/ERC20.sol\":10191:10312  function _beforeTokenTransfer(... */\n        tag_124:\n          pop\n          pop\n          pop\n          jump\t// out\n            /* \"#utility.yul\":7:106   */\n        tag_140:\n            /* \"#utility.yul\":59:65   */\n          0x00\n            /* \"#utility.yul\":93:98   */\n          dup2\n            /* \"#utility.yul\":87:99   */\n          mload\n            /* \"#utility.yul\":77:99   */\n          swap1\n          pop\n            /* \"#utility.yul\":7:106   */\n          swap2\n          swap1\n          pop\n          jump\t// out\n            /* \"#utility.yul\":112:281   */\n        tag_141:\n            /* \"#utility.yul\":196:207   */\n          0x00\n            /* \"#utility.yul\":230:236   */\n          dup3\n            /* \"#utility.yul\":225:228   */\n          dup3\n            /* \"#utility.yul\":218:237   */\n          mstore\n            /* \"#utility.yul\":270:274   */\n          0x20\n            /* \"#utility.yul\":265:268   */\n          dup3\n            /* \"#utility.yul\":261:275   */\n          add\n            /* \"#utility.yul\":246:275   */\n          swap1\n          pop\n            /* \"#utility.yul\":112:281   */\n          swap3\n          swap2\n          pop\n          pop\n          jump\t// out\n            /* \"#utility.yul\":287:533   */\n        tag_142:\n            /* \"#utility.yul\":368:369   */\n          0x00\n            /* \"#utility.yul\":378:491   */\n        tag_176:\n            /* \"#utility.yul\":392:398   */\n          dup4\n            /* \"#utility.yul\":389:390   */\n          dup2\n            /* \"#utility.yul\":386:399   */\n          lt\n            /* \"#utility.yul\":378:491   */\n          iszero\n          tag_178\n          jumpi\n            /* \"#utility.yul\":477:478   */\n          dup1\n            /* \"#utility.yul\":472:475   */\n          dup3\n            /* \"#utility.yul\":468:479   */\n          add\n            /* \"#utility.yul\":462:480   */\n          mload\n            /* \"#utility.yul\":458:459   */\n          dup2\n            /* \"#utility.yul\":453:456   */\n          dup5\n            /* \"#utility.yul\":449:460   */\n          add\n            /* \"#utility.yul\":442:481   */\n          mstore\n            /* \"#utility.yul\":414:416   */\n          0x20\n            /* \"#utility.yul\":411:412   */\n          dup2\n            /* \"#utility.yul\":407:417   */\n          add\n            /* \"#utility.yul\":402:417   */\n          swap1\n          pop\n            /* \"#utility.yul\":378:491   */\n          jump(tag_176)\n        tag_178:\n            /* \"#utility.yul\":525:526   */\n          0x00\n            /* \"#utility.yul\":516:522   */\n          dup5\n            /* \"#utility.yul\":511:514   */\n          dup5\n            /* \"#utility.yul\":507:523   */\n          add\n            /* \"#utility.yul\":500:527   */\n          mstore\n            /* \"#utility.yul\":349:533   */\n          pop\n            /* \"#utility.yul\":287:533   */\n          pop\n          pop\n          pop\n          jump\t// out\n            /* \"#utility.yul\":539:641   */\n        tag_143:\n            /* \"#utility.yul\":580:586   */\n          0x00\n            /* \"#utility.yul\":631:633   */\n          0x1f\n            /* \"#utility.yul\":627:634   */\n          not\n            /* \"#utility.yul\":622:624   */\n          0x1f\n            /* \"#utility.yul\":615:620   */\n          dup4\n            /* \"#utility.yul\":611:625   */\n          add\n            /* \"#utility.yul\":607:635   */\n          and\n            /* \"#utility.yul\":597:635   */\n          swap1\n          pop\n            /* \"#utility.yul\":539:641   */\n          swap2\n          swap1\n          pop\n          jump\t// out\n            /* \"#utility.yul\":647:1024   */\n        tag_144:\n            /* \"#utility.yul\":735:738   */\n          0x00\n            /* \"#utility.yul\":763:802   */\n          tag_181\n            /* \"#utility.yul\":796:801   */\n          dup3\n            /* \"#utility.yul\":763:802   */\n          tag_140\n          jump\t// in\n        tag_181:\n            /* \"#utility.yul\":818:889   */\n          tag_182\n            /* \"#utility.yul\":882:888   */\n          dup2\n            /* \"#utility.yul\":877:880   */\n          dup6\n            /* \"#utility.yul\":818:889   */\n          tag_141\n          jump\t// in\n        tag_182:\n            /* \"#utility.yul\":811:889   */\n          swap4\n          pop\n            /* \"#utility.yul\":898:963   */\n          tag_183\n            /* \"#utility.yul\":956:962   */\n          dup2\n            /* \"#utility.yul\":951:954   */\n          dup6\n            /* \"#utility.yul\":944:948   */\n          0x20\n            /* \"#utility.yul\":937:942   */\n          dup7\n            /* \"#utility.yul\":933:949   */\n          add\n            /* \"#utility.yul\":898:963   */\n          tag_142\n          jump\t// in\n        tag_183:\n            /* \"#utility.yul\":988:1017   */\n          tag_184\n            /* \"#utility.yul\":1010:1016   */\n          dup2\n            /* \"#utility.yul\":988:1017   */\n          tag_143\n          jump\t// in\n        tag_184:\n            /* \"#utility.yul\":983:986   */\n          dup5\n            /* \"#utility.yul\":979:1018   */\n          add\n            /* \"#utility.yul\":972:1018   */\n          swap2\n          pop\n            /* \"#utility.yul\":739:1024   */\n          pop\n            /* \"#utility.yul\":647:1024   */\n          swap3\n          swap2\n          pop\n          pop\n          jump\t// out\n            /* \"#utility.yul\":1030:1343   */\n        tag_18:\n            /* \"#utility.yul\":1143:1147   */\n          0x00\n            /* \"#utility.yul\":1181:1183   */\n          0x20\n            /* \"#utility.yul\":1170:1179   */\n          dup3\n            /* \"#utility.yul\":1166:1184   */\n          add\n            /* \"#utility.yul\":1158:1184   */\n          swap1\n          pop\n            /* \"#utility.yul\":1230:1239   */\n          dup2\n            /* \"#utility.yul\":1224:1228   */\n          dup2\n            /* \"#utility.yul\":1220:1240   */\n          sub\n            /* \"#utility.yul\":1216:1217   */\n          0x00\n            /* \"#utility.yul\":1205:1214   */\n          dup4\n            /* \"#utility.yul\":1201:1218   */\n          add\n            /* \"#utility.yul\":1194:1241   */\n          mstore\n            /* \"#utility.yul\":1258:1336   */\n          tag_186\n            /* \"#utility.yul\":1331:1335   */\n          dup2\n            /* \"#utility.yul\":1322:1328   */\n          dup5\n            /* \"#utility.yul\":1258:1336   */\n          tag_144\n          jump\t// in\n        tag_186:\n            /* \"#utility.yul\":1250:1336   */\n          swap1\n          pop\n            /* \"#utility.yul\":1030:1343   */\n          swap3\n          swap2\n          pop\n          pop\n          jump\t// out\n            /* \"#utility.yul\":1430:1547   */\n        tag_146:\n            /* \"#utility.yul\":1539:1540   */\n          0x00\n            /* \"#utility.yul\":1536:1537   */\n          dup1\n            /* \"#utility.yul\":1529:1541   */\n          revert\n            /* \"#utility.yul\":1676:1802   */\n        tag_148:\n            /* \"#utility.yul\":1713:1720   */\n          0x00\n            /* \"#utility.yul\":1753:1795   */\n          0xffffffffffffffffffffffffffffffffffffffff\n            /* \"#utility.yul\":1746:1751   */\n          dup3\n            /* \"#utility.yul\":1742:1796   */\n          and\n            /* \"#utility.yul\":1731:1796   */\n          swap1\n          pop\n            /* \"#utility.yul\":1676:1802   */\n          swap2\n          swap1\n          pop\n          jump\t// out\n            /* \"#utility.yul\":1808:1904   */\n        tag_149:\n            /* \"#utility.yul\":1845:1852   */\n          0x00\n            /* \"#utility.yul\":1874:1898   */\n          tag_192\n            /* \"#utility.yul\":1892:1897   */\n          dup3\n            /* \"#utility.yul\":1874:1898   */\n          tag_148\n          jump\t// in\n        tag_192:\n            /* \"#utility.yul\":1863:1898   */\n          swap1\n          pop\n            /* \"#utility.yul\":1808:1904   */\n          swap2\n          swap1\n          pop\n          jump\t// out\n            /* \"#utility.yul\":1910:2032   */\n        tag_150:\n            /* \"#utility.yul\":1983:2007   */\n          tag_194\n            /* \"#utility.yul\":2001:2006   */\n          dup2\n            /* \"#utility.yul\":1983:2007   */\n          tag_149\n          jump\t// in\n        tag_194:\n            /* \"#utility.yul\":1976:1981   */\n          dup2\n            /* \"#utility.yul\":1973:2008   */\n          eq\n            /* \"#utility.yul\":1963:2026   */\n          tag_195\n          jumpi\n            /* \"#utility.yul\":2022:2023   */\n          0x00\n            /* \"#utility.yul\":2019:2020   */\n          dup1\n            /* \"#utility.yul\":2012:2024   */\n          revert\n            /* \"#utility.yul\":1963:2026   */\n        tag_195:\n            /* \"#utility.yul\":1910:2032   */\n          pop\n          jump\t// out\n            /* \"#utility.yul\":2038:2177   */\n        tag_151:\n            /* \"#utility.yul\":2084:2089   */\n          0x00\n            /* \"#utility.yul\":2122:2128   */\n          dup2\n            /* \"#utility.yul\":2109:2129   */\n          calldataload\n            /* \"#utility.yul\":2100:2129   */\n          swap1\n          pop\n            /* \"#utility.yul\":2138:2171   */\n          tag_197\n            /* \"#utility.yul\":2165:2170   */\n          dup2\n            /* \"#utility.yul\":2138:2171   */\n          tag_150\n          jump\t// in\n        tag_197:\n            /* \"#utility.yul\":2038:2177   */\n          swap3\n          swap2\n          pop\n          pop\n          jump\t// out\n            /* \"#utility.yul\":2183:2260   */\n        tag_152:\n            /* \"#utility.yul\":2220:2227   */\n          0x00\n            /* \"#utility.yul\":2249:2254   */\n          dup2\n            /* \"#utility.yul\":2238:2254   */\n          swap1\n          pop\n            /* \"#utility.yul\":2183:2260   */\n          swap2\n          swap1\n          pop\n          jump\t// out\n            /* \"#utility.yul\":2266:2388   */\n        tag_153:\n            /* \"#utility.yul\":2339:2363   */\n          tag_200\n            /* \"#utility.yul\":2357:2362   */\n          dup2\n            /* \"#utility.yul\":2339:2363   */\n          tag_152\n          jump\t// in\n        tag_200:\n            /* \"#utility.yul\":2332:2337   */\n          dup2\n            /* \"#utility.yul\":2329:2364   */\n          eq\n            /* \"#utility.yul\":2319:2382   */\n          tag_201\n          jumpi\n            /* \"#utility.yul\":2378:2379   */\n          0x00\n            /* \"#utility.yul\":2375:2376   */\n          dup1\n            /* \"#utility.yul\":2368:2380   */\n          revert\n            /* \"#utility.yul\":2319:2382   */\n        tag_201:\n            /* \"#utility.yul\":2266:2388   */\n          pop\n          jump\t// out\n            /* \"#utility.yul\":2394:2533   */\n        tag_154:\n            /* \"#utility.yul\":2440:2445   */\n          0x00\n            /* \"#utility.yul\":2478:2484   */\n          dup2\n            /* \"#utility.yul\":2465:2485   */\n          calldataload\n            /* \"#utility.yul\":2456:2485   */\n          swap1\n          pop\n            /* \"#utility.yul\":2494:2527   */\n          tag_203\n            /* \"#utility.yul\":2521:2526   */\n          dup2\n            /* \"#utility.yul\":2494:2527   */\n          tag_153\n          jump\t// in\n        tag_203:\n            /* \"#utility.yul\":2394:2533   */\n          swap3\n          swap2\n          pop\n          pop\n          jump\t// out\n            /* \"#utility.yul\":2539:3013   */\n        tag_21:\n            /* \"#utility.yul\":2607:2613   */\n          0x00\n            /* \"#utility.yul\":2615:2621   */\n          dup1\n            /* \"#utility.yul\":2664:2666   */\n          0x40\n            /* \"#utility.yul\":2652:2661   */\n          dup4\n            /* \"#utility.yul\":2643:2650   */\n          dup6\n            /* \"#utility.yul\":2639:2662   */\n          sub\n            /* \"#utility.yul\":2635:2667   */\n          slt\n            /* \"#utility.yul\":2632:2751   */\n          iszero\n          tag_205\n          jumpi\n            /* \"#utility.yul\":2670:2749   */\n          tag_206\n          tag_146\n          jump\t// in\n        tag_206:\n            /* \"#utility.yul\":2632:2751   */\n        tag_205:\n            /* \"#utility.yul\":2790:2791   */\n          0x00\n            /* \"#utility.yul\":2815:2868   */\n          tag_207\n            /* \"#utility.yul\":2860:2867   */\n          dup6\n            /* \"#utility.yul\":2851:2857   */\n          dup3\n            /* \"#utility.yul\":2840:2849   */\n          dup7\n            /* \"#utility.yul\":2836:2858   */\n          add\n            /* \"#utility.yul\":2815:2868   */\n          tag_151\n          jump\t// in\n        tag_207:\n            /* \"#utility.yul\":2805:2868   */\n          swap3\n          pop\n            /* \"#utility.yul\":2761:2878   */\n          pop\n            /* \"#utility.yul\":2917:2919   */\n          0x20\n            /* \"#utility.yul\":2943:2996   */\n          tag_208\n            /* \"#utility.yul\":2988:2995   */\n          dup6\n            /* \"#utility.yul\":2979:2985   */\n          dup3\n            /* \"#utility.yul\":2968:2977   */\n          dup7\n            /* \"#utility.yul\":2964:2986   */\n          add\n            /* \"#utility.yul\":2943:2996   */\n          tag_154\n          jump\t// in\n        tag_208:\n            /* \"#utility.yul\":2933:2996   */\n          swap2\n          pop\n            /* \"#utility.yul\":2888:3006   */\n          pop\n            /* \"#utility.yul\":2539:3013   */\n          swap3\n          pop\n          swap3\n          swap1\n          pop\n          jump\t// out\n            /* \"#utility.yul\":3019:3109   */\n        tag_155:\n            /* \"#utility.yul\":3053:3060   */\n          0x00\n            /* \"#utility.yul\":3096:3101   */\n          dup2\n            /* \"#utility.yul\":3089:3102   */\n          iszero\n            /* \"#utility.yul\":3082:3103   */\n          iszero\n            /* \"#utility.yul\":3071:3103   */\n          swap1\n          pop\n            /* \"#utility.yul\":3019:3109   */\n          swap2\n          swap1\n          pop\n          jump\t// out\n            /* \"#utility.yul\":3115:3224   */\n        tag_156:\n            /* \"#utility.yul\":3196:3217   */\n          tag_211\n            /* \"#utility.yul\":3211:3216   */\n          dup2\n            /* \"#utility.yul\":3196:3217   */\n          tag_155\n          jump\t// in\n        tag_211:\n            /* \"#utility.yul\":3191:3194   */\n          dup3\n            /* \"#utility.yul\":3184:3218   */\n          mstore\n            /* \"#utility.yul\":3115:3224   */\n          pop\n          pop\n          jump\t// out\n            /* \"#utility.yul\":3230:3440   */\n        tag_24:\n            /* \"#utility.yul\":3317:3321   */\n          0x00\n            /* \"#utility.yul\":3355:3357   */\n          0x20\n            /* \"#utility.yul\":3344:3353   */\n          dup3\n            /* \"#utility.yul\":3340:3358   */\n          add\n            /* \"#utility.yul\":3332:3358   */\n          swap1\n          pop\n            /* \"#utility.yul\":3368:3433   */\n          tag_213\n            /* \"#utility.yul\":3430:3431   */\n          0x00\n            /* \"#utility.yul\":3419:3428   */\n          dup4\n            /* \"#utility.yul\":3415:3432   */\n          add\n            /* \"#utility.yul\":3406:3412   */\n          dup5\n            /* \"#utility.yul\":3368:3433   */\n          tag_156\n          jump\t// in\n        tag_213:\n            /* \"#utility.yul\":3230:3440   */\n          swap3\n          swap2\n          pop\n          pop\n          jump\t// out\n            /* \"#utility.yul\":3446:3564   */\n        tag_157:\n            /* \"#utility.yul\":3533:3557   */\n          tag_215\n            /* \"#utility.yul\":3551:3556   */\n          dup2\n            /* \"#utility.yul\":3533:3557   */\n          tag_152\n          jump\t// in\n        tag_215:\n            /* \"#utility.yul\":3528:3531   */\n          dup3\n            /* \"#utility.yul\":3521:3558   */\n          mstore\n            /* \"#utility.yul\":3446:3564   */\n          pop\n          pop\n          jump\t// out\n            /* \"#utility.yul\":3570:3792   */\n        tag_28:\n            /* \"#utility.yul\":3663:3667   */\n          0x00\n            /* \"#utility.yul\":3701:3703   */\n          0x20\n            /* \"#utility.yul\":3690:3699   */\n          dup3\n            /* \"#utility.yul\":3686:3704   */\n          add\n            /* \"#utility.yul\":3678:3704   */\n          swap1\n          pop\n            /* \"#utility.yul\":3714:3785   */\n          tag_217\n            /* \"#utility.yul\":3782:3783   */\n          0x00\n            /* \"#utility.yul\":3771:3780   */\n          dup4\n            /* \"#utility.yul\":3767:3784   */\n          add\n            /* \"#utility.yul\":3758:3764   */\n          dup5\n            /* \"#utility.yul\":3714:3785   */\n          tag_157\n          jump\t// in\n        tag_217:\n            /* \"#utility.yul\":3570:3792   */\n          swap3\n          swap2\n          pop\n          pop\n          jump\t// out\n            /* \"#utility.yul\":3798:4417   */\n        tag_31:\n            /* \"#utility.yul\":3875:3881   */\n          0x00\n            /* \"#utility.yul\":3883:3889   */\n          dup1\n            /* \"#utility.yul\":3891:3897   */\n          0x00\n            /* \"#utility.yul\":3940:3942   */\n          0x60\n            /* \"#utility.yul\":3928:3937   */\n          dup5\n            /* \"#utility.yul\":3919:3926   */\n          dup7\n            /* \"#utility.yul\":3915:3938   */\n          sub\n            /* \"#utility.yul\":3911:3943   */\n          slt\n            /* \"#utility.yul\":3908:4027   */\n          iszero\n          tag_219\n          jumpi\n            /* \"#utility.yul\":3946:4025   */\n          tag_220\n          tag_146\n          jump\t// in\n        tag_220:\n            /* \"#utility.yul\":3908:4027   */\n        tag_219:\n            /* \"#utility.yul\":4066:4067   */\n          0x00\n            /* \"#utility.yul\":4091:4144   */\n          tag_221\n            /* \"#utility.yul\":4136:4143   */\n          dup7\n            /* \"#utility.yul\":4127:4133   */\n          dup3\n            /* \"#utility.yul\":4116:4125   */\n          dup8\n            /* \"#utility.yul\":4112:4134   */\n          add\n            /* \"#utility.yul\":4091:4144   */\n          tag_151\n          jump\t// in\n        tag_221:\n            /* \"#utility.yul\":4081:4144   */\n          swap4\n          pop\n            /* \"#utility.yul\":4037:4154   */\n          pop\n            /* \"#utility.yul\":4193:4195   */\n          0x20\n            /* \"#utility.yul\":4219:4272   */\n          tag_222\n            /* \"#utility.yul\":4264:4271   */\n          dup7\n            /* \"#utility.yul\":4255:4261   */\n          dup3\n            /* \"#utility.yul\":4244:4253   */\n          dup8\n            /* \"#utility.yul\":4240:4262   */\n          add\n            /* \"#utility.yul\":4219:4272   */\n          tag_151\n          jump\t// in\n        tag_222:\n            /* \"#utility.yul\":4209:4272   */\n          swap3\n          pop\n            /* \"#utility.yul\":4164:4282   */\n          pop\n            /* \"#utility.yul\":4321:4323   */\n          0x40\n            /* \"#utility.yul\":4347:4400   */\n          tag_223\n            /* \"#utility.yul\":4392:4399   */\n          dup7\n            /* \"#utility.yul\":4383:4389   */\n          dup3\n            /* \"#utility.yul\":4372:4381   */\n          dup8\n            /* \"#utility.yul\":4368:4390   */\n          add\n            /* \"#utility.yul\":4347:4400   */\n          tag_154\n          jump\t// in\n        tag_223:\n            /* \"#utility.yul\":4337:4400   */\n          swap2\n          pop\n            /* \"#utility.yul\":4292:4410   */\n          pop\n            /* \"#utility.yul\":3798:4417   */\n          swap3\n          pop\n          swap3\n          pop\n          swap3\n          jump\t// out\n            /* \"#utility.yul\":4423:4509   */\n        tag_158:\n            /* \"#utility.yul\":4458:4465   */\n          0x00\n            /* \"#utility.yul\":4498:4502   */\n          0xff\n            /* \"#utility.yul\":4491:4496   */\n          dup3\n            /* \"#utility.yul\":4487:4503   */\n          and\n            /* \"#utility.yul\":4476:4503   */\n          swap1\n          pop\n            /* \"#utility.yul\":4423:4509   */\n          swap2\n          swap1\n          pop\n          jump\t// out\n            /* \"#utility.yul\":4515:4627   */\n        tag_159:\n            /* \"#utility.yul\":4598:4620   */\n          tag_226\n            /* \"#utility.yul\":4614:4619   */\n          dup2\n            /* \"#utility.yul\":4598:4620   */\n          tag_158\n          jump\t// in\n        tag_226:\n            /* \"#utility.yul\":4593:4596   */\n          dup3\n            /* \"#utility.yul\":4586:4621   */\n          mstore\n            /* \"#utility.yul\":4515:4627   */\n          pop\n          pop\n          jump\t// out\n            /* \"#utility.yul\":4633:4847   */\n        tag_37:\n            /* \"#utility.yul\":4722:4726   */\n          0x00\n            /* \"#utility.yul\":4760:4762   */\n          0x20\n            /* \"#utility.yul\":4749:4758   */\n          dup3\n            /* \"#utility.yul\":4745:4763   */\n          add\n            /* \"#utility.yul\":4737:4763   */\n          swap1\n          pop\n            /* \"#utility.yul\":4773:4840   */\n          tag_228\n            /* \"#utility.yul\":4837:4838   */\n          0x00\n            /* \"#utility.yul\":4826:4835   */\n          dup4\n            /* \"#utility.yul\":4822:4839   */\n          add\n            /* \"#utility.yul\":4813:4819   */\n          dup5\n            /* \"#utility.yul\":4773:4840   */\n          tag_159\n          jump\t// in\n        tag_228:\n            /* \"#utility.yul\":4633:4847   */\n          swap3\n          swap2\n          pop\n          pop\n          jump\t// out\n            /* \"#utility.yul\":4853:5182   */\n        tag_44:\n            /* \"#utility.yul\":4912:4918   */\n          0x00\n            /* \"#utility.yul\":4961:4963   */\n          0x20\n            /* \"#utility.yul\":4949:4958   */\n          dup3\n            /* \"#utility.yul\":4940:4947   */\n          dup5\n            /* \"#utility.yul\":4936:4959   */\n          sub\n            /* \"#utility.yul\":4932:4964   */\n          slt\n            /* \"#utility.yul\":4929:5048   */\n          iszero\n          tag_230\n          jumpi\n            /* \"#utility.yul\":4967:5046   */\n          tag_231\n          tag_146\n          jump\t// in\n        tag_231:\n            /* \"#utility.yul\":4929:5048   */\n        tag_230:\n            /* \"#utility.yul\":5087:5088   */\n          0x00\n            /* \"#utility.yul\":5112:5165   */\n          tag_232\n            /* \"#utility.yul\":5157:5164   */\n          dup5\n            /* \"#utility.yul\":5148:5154   */\n          dup3\n            /* \"#utility.yul\":5137:5146   */\n          dup6\n            /* \"#utility.yul\":5133:5155   */\n          add\n            /* \"#utility.yul\":5112:5165   */\n          tag_151\n          jump\t// in\n        tag_232:\n            /* \"#utility.yul\":5102:5165   */\n          swap2\n          pop\n            /* \"#utility.yul\":5058:5175   */\n          pop\n            /* \"#utility.yul\":4853:5182   */\n          swap3\n          swap2\n          pop\n          pop\n          jump\t// out\n            /* \"#utility.yul\":5188:5662   */\n        tag_60:\n            /* \"#utility.yul\":5256:5262   */\n          0x00\n            /* \"#utility.yul\":5264:5270   */\n          dup1\n            /* \"#utility.yul\":5313:5315   */\n          0x40\n            /* \"#utility.yul\":5301:5310   */\n          dup4\n            /* \"#utility.yul\":5292:5299   */\n          dup6\n            /* \"#utility.yul\":5288:5311   */\n          sub\n            /* \"#utility.yul\":5284:5316   */\n          slt\n            /* \"#utility.yul\":5281:5400   */\n          iszero\n          tag_234\n          jumpi\n            /* \"#utility.yul\":5319:5398   */\n          tag_235\n          tag_146\n          jump\t// in\n        tag_235:\n            /* \"#utility.yul\":5281:5400   */\n        tag_234:\n            /* \"#utility.yul\":5439:5440   */\n          0x00\n            /* \"#utility.yul\":5464:5517   */\n          tag_236\n            /* \"#utility.yul\":5509:5516   */\n          dup6\n            /* \"#utility.yul\":5500:5506   */\n          dup3\n            /* \"#utility.yul\":5489:5498   */\n          dup7\n            /* \"#utility.yul\":5485:5507   */\n          add\n            /* \"#utility.yul\":5464:5517   */\n          tag_151\n          jump\t// in\n        tag_236:\n            /* \"#utility.yul\":5454:5517   */\n          swap3\n          pop\n            /* \"#utility.yul\":5410:5527   */\n          pop\n            /* \"#utility.yul\":5566:5568   */\n          0x20\n            /* \"#utility.yul\":5592:5645   */\n          tag_237\n            /* \"#utility.yul\":5637:5644   */\n          dup6\n            /* \"#utility.yul\":5628:5634   */\n          dup3\n            /* \"#utility.yul\":5617:5626   */\n          dup7\n            /* \"#utility.yul\":5613:5635   */\n          add\n            /* \"#utility.yul\":5592:5645   */\n          tag_151\n          jump\t// in\n        tag_237:\n            /* \"#utility.yul\":5582:5645   */\n          swap2\n          pop\n            /* \"#utility.yul\":5537:5655   */\n          pop\n            /* \"#utility.yul\":5188:5662   */\n          swap3\n          pop\n          swap3\n          swap1\n          pop\n          jump\t// out\n            /* \"#utility.yul\":5668:5848   */\n        tag_160:\n            /* \"#utility.yul\":5716:5793   */\n          0x4e487b7100000000000000000000000000000000000000000000000000000000\n            /* \"#utility.yul\":5713:5714   */\n          0x00\n            /* \"#utility.yul\":5706:5794   */\n          mstore\n            /* \"#utility.yul\":5813:5817   */\n          0x22\n            /* \"#utility.yul\":5810:5811   */\n          0x04\n            /* \"#utility.yul\":5803:5818   */\n          mstore\n            /* \"#utility.yul\":5837:5841   */\n          0x24\n            /* \"#utility.yul\":5834:5835   */\n          0x00\n            /* \"#utility.yul\":5827:5842   */\n          revert\n            /* \"#utility.yul\":5854:6174   */\n        tag_65:\n            /* \"#utility.yul\":5898:5904   */\n          0x00\n            /* \"#utility.yul\":5935:5936   */\n          0x02\n            /* \"#utility.yul\":5929:5933   */\n          dup3\n            /* \"#utility.yul\":5925:5937   */\n          div\n            /* \"#utility.yul\":5915:5937   */\n          swap1\n          pop\n            /* \"#utility.yul\":5982:5983   */\n          0x01\n            /* \"#utility.yul\":5976:5980   */\n          dup3\n            /* \"#utility.yul\":5972:5984   */\n          and\n            /* \"#utility.yul\":6003:6021   */\n          dup1\n            /* \"#utility.yul\":5993:6074   */\n          tag_240\n          jumpi\n            /* \"#utility.yul\":6059:6063   */\n          0x7f\n            /* \"#utility.yul\":6051:6057   */\n          dup3\n            /* \"#utility.yul\":6047:6064   */\n          and\n            /* \"#utility.yul\":6037:6064   */\n          swap2\n          pop\n            /* \"#utility.yul\":5993:6074   */\n        tag_240:\n            /* \"#utility.yul\":6121:6123   */\n          0x20\n            /* \"#utility.yul\":6113:6119   */\n          dup3\n            /* \"#utility.yul\":6110:6124   */\n          lt\n            /* \"#utility.yul\":6090:6108   */\n          dup2\n            /* \"#utility.yul\":6087:6125   */\n          sub\n            /* \"#utility.yul\":6084:6168   */\n          tag_241\n          jumpi\n            /* \"#utility.yul\":6140:6158   */\n          tag_242\n          tag_160\n          jump\t// in\n        tag_242:\n            /* \"#utility.yul\":6084:6168   */\n        tag_241:\n            /* \"#utility.yul\":5905:6174   */\n          pop\n            /* \"#utility.yul\":5854:6174   */\n          swap2\n          swap1\n          pop\n          jump\t// out\n            /* \"#utility.yul\":6180:6403   */\n        tag_161:\n            /* \"#utility.yul\":6320:6354   */\n          0x45524332303a20617070726f76652066726f6d20746865207a65726f20616464\n            /* \"#utility.yul\":6316:6317   */\n          0x00\n            /* \"#utility.yul\":6308:6314   */\n          dup3\n            /* \"#utility.yul\":6304:6318   */\n          add\n            /* \"#utility.yul\":6297:6355   */\n          mstore\n            /* \"#utility.yul\":6389:6395   */\n          0x7265737300000000000000000000000000000000000000000000000000000000\n            /* \"#utility.yul\":6384:6386   */\n          0x20\n            /* \"#utility.yul\":6376:6382   */\n          dup3\n            /* \"#utility.yul\":6372:6387   */\n          add\n            /* \"#utility.yul\":6365:6396   */\n          mstore\n            /* \"#utility.yul\":6180:6403   */\n          pop\n          jump\t// out\n            /* \"#utility.yul\":6409:6775   */\n        tag_162:\n            /* \"#utility.yul\":6551:6554   */\n          0x00\n            /* \"#utility.yul\":6572:6639   */\n          tag_245\n            /* \"#utility.yul\":6636:6638   */\n          0x24\n            /* \"#utility.yul\":6631:6634   */\n          dup4\n            /* \"#utility.yul\":6572:6639   */\n          tag_141\n          jump\t// in\n        tag_245:\n            /* \"#utility.yul\":6565:6639   */\n          swap2\n          pop\n            /* \"#utility.yul\":6648:6741   */\n          tag_246\n            /* \"#utility.yul\":6737:6740   */\n          dup3\n            /* \"#utility.yul\":6648:6741   */\n          tag_161\n          jump\t// in\n        tag_246:\n            /* \"#utility.yul\":6766:6768   */\n          0x40\n            /* \"#utility.yul\":6761:6764   */\n          dup3\n            /* \"#utility.yul\":6757:6769   */\n          add\n            /* \"#utility.yul\":6750:6769   */\n          swap1\n          pop\n            /* \"#utility.yul\":6409:6775   */\n          swap2\n          swap1\n          pop\n          jump\t// out\n            /* \"#utility.yul\":6781:7200   */\n        tag_111:\n            /* \"#utility.yul\":6947:6951   */\n          0x00\n            /* \"#utility.yul\":6985:6987   */\n          0x20\n            /* \"#utility.yul\":6974:6983   */\n          dup3\n            /* \"#utility.yul\":6970:6988   */\n          add\n            /* \"#utility.yul\":6962:6988   */\n          swap1\n          pop\n            /* \"#utility.yul\":7034:7043   */\n          dup2\n            /* \"#utility.yul\":7028:7032   */\n          dup2\n            /* \"#utility.yul\":7024:7044   */\n          sub\n            /* \"#utility.yul\":7020:7021   */\n          0x00\n            /* \"#utility.yul\":7009:7018   */\n          dup4\n            /* \"#utility.yul\":7005:7022   */\n          add\n            /* \"#utility.yul\":6998:7045   */\n          mstore\n            /* \"#utility.yul\":7062:7193   */\n          tag_248\n            /* \"#utility.yul\":7188:7192   */\n          dup2\n            /* \"#utility.yul\":7062:7193   */\n          tag_162\n          jump\t// in\n        tag_248:\n            /* \"#utility.yul\":7054:7193   */\n          swap1\n          pop\n            /* \"#utility.yul\":6781:7200   */\n          swap2\n          swap1\n          pop\n          jump\t// out\n            /* \"#utility.yul\":7206:7427   */\n        tag_163:\n            /* \"#utility.yul\":7346:7380   */\n          0x45524332303a20617070726f766520746f20746865207a65726f206164647265\n            /* \"#utility.yul\":7342:7343   */\n          0x00\n            /* \"#utility.yul\":7334:7340   */\n          dup3\n            /* \"#utility.yul\":7330:7344   */\n          add\n            /* \"#utility.yul\":7323:7381   */\n          mstore\n            /* \"#utility.yul\":7415:7419   */\n          0x7373000000000000000000000000000000000000000000000000000000000000\n            /* \"#utility.yul\":7410:7412   */\n          0x20\n            /* \"#utility.yul\":7402:7408   */\n          dup3\n            /* \"#utility.yul\":7398:7413   */\n          add\n            /* \"#utility.yul\":7391:7420   */\n          mstore\n            /* \"#utility.yul\":7206:7427   */\n          pop\n          jump\t// out\n            /* \"#utility.yul\":7433:7799   */\n        tag_164:\n            /* \"#utility.yul\":7575:7578   */\n          0x00\n            /* \"#utility.yul\":7596:7663   */\n          tag_251\n            /* \"#utility.yul\":7660:7662   */\n          0x22\n            /* \"#utility.yul\":7655:7658   */\n          dup4\n            /* \"#utility.yul\":7596:7663   */\n          tag_141\n          jump\t// in\n        tag_251:\n            /* \"#utility.yul\":7589:7663   */\n          swap2\n          pop\n            /* \"#utility.yul\":7672:7765   */\n          tag_252\n            /* \"#utility.yul\":7761:7764   */\n          dup3\n            /* \"#utility.yul\":7672:7765   */\n          tag_163\n          jump\t// in\n        tag_252:\n            /* \"#utility.yul\":7790:7792   */\n          0x40\n            /* \"#utility.yul\":7785:7788   */\n          dup3\n            /* \"#utility.yul\":7781:7793   */\n          add\n            /* \"#utility.yul\":7774:7793   */\n          swap1\n          pop\n            /* \"#utility.yul\":7433:7799   */\n          swap2\n          swap1\n          pop\n          jump\t// out\n            /* \"#utility.yul\":7805:8224   */\n        tag_114:\n            /* \"#utility.yul\":7971:7975   */\n          0x00\n            /* \"#utility.yul\":8009:8011   */\n          0x20\n            /* \"#utility.yul\":7998:8007   */\n          dup3\n            /* \"#utility.yul\":7994:8012   */\n          add\n            /* \"#utility.yul\":7986:8012   */\n          swap1\n          pop\n            /* \"#utility.yul\":8058:8067   */\n          dup2\n            /* \"#utility.yul\":8052:8056   */\n          dup2\n            /* \"#utility.yul\":8048:8068   */\n          sub\n            /* \"#utility.yul\":8044:8045   */\n          0x00\n            /* \"#utility.yul\":8033:8042   */\n          dup4\n            /* \"#utility.yul\":8029:8046   */\n          add\n            /* \"#utility.yul\":8022:8069   */\n          mstore\n            /* \"#utility.yul\":8086:8217   */\n          tag_254\n            /* \"#utility.yul\":8212:8216   */\n          dup2\n            /* \"#utility.yul\":8086:8217   */\n          tag_164\n          jump\t// in\n        tag_254:\n            /* \"#utility.yul\":8078:8217   */\n          swap1\n          pop\n            /* \"#utility.yul\":7805:8224   */\n          swap2\n          swap1\n          pop\n          jump\t// out\n            /* \"#utility.yul\":8230:8454   */\n        tag_165:\n            /* \"#utility.yul\":8370:8404   */\n          0x45524332303a207472616e736665722066726f6d20746865207a65726f206164\n            /* \"#utility.yul\":8366:8367   */\n          0x00\n            /* \"#utility.yul\":8358:8364   */\n          dup3\n            /* \"#utility.yul\":8354:8368   */\n          add\n            /* \"#utility.yul\":8347:8405   */\n          mstore\n            /* \"#utility.yul\":8439:8446   */\n          0x6472657373000000000000000000000000000000000000000000000000000000\n            /* \"#utility.yul\":8434:8436   */\n          0x20\n            /* \"#utility.yul\":8426:8432   */\n          dup3\n            /* \"#utility.yul\":8422:8437   */\n          add\n            /* \"#utility.yul\":8415:8447   */\n          mstore\n            /* \"#utility.yul\":8230:8454   */\n          pop\n          jump\t// out\n            /* \"#utility.yul\":8460:8826   */\n        tag_166:\n            /* \"#utility.yul\":8602:8605   */\n          0x00\n            /* \"#utility.yul\":8623:8690   */\n          tag_257\n            /* \"#utility.yul\":8687:8689   */\n          0x25\n            /* \"#utility.yul\":8682:8685   */\n          dup4\n            /* \"#utility.yul\":8623:8690   */\n          tag_141\n          jump\t// in\n        tag_257:\n            /* \"#utility.yul\":8616:8690   */\n          swap2\n          pop\n            /* \"#utility.yul\":8699:8792   */\n          tag_258\n            /* \"#utility.yul\":8788:8791   */\n          dup3\n            /* \"#utility.yul\":8699:8792   */\n          tag_165\n          jump\t// in\n        tag_258:\n            /* \"#utility.yul\":8817:8819   */\n          0x40\n            /* \"#utility.yul\":8812:8815   */\n          dup3\n            /* \"#utility.yul\":8808:8820   */\n          add\n            /* \"#utility.yul\":8801:8820   */\n          swap1\n          pop\n            /* \"#utility.yul\":8460:8826   */\n          swap2\n          swap1\n          pop\n          jump\t// out\n            /* \"#utility.yul\":8832:9251   */\n        tag_119:\n            /* \"#utility.yul\":8998:9002   */\n          0x00\n            /* \"#utility.yul\":9036:9038   */\n          0x20\n            /* \"#utility.yul\":9025:9034   */\n          dup3\n            /* \"#utility.yul\":9021:9039   */\n          add\n            /* \"#utility.yul\":9013:9039   */\n          swap1\n          pop\n            /* \"#utility.yul\":9085:9094   */\n          dup2\n            /* \"#utility.yul\":9079:9083   */\n          dup2\n            /* \"#utility.yul\":9075:9095   */\n          sub\n            /* \"#utility.yul\":9071:9072   */\n          0x00\n            /* \"#utility.yul\":9060:9069   */\n          dup4\n            /* \"#utility.yul\":9056:9073   */\n          add\n            /* \"#utility.yul\":9049:9096   */\n          mstore\n            /* \"#utility.yul\":9113:9244   */\n          tag_260\n            /* \"#utility.yul\":9239:9243   */\n          dup2\n            /* \"#utility.yul\":9113:9244   */\n          tag_166\n          jump\t// in\n        tag_260:\n            /* \"#utility.yul\":9105:9244   */\n          swap1\n          pop\n            /* \"#utility.yul\":8832:9251   */\n          swap2\n          swap1\n          pop\n          jump\t// out\n            /* \"#utility.yul\":9257:9479   */\n        tag_167:\n            /* \"#utility.yul\":9397:9431   */\n          0x45524332303a207472616e7366657220746f20746865207a65726f2061646472\n            /* \"#utility.yul\":9393:9394   */\n          0x00\n            /* \"#utility.yul\":9385:9391   */\n          dup3\n            /* \"#utility.yul\":9381:9395   */\n          add\n            /* \"#utility.yul\":9374:9432   */\n          mstore\n            /* \"#utility.yul\":9466:9471   */\n          0x6573730000000000000000000000000000000000000000000000000000000000\n            /* \"#utility.yul\":9461:9463   */\n          0x20\n            /* \"#utility.yul\":9453:9459   */\n          dup3\n            /* \"#utility.yul\":9449:9464   */\n          add\n            /* \"#utility.yul\":9442:9472   */\n          mstore\n            /* \"#utility.yul\":9257:9479   */\n          pop\n          jump\t// out\n            /* \"#utility.yul\":9485:9851   */\n        tag_168:\n            /* \"#utility.yul\":9627:9630   */\n          0x00\n            /* \"#utility.yul\":9648:9715   */\n          tag_263\n            /* \"#utility.yul\":9712:9714   */\n          0x23\n            /* \"#utility.yul\":9707:9710   */\n          dup4\n            /* \"#utility.yul\":9648:9715   */\n          tag_141\n          jump\t// in\n        tag_263:\n            /* \"#utility.yul\":9641:9715   */\n          swap2\n          pop\n            /* \"#utility.yul\":9724:9817   */\n          tag_264\n            /* \"#utility.yul\":9813:9816   */\n          dup3\n            /* \"#utility.yul\":9724:9817   */\n          tag_167\n          jump\t// in\n        tag_264:\n            /* \"#utility.yul\":9842:9844   */\n          0x40\n            /* \"#utility.yul\":9837:9840   */\n          dup3\n            /* \"#utility.yul\":9833:9845   */\n          add\n            /* \"#utility.yul\":9826:9845   */\n          swap1\n          pop\n            /* \"#utility.yul\":9485:9851   */\n          swap2\n          swap1\n          pop\n          jump\t// out\n            /* \"#utility.yul\":9857:10276   */\n        tag_122:\n            /* \"#utility.yul\":10023:10027   */\n          0x00\n            /* \"#utility.yul\":10061:10063   */\n          0x20\n            /* \"#utility.yul\":10050:10059   */\n          dup3\n            /* \"#utility.yul\":10046:10064   */\n          add\n            /* \"#utility.yul\":10038:10064   */\n          swap1\n          pop\n            /* \"#utility.yul\":10110:10119   */\n          dup2\n            /* \"#utility.yul\":10104:10108   */\n          dup2\n            /* \"#utility.yul\":10100:10120   */\n          sub\n            /* \"#utility.yul\":10096:10097   */\n          0x00\n            /* \"#utility.yul\":10085:10094   */\n          dup4\n            /* \"#utility.yul\":10081:10098   */\n          add\n            /* \"#utility.yul\":10074:10121   */\n          mstore\n            /* \"#utility.yul\":10138:10269   */\n          tag_266\n            /* \"#utility.yul\":10264:10268   */\n          dup2\n            /* \"#utility.yul\":10138:10269   */\n          tag_168\n          jump\t// in\n        tag_266:\n            /* \"#utility.yul\":10130:10269   */\n          swap1\n          pop\n            /* \"#utility.yul\":9857:10276   */\n          swap2\n          swap1\n          pop\n          jump\t// out\n            /* \"#utility.yul\":10282:10462   */\n        tag_169:\n            /* \"#utility.yul\":10330:10407   */\n          0x4e487b7100000000000000000000000000000000000000000000000000000000\n            /* \"#utility.yul\":10327:10328   */\n          0x00\n            /* \"#utility.yul\":10320:10408   */\n          mstore\n            /* \"#utility.yul\":10427:10431   */\n          0x11\n            /* \"#utility.yul\":10424:10425   */\n          0x04\n            /* \"#utility.yul\":10417:10432   */\n          mstore\n            /* \"#utility.yul\":10451:10455   */\n          0x24\n            /* \"#utility.yul\":10448:10449   */\n          0x00\n            /* \"#utility.yul\":10441:10456   */\n          revert\n            /* \"#utility.yul\":10468:10662   */\n        tag_132:\n            /* \"#utility.yul\":10508:10512   */\n          0x00\n            /* \"#utility.yul\":10528:10548   */\n          tag_269\n            /* \"#utility.yul\":10546:10547   */\n          dup3\n            /* \"#utility.yul\":10528:10548   */\n          tag_152\n          jump\t// in\n        tag_269:\n            /* \"#utility.yul\":10523:10548   */\n          swap2\n          pop\n            /* \"#utility.yul\":10562:10582   */\n          tag_270\n            /* \"#utility.yul\":10580:10581   */\n          dup4\n            /* \"#utility.yul\":10562:10582   */\n          tag_152\n          jump\t// in\n        tag_270:\n            /* \"#utility.yul\":10557:10582   */\n          swap3\n          pop\n            /* \"#utility.yul\":10606:10607   */\n          dup3\n            /* \"#utility.yul\":10603:10604   */\n          dup3\n            /* \"#utility.yul\":10599:10608   */\n          sub\n            /* \"#utility.yul\":10591:10608   */\n          swap1\n          pop\n            /* \"#utility.yul\":10630:10631   */\n          dup2\n            /* \"#utility.yul\":10624:10628   */\n          dup2\n            /* \"#utility.yul\":10621:10632   */\n          gt\n            /* \"#utility.yul\":10618:10655   */\n          iszero\n          tag_271\n          jumpi\n            /* \"#utility.yul\":10635:10653   */\n          tag_272\n          tag_169\n          jump\t// in\n        tag_272:\n            /* \"#utility.yul\":10618:10655   */\n        tag_271:\n            /* \"#utility.yul\":10468:10662   */\n          swap3\n          swap2\n          pop\n          pop\n          jump\t// out\n            /* \"#utility.yul\":10668:10859   */\n        tag_135:\n            /* \"#utility.yul\":10708:10711   */\n          0x00\n            /* \"#utility.yul\":10727:10747   */\n          tag_274\n            /* \"#utility.yul\":10745:10746   */\n          dup3\n            /* \"#utility.yul\":10727:10747   */\n          tag_152\n          jump\t// in\n        tag_274:\n            /* \"#utility.yul\":10722:10747   */\n          swap2\n          pop\n            /* \"#utility.yul\":10761:10781   */\n          tag_275\n            /* \"#utility.yul\":10779:10780   */\n          dup4\n            /* \"#utility.yul\":10761:10781   */\n          tag_152\n          jump\t// in\n        tag_275:\n            /* \"#utility.yul\":10756:10781   */\n          swap3\n          pop\n            /* \"#utility.yul\":10804:10805   */\n          dup3\n            /* \"#utility.yul\":10801:10802   */\n          dup3\n            /* \"#utility.yul\":10797:10806   */\n          add\n            /* \"#utility.yul\":10790:10806   */\n          swap1\n          pop\n            /* \"#utility.yul\":10825:10828   */\n          dup1\n            /* \"#utility.yul\":10822:10823   */\n          dup3\n            /* \"#utility.yul\":10819:10829   */\n          gt\n            /* \"#utility.yul\":10816:10852   */\n          iszero\n          tag_276\n          jumpi\n            /* \"#utility.yul\":10832:10850   */\n          tag_277\n          tag_169\n          jump\t// in\n        tag_277:\n            /* \"#utility.yul\":10816:10852   */\n        tag_276:\n            /* \"#utility.yul\":10668:10859   */\n          swap3\n          swap2\n          pop\n          pop\n          jump\t// out\n            /* \"#utility.yul\":10865:11042   */\n        tag_170:\n            /* \"#utility.yul\":11005:11034   */\n          0x536166654d6174683a206164646974696f6e206f766572666c6f770000000000\n            /* \"#utility.yul\":11001:11002   */\n          0x00\n            /* \"#utility.yul\":10993:10999   */\n          dup3\n            /* \"#utility.yul\":10989:11003   */\n          add\n            /* \"#utility.yul\":10982:11035   */\n          mstore\n            /* \"#utility.yul\":10865:11042   */\n          pop\n          jump\t// out\n            /* \"#utility.yul\":11048:11414   */\n        tag_171:\n            /* \"#utility.yul\":11190:11193   */\n          0x00\n            /* \"#utility.yul\":11211:11278   */\n          tag_280\n            /* \"#utility.yul\":11275:11277   */\n          0x1b\n            /* \"#utility.yul\":11270:11273   */\n          dup4\n            /* \"#utility.yul\":11211:11278   */\n          tag_141\n          jump\t// in\n        tag_280:\n            /* \"#utility.yul\":11204:11278   */\n          swap2\n          pop\n            /* \"#utility.yul\":11287:11380   */\n          tag_281\n            /* \"#utility.yul\":11376:11379   */\n          dup3\n            /* \"#utility.yul\":11287:11380   */\n          tag_170\n          jump\t// in\n        tag_281:\n            /* \"#utility.yul\":11405:11407   */\n          0x20\n            /* \"#utility.yul\":11400:11403   */\n          dup3\n            /* \"#utility.yul\":11396:11408   */\n          add\n            /* \"#utility.yul\":11389:11408   */\n          swap1\n          pop\n            /* \"#utility.yul\":11048:11414   */\n          swap2\n          swap1\n          pop\n          jump\t// out\n            /* \"#utility.yul\":11420:11839   */\n        tag_138:\n            /* \"#utility.yul\":11586:11590   */\n          0x00\n            /* \"#utility.yul\":11624:11626   */\n          0x20\n            /* \"#utility.yul\":11613:11622   */\n          dup3\n            /* \"#utility.yul\":11609:11627   */\n          add\n            /* \"#utility.yul\":11601:11627   */\n          swap1\n          pop\n            /* \"#utility.yul\":11673:11682   */\n          dup2\n            /* \"#utility.yul\":11667:11671   */\n          dup2\n            /* \"#utility.yul\":11663:11683   */\n          sub\n            /* \"#utility.yul\":11659:11660   */\n          0x00\n            /* \"#utility.yul\":11648:11657   */\n          dup4\n            /* \"#utility.yul\":11644:11661   */\n          add\n            /* \"#utility.yul\":11637:11684   */\n          mstore\n            /* \"#utility.yul\":11701:11832   */\n          tag_283\n            /* \"#utility.yul\":11827:11831   */\n          dup2\n            /* \"#utility.yul\":11701:11832   */\n          tag_171\n          jump\t// in\n        tag_283:\n            /* \"#utility.yul\":11693:11832   */\n          swap1\n          pop\n            /* \"#utility.yul\":11420:11839   */\n          swap2\n          swap1\n          pop\n          jump\t// out\n        stop\n        data_4107e8a8b9e94bf8ff83080ddec1c0bffe897ebc2241b89d44f66b3d274088b6 45524332303a207472616e7366657220616d6f756e7420657863656564732062616c616e6365\n        data_974d1b4421da69cc60b481194f0dad36a5bb4e23da810da7a7fb30cdba178330 45524332303a207472616e7366657220616d6f756e74206578636565647320616c6c6f77616e6365\n        data_f8b476f7d28209d77d4a4ac1fe36b9f8259aa1bb6bddfa6e89de7e51615cf8a8 45524332303a2064656372656173656420616c6c6f77616e63652062656c6f77207a65726f\n\n        auxdata: 0xa26469706673582212202710ff3f2300f3b1a1bee7e86e1f1947c759475b9bf229010c3270fee015558c64736f6c63430008110033\n    }\n}\n",
				"bytecode": {
					"linkReferences": {},
					"object": "60806040523480156200001157600080fd5b506040516200217e3803806200217e83398181016040528101906200003791906200027c565b816040516020016200004a919062000374565b604051602081830303815290604052816040516200006890620000db565b62000075929190620003f0565b604051809103906000f08015801562000092573d6000803e3d6000fd5b50603360006101000a81548173ffffffffffffffffffffffffffffffffffffffff021916908373ffffffffffffffffffffffffffffffffffffffff16021790555050506200042b565b611c1a806200056483390190565b6000604051905090565b600080fd5b600080fd5b600080fd5b600080fd5b6000601f19601f8301169050919050565b7f4e487b7100000000000000000000000000000000000000000000000000000000600052604160045260246000fd5b620001528262000107565b810181811067ffffffffffffffff8211171562000174576200017362000118565b5b80604052505050565b600062000189620000e9565b905062000197828262000147565b919050565b600067ffffffffffffffff821115620001ba57620001b962000118565b5b620001c58262000107565b9050602081019050919050565b60005b83811015620001f2578082015181840152602081019050620001d5565b60008484015250505050565b6000620002156200020f846200019c565b6200017d565b90508281526020810184848401111562000234576200023362000102565b5b62000241848285620001d2565b509392505050565b600082601f830112620002615762000260620000fd565b5b815162000273848260208601620001fe565b91505092915050565b60008060408385031215620002965762000295620000f3565b5b600083015167ffffffffffffffff811115620002b757620002b6620000f8565b5b620002c58582860162000249565b925050602083015167ffffffffffffffff811115620002e957620002e8620000f8565b5b620002f78582860162000249565b9150509250929050565b7f6900000000000000000000000000000000000000000000000000000000000000815250565b600081519050919050565b600081905092915050565b60006200034a8262000327565b62000356818562000332565b935062000368818560208601620001d2565b80840191505092915050565b6000620003818262000301565b6001820191506200039382846200033d565b915081905092915050565b600082825260208201905092915050565b6000620003bc8262000327565b620003c881856200039e565b9350620003da818560208601620001d2565b620003e58162000107565b840191505092915050565b600060408201905081810360008301526200040c8185620003af565b90508181036020830152620004228184620003af565b90509392505050565b610129806200043b6000396000f3fe6080604052348015600f57600080fd5b506004361060325760003560e01c8063430bf08a146037578063c7fc2228146051575b600080fd5b603d606b565b6040516048919060da565b60405180910390f35b60576073565b6040516062919060da565b60405180910390f35b600030905090565b6000603360009054906101000a900473ffffffffffffffffffffffffffffffffffffffff16905090565b600073ffffffffffffffffffffffffffffffffffffffff82169050919050565b600060c682609d565b9050919050565b60d48160bd565b82525050565b600060208201905060ed600083018460cd565b9291505056fea264697066735822122018ecebeeaab8ea6beaeb9bd2446dca8bb1fa9214d1becabe26ca6ea030f399b764736f6c6343000811003360806040523480156200001157600080fd5b5060405162001c1a38038062001c1a833981810160405281019062000037919062000425565b600060019054906101000a900460ff16806200005f57506200005e6200018460201b60201c565b5b8062000076575060008054906101000a900460ff16155b620000b8576040517f08c379a0000000000000000000000000000000000000000000000000000000008152600401620000af9062000531565b60405180910390fd5b60008060019054906101000a900460ff16159050801562000109576001600060016101000a81548160ff02191690831515021790555060016000806101000a81548160ff0219169083151502179055505b620001196200019b60201b60201c565b82606890816200012a91906200079e565b5081606990816200013c91906200079e565b506012606a60006101000a81548160ff021916908360ff16021790555080156200017b5760008060016101000a81548160ff0219169083151502179055505b50505062000885565b6000803090506000813b9050600081149250505090565b600060019054906101000a900460ff1680620001c35750620001c26200018460201b60201c565b5b80620001da575060008054906101000a900460ff16155b6200021c576040517f08c379a0000000000000000000000000000000000000000000000000000000008152600401620002139062000531565b60405180910390fd5b60008060019054906101000a900460ff1615905080156200026d576001600060016101000a81548160ff02191690831515021790555060016000806101000a81548160ff0219169083151502179055505b80156200028f5760008060016101000a81548160ff0219169083151502179055505b50565b6000604051905090565b600080fd5b600080fd5b600080fd5b600080fd5b6000601f19601f8301169050919050565b7f4e487b7100000000000000000000000000000000000000000000000000000000600052604160045260246000fd5b620002fb82620002b0565b810181811067ffffffffffffffff821117156200031d576200031c620002c1565b5b80604052505050565b60006200033262000292565b9050620003408282620002f0565b919050565b600067ffffffffffffffff821115620003635762000362620002c1565b5b6200036e82620002b0565b9050602081019050919050565b60005b838110156200039b5780820151818401526020810190506200037e565b60008484015250505050565b6000620003be620003b88462000345565b62000326565b905082815260208101848484011115620003dd57620003dc620002ab565b5b620003ea8482856200037b565b509392505050565b600082601f8301126200040a5762000409620002a6565b5b81516200041c848260208601620003a7565b91505092915050565b600080604083850312156200043f576200043e6200029c565b5b600083015167ffffffffffffffff81111562000460576200045f620002a1565b5b6200046e85828601620003f2565b925050602083015167ffffffffffffffff811115620004925762000491620002a1565b5b620004a085828601620003f2565b9150509250929050565b600082825260208201905092915050565b7f436f6e747261637420696e7374616e63652068617320616c726561647920626560008201527f656e20696e697469616c697a6564000000000000000000000000000000000000602082015250565b600062000519602e83620004aa565b91506200052682620004bb565b604082019050919050565b600060208201905081810360008301526200054c816200050a565b9050919050565b600081519050919050565b7f4e487b7100000000000000000000000000000000000000000000000000000000600052602260045260246000fd5b60006002820490506001821680620005a657607f821691505b602082108103620005bc57620005bb6200055e565b5b50919050565b60008190508160005260206000209050919050565b60006020601f8301049050919050565b600082821b905092915050565b600060088302620006267fffffffffffffffffffffffffffffffffffffffffffffffffffffffffffffffff82620005e7565b620006328683620005e7565b95508019841693508086168417925050509392505050565b6000819050919050565b6000819050919050565b60006200067f6200067962000673846200064a565b62000654565b6200064a565b9050919050565b6000819050919050565b6200069b836200065e565b620006b3620006aa8262000686565b848454620005f4565b825550505050565b600090565b620006ca620006bb565b620006d781848462000690565b505050565b5b81811015620006ff57620006f3600082620006c0565b600181019050620006dd565b5050565b601f8211156200074e576200071881620005c2565b6200072384620005d7565b8101602085101562000733578190505b6200074b6200074285620005d7565b830182620006dc565b50505b505050565b600082821c905092915050565b6000620007736000198460080262000753565b1980831691505092915050565b60006200078e838362000760565b9150826002028217905092915050565b620007a98262000553565b67ffffffffffffffff811115620007c557620007c4620002c1565b5b620007d182546200058d565b620007de82828562000703565b600060209050601f83116001811462000816576000841562000801578287015190505b6200080d858262000780565b8655506200087d565b601f1984166200082686620005c2565b60005b82811015620008505784890151825560018201915060208501945060208101905062000829565b868310156200087057848901516200086c601f89168262000760565b8355505b6001600288020188555050505b505050505050565b61138580620008956000396000f3fe608060405234801561001057600080fd5b50600436106100a95760003560e01c80633950935111610071578063395093511461016857806370a082311461019857806395d89b41146101c8578063a457c2d7146101e6578063a9059cbb14610216578063dd62ed3e14610246576100a9565b806306fdde03146100ae578063095ea7b3146100cc57806318160ddd146100fc57806323b872dd1461011a578063313ce5671461014a575b600080fd5b6100b6610276565b6040516100c39190610cdf565b60405180910390f35b6100e660048036038101906100e19190610d9a565b610308565b6040516100f39190610df5565b60405180910390f35b610104610326565b6040516101119190610e1f565b60405180910390f35b610134600480360381019061012f9190610e3a565b610330565b6040516101419190610df5565b60405180910390f35b610152610409565b60405161015f9190610ea9565b60405180910390f35b610182600480360381019061017d9190610d9a565b610420565b60405161018f9190610df5565b60405180910390f35b6101b260048036038101906101ad9190610ec4565b6104d3565b6040516101bf9190610e1f565b60405180910390f35b6101d061051c565b6040516101dd9190610cdf565b60405180910390f35b61020060048036038101906101fb9190610d9a565b6105ae565b60405161020d9190610df5565b60405180910390f35b610230600480360381019061022b9190610d9a565b61067b565b60405161023d9190610df5565b60405180910390f35b610260600480360381019061025b9190610ef1565b610699565b60405161026d9190610e1f565b60405180910390f35b60606068805461028590610f60565b80601f01602080910402602001604051908101604052809291908181526020018280546102b190610f60565b80156102fe5780601f106102d3576101008083540402835291602001916102fe565b820191906000526020600020905b8154815290600101906020018083116102e157829003601f168201915b5050505050905090565b600061031c610315610720565b8484610728565b6001905092915050565b6000606754905090565b600061033d8484846108f1565b6103fe84610349610720565b6103f98560405180606001604052806028815260200161130360289139606660008b73ffffffffffffffffffffffffffffffffffffffff1673ffffffffffffffffffffffffffffffffffffffff16815260200190815260200160002060006103af610720565b73ffffffffffffffffffffffffffffffffffffffff1673ffffffffffffffffffffffffffffffffffffffff16815260200190815260200160002054610b889092919063ffffffff16565b610728565b600190509392505050565b6000606a60009054906101000a900460ff16905090565b60006104c961042d610720565b846104c4856066600061043e610720565b73ffffffffffffffffffffffffffffffffffffffff1673ffffffffffffffffffffffffffffffffffffffff16815260200190815260200160002060008973ffffffffffffffffffffffffffffffffffffffff1673ffffffffffffffffffffffffffffffffffffffff16815260200190815260200160002054610bec90919063ffffffff16565b610728565b6001905092915050565b6000606560008373ffffffffffffffffffffffffffffffffffffffff1673ffffffffffffffffffffffffffffffffffffffff168152602001908152602001600020549050919050565b60606069805461052b90610f60565b80601f016020809104026020016040519081016040528092919081815260200182805461055790610f60565b80156105a45780601f10610579576101008083540402835291602001916105a4565b820191906000526020600020905b81548152906001019060200180831161058757829003601f168201915b5050505050905090565b60006106716105bb610720565b8461066c8560405180606001604052806025815260200161132b60259139606660006105e5610720565b73ffffffffffffffffffffffffffffffffffffffff1673ffffffffffffffffffffffffffffffffffffffff16815260200190815260200160002060008a73ffffffffffffffffffffffffffffffffffffffff1673ffffffffffffffffffffffffffffffffffffffff16815260200190815260200160002054610b889092919063ffffffff16565b610728565b6001905092915050565b600061068f610688610720565b84846108f1565b6001905092915050565b6000606660008473ffffffffffffffffffffffffffffffffffffffff1673ffffffffffffffffffffffffffffffffffffffff16815260200190815260200160002060008373ffffffffffffffffffffffffffffffffffffffff1673ffffffffffffffffffffffffffffffffffffffff16815260200190815260200160002054905092915050565b600033905090565b600073ffffffffffffffffffffffffffffffffffffffff168373ffffffffffffffffffffffffffffffffffffffff1603610797576040517f08c379a000000000000000000000000000000000000000000000000000000000815260040161078e90611003565b60405180910390fd5b600073ffffffffffffffffffffffffffffffffffffffff168273ffffffffffffffffffffffffffffffffffffffff1603610806576040517f08c379a00000000000000000000000000000000000000000000000000000000081526004016107fd90611095565b60405180910390fd5b80606660008573ffffffffffffffffffffffffffffffffffffffff1673ffffffffffffffffffffffffffffffffffffffff16815260200190815260200160002060008473ffffffffffffffffffffffffffffffffffffffff1673ffffffffffffffffffffffffffffffffffffffff168152602001908152602001600020819055508173ffffffffffffffffffffffffffffffffffffffff168373ffffffffffffffffffffffffffffffffffffffff167f8c5be1e5ebec7d5bd14f71427d1e84f3dd0314c0f7b2291e5b200ac8c7c3b925836040516108e49190610e1f565b60405180910390a3505050565b600073ffffffffffffffffffffffffffffffffffffffff168373ffffffffffffffffffffffffffffffffffffffff1603610960576040517f08c379a000000000000000000000000000000000000000000000000000000000815260040161095790611127565b60405180910390fd5b600073ffffffffffffffffffffffffffffffffffffffff168273ffffffffffffffffffffffffffffffffffffffff16036109cf576040517f08c379a00000000000000000000000000000000000000000000000000000000081526004016109c6906111b9565b60405180910390fd5b6109da838383610c4a565b610a46816040518060600160405280602681526020016112dd60269139606560008773ffffffffffffffffffffffffffffffffffffffff1673ffffffffffffffffffffffffffffffffffffffff16815260200190815260200160002054610b889092919063ffffffff16565b606560008573ffffffffffffffffffffffffffffffffffffffff1673ffffffffffffffffffffffffffffffffffffffff16815260200190815260200160002081905550610adb81606560008573ffffffffffffffffffffffffffffffffffffffff1673ffffffffffffffffffffffffffffffffffffffff16815260200190815260200160002054610bec90919063ffffffff16565b606560008473ffffffffffffffffffffffffffffffffffffffff1673ffffffffffffffffffffffffffffffffffffffff168152602001908152602001600020819055508173ffffffffffffffffffffffffffffffffffffffff168373ffffffffffffffffffffffffffffffffffffffff167fddf252ad1be2c89b69c2b068fc378daa952ba7f163c4a11628f55a4df523b3ef83604051610b7b9190610e1f565b60405180910390a3505050565b6000838311158290610bd0576040517f08c379a0000000000000000000000000000000000000000000000000000000008152600401610bc79190610cdf565b60405180910390fd5b5060008385610bdf9190611208565b9050809150509392505050565b6000808284610bfb919061123c565b905083811015610c40576040517f08c379a0000000000000000000000000000000000000000000000000000000008152600401610c37906112bc565b60405180910390fd5b8091505092915050565b505050565b600081519050919050565b600082825260208201905092915050565b60005b83811015610c89578082015181840152602081019050610c6e565b60008484015250505050565b6000601f19601f8301169050919050565b6000610cb182610c4f565b610cbb8185610c5a565b9350610ccb818560208601610c6b565b610cd481610c95565b840191505092915050565b60006020820190508181036000830152610cf98184610ca6565b905092915050565b600080fd5b600073ffffffffffffffffffffffffffffffffffffffff82169050919050565b6000610d3182610d06565b9050919050565b610d4181610d26565b8114610d4c57600080fd5b50565b600081359050610d5e81610d38565b92915050565b6000819050919050565b610d7781610d64565b8114610d8257600080fd5b50565b600081359050610d9481610d6e565b92915050565b60008060408385031215610db157610db0610d01565b5b6000610dbf85828601610d4f565b9250506020610dd085828601610d85565b9150509250929050565b60008115159050919050565b610def81610dda565b82525050565b6000602082019050610e0a6000830184610de6565b92915050565b610e1981610d64565b82525050565b6000602082019050610e346000830184610e10565b92915050565b600080600060608486031215610e5357610e52610d01565b5b6000610e6186828701610d4f565b9350506020610e7286828701610d4f565b9250506040610e8386828701610d85565b9150509250925092565b600060ff82169050919050565b610ea381610e8d565b82525050565b6000602082019050610ebe6000830184610e9a565b92915050565b600060208284031215610eda57610ed9610d01565b5b6000610ee884828501610d4f565b91505092915050565b60008060408385031215610f0857610f07610d01565b5b6000610f1685828601610d4f565b9250506020610f2785828601610d4f565b9150509250929050565b7f4e487b7100000000000000000000000000000000000000000000000000000000600052602260045260246000fd5b60006002820490506001821680610f7857607f821691505b602082108103610f8b57610f8a610f31565b5b50919050565b7f45524332303a20617070726f76652066726f6d20746865207a65726f2061646460008201527f7265737300000000000000000000000000000000000000000000000000000000602082015250565b6000610fed602483610c5a565b9150610ff882610f91565b604082019050919050565b6000602082019050818103600083015261101c81610fe0565b9050919050565b7f45524332303a20617070726f766520746f20746865207a65726f20616464726560008201527f7373000000000000000000000000000000000000000000000000000000000000602082015250565b600061107f602283610c5a565b915061108a82611023565b604082019050919050565b600060208201905081810360008301526110ae81611072565b9050919050565b7f45524332303a207472616e736665722066726f6d20746865207a65726f20616460008201527f6472657373000000000000000000000000000000000000000000000000000000602082015250565b6000611111602583610c5a565b915061111c826110b5565b604082019050919050565b6000602082019050818103600083015261114081611104565b9050919050565b7f45524332303a207472616e7366657220746f20746865207a65726f206164647260008201527f6573730000000000000000000000000000000000000000000000000000000000602082015250565b60006111a3602383610c5a565b91506111ae82611147565b604082019050919050565b600060208201905081810360008301526111d281611196565b9050919050565b7f4e487b7100000000000000000000000000000000000000000000000000000000600052601160045260246000fd5b600061121382610d64565b915061121e83610d64565b9250828203905081811115611236576112356111d9565b5b92915050565b600061124782610d64565b915061125283610d64565b925082820190508082111561126a576112696111d9565b5b92915050565b7f536166654d6174683a206164646974696f6e206f766572666c6f770000000000600082015250565b60006112a6601b83610c5a565b91506112b182611270565b602082019050919050565b600060208201905081810360008301526112d581611299565b905091905056fe45524332303a207472616e7366657220616d6f756e7420657863656564732062616c616e636545524332303a207472616e7366657220616d6f756e74206578636565647320616c6c6f77616e636545524332303a2064656372656173656420616c6c6f77616e63652062656c6f77207a65726fa26469706673582212202710ff3f2300f3b1a1bee7e86e1f1947c759475b9bf229010c3270fee015558c64736f6c63430008110033",
					"opcodes": "PUSH1 0x80 PUSH1 0x40 MSTORE CALLVALUE DUP1 ISZERO PUSH3 0x11 JUMPI PUSH1 0x0 DUP1 REVERT JUMPDEST POP PUSH1 0x40 MLOAD PUSH3 0x217E CODESIZE SUB DUP1 PUSH3 0x217E DUP4 CODECOPY DUP2 DUP2 ADD PUSH1 0x40 MSTORE DUP2 ADD SWAP1 PUSH3 0x37 SWAP2 SWAP1 PUSH3 0x27C JUMP JUMPDEST DUP2 PUSH1 0x40 MLOAD PUSH1 0x20 ADD PUSH3 0x4A SWAP2 SWAP1 PUSH3 0x374 JUMP JUMPDEST PUSH1 0x40 MLOAD PUSH1 0x20 DUP2 DUP4 SUB SUB DUP2 MSTORE SWAP1 PUSH1 0x40 MSTORE DUP2 PUSH1 0x40 MLOAD PUSH3 0x68 SWAP1 PUSH3 0xDB JUMP JUMPDEST PUSH3 0x75 SWAP3 SWAP2 SWAP1 PUSH3 0x3F0 JUMP JUMPDEST PUSH1 0x40 MLOAD DUP1 SWAP2 SUB SWAP1 PUSH1 0x0 CREATE DUP1 ISZERO DUP1 ISZERO PUSH3 0x92 JUMPI RETURNDATASIZE PUSH1 0x0 DUP1 RETURNDATACOPY RETURNDATASIZE PUSH1 0x0 REVERT JUMPDEST POP PUSH1 0x33 PUSH1 0x0 PUSH2 0x100 EXP DUP2 SLOAD DUP2 PUSH20 0xFFFFFFFFFFFFFFFFFFFFFFFFFFFFFFFFFFFFFFFF MUL NOT AND SWAP1 DUP4 PUSH20 0xFFFFFFFFFFFFFFFFFFFFFFFFFFFFFFFFFFFFFFFF AND MUL OR SWAP1 SSTORE POP POP POP PUSH3 0x42B JUMP JUMPDEST PUSH2 0x1C1A DUP1 PUSH3 0x564 DUP4 CODECOPY ADD SWAP1 JUMP JUMPDEST PUSH1 0x0 PUSH1 0x40 MLOAD SWAP1 POP SWAP1 JUMP JUMPDEST PUSH1 0x0 DUP1 REVERT JUMPDEST PUSH1 0x0 DUP1 REVERT JUMPDEST PUSH1 0x0 DUP1 REVERT JUMPDEST PUSH1 0x0 DUP1 REVERT JUMPDEST PUSH1 0x0 PUSH1 0x1F NOT PUSH1 0x1F DUP4 ADD AND SWAP1 POP SWAP2 SWAP1 POP JUMP JUMPDEST PUSH32 0x4E487B7100000000000000000000000000000000000000000000000000000000 PUSH1 0x0 MSTORE PUSH1 0x41 PUSH1 0x4 MSTORE PUSH1 0x24 PUSH1 0x0 REVERT JUMPDEST PUSH3 0x152 DUP3 PUSH3 0x107 JUMP JUMPDEST DUP2 ADD DUP2 DUP2 LT PUSH8 0xFFFFFFFFFFFFFFFF DUP3 GT OR ISZERO PUSH3 0x174 JUMPI PUSH3 0x173 PUSH3 0x118 JUMP JUMPDEST JUMPDEST DUP1 PUSH1 0x40 MSTORE POP POP POP JUMP JUMPDEST PUSH1 0x0 PUSH3 0x189 PUSH3 0xE9 JUMP JUMPDEST SWAP1 POP PUSH3 0x197 DUP3 DUP3 PUSH3 0x147 JUMP JUMPDEST SWAP2 SWAP1 POP JUMP JUMPDEST PUSH1 0x0 PUSH8 0xFFFFFFFFFFFFFFFF DUP3 GT ISZERO PUSH3 0x1BA JUMPI PUSH3 0x1B9 PUSH3 0x118 JUMP JUMPDEST JUMPDEST PUSH3 0x1C5 DUP3 PUSH3 0x107 JUMP JUMPDEST SWAP1 POP PUSH1 0x20 DUP2 ADD SWAP1 POP SWAP2 SWAP1 POP JUMP JUMPDEST PUSH1 0x0 JUMPDEST DUP4 DUP2 LT ISZERO PUSH3 0x1F2 JUMPI DUP1 DUP3 ADD MLOAD DUP2 DUP5 ADD MSTORE PUSH1 0x20 DUP2 ADD SWAP1 POP PUSH3 0x1D5 JUMP JUMPDEST PUSH1 0x0 DUP5 DUP5 ADD MSTORE POP POP POP POP JUMP JUMPDEST PUSH1 0x0 PUSH3 0x215 PUSH3 0x20F DUP5 PUSH3 0x19C JUMP JUMPDEST PUSH3 0x17D JUMP JUMPDEST SWAP1 POP DUP3 DUP2 MSTORE PUSH1 0x20 DUP2 ADD DUP5 DUP5 DUP5 ADD GT ISZERO PUSH3 0x234 JUMPI PUSH3 0x233 PUSH3 0x102 JUMP JUMPDEST JUMPDEST PUSH3 0x241 DUP5 DUP3 DUP6 PUSH3 0x1D2 JUMP JUMPDEST POP SWAP4 SWAP3 POP POP POP JUMP JUMPDEST PUSH1 0x0 DUP3 PUSH1 0x1F DUP4 ADD SLT PUSH3 0x261 JUMPI PUSH3 0x260 PUSH3 0xFD JUMP JUMPDEST JUMPDEST DUP2 MLOAD PUSH3 0x273 DUP5 DUP3 PUSH1 0x20 DUP7 ADD PUSH3 0x1FE JUMP JUMPDEST SWAP2 POP POP SWAP3 SWAP2 POP POP JUMP JUMPDEST PUSH1 0x0 DUP1 PUSH1 0x40 DUP4 DUP6 SUB SLT ISZERO PUSH3 0x296 JUMPI PUSH3 0x295 PUSH3 0xF3 JUMP JUMPDEST JUMPDEST PUSH1 0x0 DUP4 ADD MLOAD PUSH8 0xFFFFFFFFFFFFFFFF DUP2 GT ISZERO PUSH3 0x2B7 JUMPI PUSH3 0x2B6 PUSH3 0xF8 JUMP JUMPDEST JUMPDEST PUSH3 0x2C5 DUP6 DUP3 DUP7 ADD PUSH3 0x249 JUMP JUMPDEST SWAP3 POP POP PUSH1 0x20 DUP4 ADD MLOAD PUSH8 0xFFFFFFFFFFFFFFFF DUP2 GT ISZERO PUSH3 0x2E9 JUMPI PUSH3 0x2E8 PUSH3 0xF8 JUMP JUMPDEST JUMPDEST PUSH3 0x2F7 DUP6 DUP3 DUP7 ADD PUSH3 0x249 JUMP JUMPDEST SWAP2 POP POP SWAP3 POP SWAP3 SWAP1 POP JUMP JUMPDEST PUSH32 0x6900000000000000000000000000000000000000000000000000000000000000 DUP2 MSTORE POP JUMP JUMPDEST PUSH1 0x0 DUP2 MLOAD SWAP1 POP SWAP2 SWAP1 POP JUMP JUMPDEST PUSH1 0x0 DUP2 SWAP1 POP SWAP3 SWAP2 POP POP JUMP JUMPDEST PUSH1 0x0 PUSH3 0x34A DUP3 PUSH3 0x327 JUMP JUMPDEST PUSH3 0x356 DUP2 DUP6 PUSH3 0x332 JUMP JUMPDEST SWAP4 POP PUSH3 0x368 DUP2 DUP6 PUSH1 0x20 DUP7 ADD PUSH3 0x1D2 JUMP JUMPDEST DUP1 DUP5 ADD SWAP2 POP POP SWAP3 SWAP2 POP POP JUMP JUMPDEST PUSH1 0x0 PUSH3 0x381 DUP3 PUSH3 0x301 JUMP JUMPDEST PUSH1 0x1 DUP3 ADD SWAP2 POP PUSH3 0x393 DUP3 DUP5 PUSH3 0x33D JUMP JUMPDEST SWAP2 POP DUP2 SWAP1 POP SWAP3 SWAP2 POP POP JUMP JUMPDEST PUSH1 0x0 DUP3 DUP3 MSTORE PUSH1 0x20 DUP3 ADD SWAP1 POP SWAP3 SWAP2 POP POP JUMP JUMPDEST PUSH1 0x0 PUSH3 0x3BC DUP3 PUSH3 0x327 JUMP JUMPDEST PUSH3 0x3C8 DUP2 DUP6 PUSH3 0x39E JUMP JUMPDEST SWAP4 POP PUSH3 0x3DA DUP2 DUP6 PUSH1 0x20 DUP7 ADD PUSH3 0x1D2 JUMP JUMPDEST PUSH3 0x3E5 DUP2 PUSH3 0x107 JUMP JUMPDEST DUP5 ADD SWAP2 POP POP SWAP3 SWAP2 POP POP JUMP JUMPDEST PUSH1 0x0 PUSH1 0x40 DUP3 ADD SWAP1 POP DUP2 DUP2 SUB PUSH1 0x0 DUP4 ADD MSTORE PUSH3 0x40C DUP2 DUP6 PUSH3 0x3AF JUMP JUMPDEST SWAP1 POP DUP2 DUP2 SUB PUSH1 0x20 DUP4 ADD MSTORE PUSH3 0x422 DUP2 DUP5 PUSH3 0x3AF JUMP JUMPDEST SWAP1 POP SWAP4 SWAP3 POP POP POP JUMP JUMPDEST PUSH2 0x129 DUP1 PUSH3 0x43B PUSH1 0x0 CODECOPY PUSH1 0x0 RETURN INVALID PUSH1 0x80 PUSH1 0x40 MSTORE CALLVALUE DUP1 ISZERO PUSH1 0xF JUMPI PUSH1 0x0 DUP1 REVERT JUMPDEST POP PUSH1 0x4 CALLDATASIZE LT PUSH1 0x32 JUMPI PUSH1 0x0 CALLDATALOAD PUSH1 0xE0 SHR DUP1 PUSH4 0x430BF08A EQ PUSH1 0x37 JUMPI DUP1 PUSH4 0xC7FC2228 EQ PUSH1 0x51 JUMPI JUMPDEST PUSH1 0x0 DUP1 REVERT JUMPDEST PUSH1 0x3D PUSH1 0x6B JUMP JUMPDEST PUSH1 0x40 MLOAD PUSH1 0x48 SWAP2 SWAP1 PUSH1 0xDA JUMP JUMPDEST PUSH1 0x40 MLOAD DUP1 SWAP2 SUB SWAP1 RETURN JUMPDEST PUSH1 0x57 PUSH1 0x73 JUMP JUMPDEST PUSH1 0x40 MLOAD PUSH1 0x62 SWAP2 SWAP1 PUSH1 0xDA JUMP JUMPDEST PUSH1 0x40 MLOAD DUP1 SWAP2 SUB SWAP1 RETURN JUMPDEST PUSH1 0x0 ADDRESS SWAP1 POP SWAP1 JUMP JUMPDEST PUSH1 0x0 PUSH1 0x33 PUSH1 0x0 SWAP1 SLOAD SWAP1 PUSH2 0x100 EXP SWAP1 DIV PUSH20 0xFFFFFFFFFFFFFFFFFFFFFFFFFFFFFFFFFFFFFFFF AND SWAP1 POP SWAP1 JUMP JUMPDEST PUSH1 0x0 PUSH20 0xFFFFFFFFFFFFFFFFFFFFFFFFFFFFFFFFFFFFFFFF DUP3 AND SWAP1 POP SWAP2 SWAP1 POP JUMP JUMPDEST PUSH1 0x0 PUSH1 0xC6 DUP3 PUSH1 0x9D JUMP JUMPDEST SWAP1 POP SWAP2 SWAP1 POP JUMP JUMPDEST PUSH1 0xD4 DUP2 PUSH1 0xBD JUMP JUMPDEST DUP3 MSTORE POP POP JUMP JUMPDEST PUSH1 0x0 PUSH1 0x20 DUP3 ADD SWAP1 POP PUSH1 0xED PUSH1 0x0 DUP4 ADD DUP5 PUSH1 0xCD JUMP JUMPDEST SWAP3 SWAP2 POP POP JUMP INVALID LOG2 PUSH5 0x6970667358 0x22 SLT KECCAK256 XOR 0xEC 0xEB 0xEE 0xAA 0xB8 0xEA PUSH12 0xEAEB9BD2446DCA8BB1FA9214 0xD1 0xBE 0xCA 0xBE 0x26 0xCA PUSH15 0xA030F399B764736F6C634300081100 CALLER PUSH1 0x80 PUSH1 0x40 MSTORE CALLVALUE DUP1 ISZERO PUSH3 0x11 JUMPI PUSH1 0x0 DUP1 REVERT JUMPDEST POP PUSH1 0x40 MLOAD PUSH3 0x1C1A CODESIZE SUB DUP1 PUSH3 0x1C1A DUP4 CODECOPY DUP2 DUP2 ADD PUSH1 0x40 MSTORE DUP2 ADD SWAP1 PUSH3 0x37 SWAP2 SWAP1 PUSH3 0x425 JUMP JUMPDEST PUSH1 0x0 PUSH1 0x1 SWAP1 SLOAD SWAP1 PUSH2 0x100 EXP SWAP1 DIV PUSH1 0xFF AND DUP1 PUSH3 0x5F JUMPI POP PUSH3 0x5E PUSH3 0x184 PUSH1 0x20 SHL PUSH1 0x20 SHR JUMP JUMPDEST JUMPDEST DUP1 PUSH3 0x76 JUMPI POP PUSH1 0x0 DUP1 SLOAD SWAP1 PUSH2 0x100 EXP SWAP1 DIV PUSH1 0xFF AND ISZERO JUMPDEST PUSH3 0xB8 JUMPI PUSH1 0x40 MLOAD PUSH32 0x8C379A000000000000000000000000000000000000000000000000000000000 DUP2 MSTORE PUSH1 0x4 ADD PUSH3 0xAF SWAP1 PUSH3 0x531 JUMP JUMPDEST PUSH1 0x40 MLOAD DUP1 SWAP2 SUB SWAP1 REVERT JUMPDEST PUSH1 0x0 DUP1 PUSH1 0x1 SWAP1 SLOAD SWAP1 PUSH2 0x100 EXP SWAP1 DIV PUSH1 0xFF AND ISZERO SWAP1 POP DUP1 ISZERO PUSH3 0x109 JUMPI PUSH1 0x1 PUSH1 0x0 PUSH1 0x1 PUSH2 0x100 EXP DUP2 SLOAD DUP2 PUSH1 0xFF MUL NOT AND SWAP1 DUP4 ISZERO ISZERO MUL OR SWAP1 SSTORE POP PUSH1 0x1 PUSH1 0x0 DUP1 PUSH2 0x100 EXP DUP2 SLOAD DUP2 PUSH1 0xFF MUL NOT AND SWAP1 DUP4 ISZERO ISZERO MUL OR SWAP1 SSTORE POP JUMPDEST PUSH3 0x119 PUSH3 0x19B PUSH1 0x20 SHL PUSH1 0x20 SHR JUMP JUMPDEST DUP3 PUSH1 0x68 SWAP1 DUP2 PUSH3 0x12A SWAP2 SWAP1 PUSH3 0x79E JUMP JUMPDEST POP DUP2 PUSH1 0x69 SWAP1 DUP2 PUSH3 0x13C SWAP2 SWAP1 PUSH3 0x79E JUMP JUMPDEST POP PUSH1 0x12 PUSH1 0x6A PUSH1 0x0 PUSH2 0x100 EXP DUP2 SLOAD DUP2 PUSH1 0xFF MUL NOT AND SWAP1 DUP4 PUSH1 0xFF AND MUL OR SWAP1 SSTORE POP DUP1 ISZERO PUSH3 0x17B JUMPI PUSH1 0x0 DUP1 PUSH1 0x1 PUSH2 0x100 EXP DUP2 SLOAD DUP2 PUSH1 0xFF MUL NOT AND SWAP1 DUP4 ISZERO ISZERO MUL OR SWAP1 SSTORE POP JUMPDEST POP POP POP PUSH3 0x885 JUMP JUMPDEST PUSH1 0x0 DUP1 ADDRESS SWAP1 POP PUSH1 0x0 DUP2 EXTCODESIZE SWAP1 POP PUSH1 0x0 DUP2 EQ SWAP3 POP POP POP SWAP1 JUMP JUMPDEST PUSH1 0x0 PUSH1 0x1 SWAP1 SLOAD SWAP1 PUSH2 0x100 EXP SWAP1 DIV PUSH1 0xFF AND DUP1 PUSH3 0x1C3 JUMPI POP PUSH3 0x1C2 PUSH3 0x184 PUSH1 0x20 SHL PUSH1 0x20 SHR JUMP JUMPDEST JUMPDEST DUP1 PUSH3 0x1DA JUMPI POP PUSH1 0x0 DUP1 SLOAD SWAP1 PUSH2 0x100 EXP SWAP1 DIV PUSH1 0xFF AND ISZERO JUMPDEST PUSH3 0x21C JUMPI PUSH1 0x40 MLOAD PUSH32 0x8C379A000000000000000000000000000000000000000000000000000000000 DUP2 MSTORE PUSH1 0x4 ADD PUSH3 0x213 SWAP1 PUSH3 0x531 JUMP JUMPDEST PUSH1 0x40 MLOAD DUP1 SWAP2 SUB SWAP1 REVERT JUMPDEST PUSH1 0x0 DUP1 PUSH1 0x1 SWAP1 SLOAD SWAP1 PUSH2 0x100 EXP SWAP1 DIV PUSH1 0xFF AND ISZERO SWAP1 POP DUP1 ISZERO PUSH3 0x26D JUMPI PUSH1 0x1 PUSH1 0x0 PUSH1 0x1 PUSH2 0x100 EXP DUP2 SLOAD DUP2 PUSH1 0xFF MUL NOT AND SWAP1 DUP4 ISZERO ISZERO MUL OR SWAP1 SSTORE POP PUSH1 0x1 PUSH1 0x0 DUP1 PUSH2 0x100 EXP DUP2 SLOAD DUP2 PUSH1 0xFF MUL NOT AND SWAP1 DUP4 ISZERO ISZERO MUL OR SWAP1 SSTORE POP JUMPDEST DUP1 ISZERO PUSH3 0x28F JUMPI PUSH1 0x0 DUP1 PUSH1 0x1 PUSH2 0x100 EXP DUP2 SLOAD DUP2 PUSH1 0xFF MUL NOT AND SWAP1 DUP4 ISZERO ISZERO MUL OR SWAP1 SSTORE POP JUMPDEST POP JUMP JUMPDEST PUSH1 0x0 PUSH1 0x40 MLOAD SWAP1 POP SWAP1 JUMP JUMPDEST PUSH1 0x0 DUP1 REVERT JUMPDEST PUSH1 0x0 DUP1 REVERT JUMPDEST PUSH1 0x0 DUP1 REVERT JUMPDEST PUSH1 0x0 DUP1 REVERT JUMPDEST PUSH1 0x0 PUSH1 0x1F NOT PUSH1 0x1F DUP4 ADD AND SWAP1 POP SWAP2 SWAP1 POP JUMP JUMPDEST PUSH32 0x4E487B7100000000000000000000000000000000000000000000000000000000 PUSH1 0x0 MSTORE PUSH1 0x41 PUSH1 0x4 MSTORE PUSH1 0x24 PUSH1 0x0 REVERT JUMPDEST PUSH3 0x2FB DUP3 PUSH3 0x2B0 JUMP JUMPDEST DUP2 ADD DUP2 DUP2 LT PUSH8 0xFFFFFFFFFFFFFFFF DUP3 GT OR ISZERO PUSH3 0x31D JUMPI PUSH3 0x31C PUSH3 0x2C1 JUMP JUMPDEST JUMPDEST DUP1 PUSH1 0x40 MSTORE POP POP POP JUMP JUMPDEST PUSH1 0x0 PUSH3 0x332 PUSH3 0x292 JUMP JUMPDEST SWAP1 POP PUSH3 0x340 DUP3 DUP3 PUSH3 0x2F0 JUMP JUMPDEST SWAP2 SWAP1 POP JUMP JUMPDEST PUSH1 0x0 PUSH8 0xFFFFFFFFFFFFFFFF DUP3 GT ISZERO PUSH3 0x363 JUMPI PUSH3 0x362 PUSH3 0x2C1 JUMP JUMPDEST JUMPDEST PUSH3 0x36E DUP3 PUSH3 0x2B0 JUMP JUMPDEST SWAP1 POP PUSH1 0x20 DUP2 ADD SWAP1 POP SWAP2 SWAP1 POP JUMP JUMPDEST PUSH1 0x0 JUMPDEST DUP4 DUP2 LT ISZERO PUSH3 0x39B JUMPI DUP1 DUP3 ADD MLOAD DUP2 DUP5 ADD MSTORE PUSH1 0x20 DUP2 ADD SWAP1 POP PUSH3 0x37E JUMP JUMPDEST PUSH1 0x0 DUP5 DUP5 ADD MSTORE POP POP POP POP JUMP JUMPDEST PUSH1 0x0 PUSH3 0x3BE PUSH3 0x3B8 DUP5 PUSH3 0x345 JUMP JUMPDEST PUSH3 0x326 JUMP JUMPDEST SWAP1 POP DUP3 DUP2 MSTORE PUSH1 0x20 DUP2 ADD DUP5 DUP5 DUP5 ADD GT ISZERO PUSH3 0x3DD JUMPI PUSH3 0x3DC PUSH3 0x2AB JUMP JUMPDEST JUMPDEST PUSH3 0x3EA DUP5 DUP3 DUP6 PUSH3 0x37B JUMP JUMPDEST POP SWAP4 SWAP3 POP POP POP JUMP JUMPDEST PUSH1 0x0 DUP3 PUSH1 0x1F DUP4 ADD SLT PUSH3 0x40A JUMPI PUSH3 0x409 PUSH3 0x2A6 JUMP JUMPDEST JUMPDEST DUP2 MLOAD PUSH3 0x41C DUP5 DUP3 PUSH1 0x20 DUP7 ADD PUSH3 0x3A7 JUMP JUMPDEST SWAP2 POP POP SWAP3 SWAP2 POP POP JUMP JUMPDEST PUSH1 0x0 DUP1 PUSH1 0x40 DUP4 DUP6 SUB SLT ISZERO PUSH3 0x43F JUMPI PUSH3 0x43E PUSH3 0x29C JUMP JUMPDEST JUMPDEST PUSH1 0x0 DUP4 ADD MLOAD PUSH8 0xFFFFFFFFFFFFFFFF DUP2 GT ISZERO PUSH3 0x460 JUMPI PUSH3 0x45F PUSH3 0x2A1 JUMP JUMPDEST JUMPDEST PUSH3 0x46E DUP6 DUP3 DUP7 ADD PUSH3 0x3F2 JUMP JUMPDEST SWAP3 POP POP PUSH1 0x20 DUP4 ADD MLOAD PUSH8 0xFFFFFFFFFFFFFFFF DUP2 GT ISZERO PUSH3 0x492 JUMPI PUSH3 0x491 PUSH3 0x2A1 JUMP JUMPDEST JUMPDEST PUSH3 0x4A0 DUP6 DUP3 DUP7 ADD PUSH3 0x3F2 JUMP JUMPDEST SWAP2 POP POP SWAP3 POP SWAP3 SWAP1 POP JUMP JUMPDEST PUSH1 0x0 DUP3 DUP3 MSTORE PUSH1 0x20 DUP3 ADD SWAP1 POP SWAP3 SWAP2 POP POP JUMP JUMPDEST PUSH32 0x436F6E747261637420696E7374616E63652068617320616C7265616479206265 PUSH1 0x0 DUP3 ADD MSTORE PUSH32 0x656E20696E697469616C697A6564000000000000000000000000000000000000 PUSH1 0x20 DUP3 ADD MSTORE POP JUMP JUMPDEST PUSH1 0x0 PUSH3 0x519 PUSH1 0x2E DUP4 PUSH3 0x4AA JUMP JUMPDEST SWAP2 POP PUSH3 0x526 DUP3 PUSH3 0x4BB JUMP JUMPDEST PUSH1 0x40 DUP3 ADD SWAP1 POP SWAP2 SWAP1 POP JUMP JUMPDEST PUSH1 0x0 PUSH1 0x20 DUP3 ADD SWAP1 POP DUP2 DUP2 SUB PUSH1 0x0 DUP4 ADD MSTORE PUSH3 0x54C DUP2 PUSH3 0x50A JUMP JUMPDEST SWAP1 POP SWAP2 SWAP1 POP JUMP JUMPDEST PUSH1 0x0 DUP2 MLOAD SWAP1 POP SWAP2 SWAP1 POP JUMP JUMPDEST PUSH32 0x4E487B7100000000000000000000000000000000000000000000000000000000 PUSH1 0x0 MSTORE PUSH1 0x22 PUSH1 0x4 MSTORE PUSH1 0x24 PUSH1 0x0 REVERT JUMPDEST PUSH1 0x0 PUSH1 0x2 DUP3 DIV SWAP1 POP PUSH1 0x1 DUP3 AND DUP1 PUSH3 0x5A6 JUMPI PUSH1 0x7F DUP3 AND SWAP2 POP JUMPDEST PUSH1 0x20 DUP3 LT DUP2 SUB PUSH3 0x5BC JUMPI PUSH3 0x5BB PUSH3 0x55E JUMP JUMPDEST JUMPDEST POP SWAP2 SWAP1 POP JUMP JUMPDEST PUSH1 0x0 DUP2 SWAP1 POP DUP2 PUSH1 0x0 MSTORE PUSH1 0x20 PUSH1 0x0 KECCAK256 SWAP1 POP SWAP2 SWAP1 POP JUMP JUMPDEST PUSH1 0x0 PUSH1 0x20 PUSH1 0x1F DUP4 ADD DIV SWAP1 POP SWAP2 SWAP1 POP JUMP JUMPDEST PUSH1 0x0 DUP3 DUP3 SHL SWAP1 POP SWAP3 SWAP2 POP POP JUMP JUMPDEST PUSH1 0x0 PUSH1 0x8 DUP4 MUL PUSH3 0x626 PUSH32 0xFFFFFFFFFFFFFFFFFFFFFFFFFFFFFFFFFFFFFFFFFFFFFFFFFFFFFFFFFFFFFFFF DUP3 PUSH3 0x5E7 JUMP JUMPDEST PUSH3 0x632 DUP7 DUP4 PUSH3 0x5E7 JUMP JUMPDEST SWAP6 POP DUP1 NOT DUP5 AND SWAP4 POP DUP1 DUP7 AND DUP5 OR SWAP3 POP POP POP SWAP4 SWAP3 POP POP POP JUMP JUMPDEST PUSH1 0x0 DUP2 SWAP1 POP SWAP2 SWAP1 POP JUMP JUMPDEST PUSH1 0x0 DUP2 SWAP1 POP SWAP2 SWAP1 POP JUMP JUMPDEST PUSH1 0x0 PUSH3 0x67F PUSH3 0x679 PUSH3 0x673 DUP5 PUSH3 0x64A JUMP JUMPDEST PUSH3 0x654 JUMP JUMPDEST PUSH3 0x64A JUMP JUMPDEST SWAP1 POP SWAP2 SWAP1 POP JUMP JUMPDEST PUSH1 0x0 DUP2 SWAP1 POP SWAP2 SWAP1 POP JUMP JUMPDEST PUSH3 0x69B DUP4 PUSH3 0x65E JUMP JUMPDEST PUSH3 0x6B3 PUSH3 0x6AA DUP3 PUSH3 0x686 JUMP JUMPDEST DUP5 DUP5 SLOAD PUSH3 0x5F4 JUMP JUMPDEST DUP3 SSTORE POP POP POP POP JUMP JUMPDEST PUSH1 0x0 SWAP1 JUMP JUMPDEST PUSH3 0x6CA PUSH3 0x6BB JUMP JUMPDEST PUSH3 0x6D7 DUP2 DUP5 DUP5 PUSH3 0x690 JUMP JUMPDEST POP POP POP JUMP JUMPDEST JUMPDEST DUP2 DUP2 LT ISZERO PUSH3 0x6FF JUMPI PUSH3 0x6F3 PUSH1 0x0 DUP3 PUSH3 0x6C0 JUMP JUMPDEST PUSH1 0x1 DUP2 ADD SWAP1 POP PUSH3 0x6DD JUMP JUMPDEST POP POP JUMP JUMPDEST PUSH1 0x1F DUP3 GT ISZERO PUSH3 0x74E JUMPI PUSH3 0x718 DUP2 PUSH3 0x5C2 JUMP JUMPDEST PUSH3 0x723 DUP5 PUSH3 0x5D7 JUMP JUMPDEST DUP2 ADD PUSH1 0x20 DUP6 LT ISZERO PUSH3 0x733 JUMPI DUP2 SWAP1 POP JUMPDEST PUSH3 0x74B PUSH3 0x742 DUP6 PUSH3 0x5D7 JUMP JUMPDEST DUP4 ADD DUP3 PUSH3 0x6DC JUMP JUMPDEST POP POP JUMPDEST POP POP POP JUMP JUMPDEST PUSH1 0x0 DUP3 DUP3 SHR SWAP1 POP SWAP3 SWAP2 POP POP JUMP JUMPDEST PUSH1 0x0 PUSH3 0x773 PUSH1 0x0 NOT DUP5 PUSH1 0x8 MUL PUSH3 0x753 JUMP JUMPDEST NOT DUP1 DUP4 AND SWAP2 POP POP SWAP3 SWAP2 POP POP JUMP JUMPDEST PUSH1 0x0 PUSH3 0x78E DUP4 DUP4 PUSH3 0x760 JUMP JUMPDEST SWAP2 POP DUP3 PUSH1 0x2 MUL DUP3 OR SWAP1 POP SWAP3 SWAP2 POP POP JUMP JUMPDEST PUSH3 0x7A9 DUP3 PUSH3 0x553 JUMP JUMPDEST PUSH8 0xFFFFFFFFFFFFFFFF DUP2 GT ISZERO PUSH3 0x7C5 JUMPI PUSH3 0x7C4 PUSH3 0x2C1 JUMP JUMPDEST JUMPDEST PUSH3 0x7D1 DUP3 SLOAD PUSH3 0x58D JUMP JUMPDEST PUSH3 0x7DE DUP3 DUP3 DUP6 PUSH3 0x703 JUMP JUMPDEST PUSH1 0x0 PUSH1 0x20 SWAP1 POP PUSH1 0x1F DUP4 GT PUSH1 0x1 DUP2 EQ PUSH3 0x816 JUMPI PUSH1 0x0 DUP5 ISZERO PUSH3 0x801 JUMPI DUP3 DUP8 ADD MLOAD SWAP1 POP JUMPDEST PUSH3 0x80D DUP6 DUP3 PUSH3 0x780 JUMP JUMPDEST DUP7 SSTORE POP PUSH3 0x87D JUMP JUMPDEST PUSH1 0x1F NOT DUP5 AND PUSH3 0x826 DUP7 PUSH3 0x5C2 JUMP JUMPDEST PUSH1 0x0 JUMPDEST DUP3 DUP2 LT ISZERO PUSH3 0x850 JUMPI DUP5 DUP10 ADD MLOAD DUP3 SSTORE PUSH1 0x1 DUP3 ADD SWAP2 POP PUSH1 0x20 DUP6 ADD SWAP5 POP PUSH1 0x20 DUP2 ADD SWAP1 POP PUSH3 0x829 JUMP JUMPDEST DUP7 DUP4 LT ISZERO PUSH3 0x870 JUMPI DUP5 DUP10 ADD MLOAD PUSH3 0x86C PUSH1 0x1F DUP10 AND DUP3 PUSH3 0x760 JUMP JUMPDEST DUP4 SSTORE POP JUMPDEST PUSH1 0x1 PUSH1 0x2 DUP9 MUL ADD DUP9 SSTORE POP POP POP JUMPDEST POP POP POP POP POP POP JUMP JUMPDEST PUSH2 0x1385 DUP1 PUSH3 0x895 PUSH1 0x0 CODECOPY PUSH1 0x0 RETURN INVALID PUSH1 0x80 PUSH1 0x40 MSTORE CALLVALUE DUP1 ISZERO PUSH2 0x10 JUMPI PUSH1 0x0 DUP1 REVERT JUMPDEST POP PUSH1 0x4 CALLDATASIZE LT PUSH2 0xA9 JUMPI PUSH1 0x0 CALLDATALOAD PUSH1 0xE0 SHR DUP1 PUSH4 0x39509351 GT PUSH2 0x71 JUMPI DUP1 PUSH4 0x39509351 EQ PUSH2 0x168 JUMPI DUP1 PUSH4 0x70A08231 EQ PUSH2 0x198 JUMPI DUP1 PUSH4 0x95D89B41 EQ PUSH2 0x1C8 JUMPI DUP1 PUSH4 0xA457C2D7 EQ PUSH2 0x1E6 JUMPI DUP1 PUSH4 0xA9059CBB EQ PUSH2 0x216 JUMPI DUP1 PUSH4 0xDD62ED3E EQ PUSH2 0x246 JUMPI PUSH2 0xA9 JUMP JUMPDEST DUP1 PUSH4 0x6FDDE03 EQ PUSH2 0xAE JUMPI DUP1 PUSH4 0x95EA7B3 EQ PUSH2 0xCC JUMPI DUP1 PUSH4 0x18160DDD EQ PUSH2 0xFC JUMPI DUP1 PUSH4 0x23B872DD EQ PUSH2 0x11A JUMPI DUP1 PUSH4 0x313CE567 EQ PUSH2 0x14A JUMPI JUMPDEST PUSH1 0x0 DUP1 REVERT JUMPDEST PUSH2 0xB6 PUSH2 0x276 JUMP JUMPDEST PUSH1 0x40 MLOAD PUSH2 0xC3 SWAP2 SWAP1 PUSH2 0xCDF JUMP JUMPDEST PUSH1 0x40 MLOAD DUP1 SWAP2 SUB SWAP1 RETURN JUMPDEST PUSH2 0xE6 PUSH1 0x4 DUP1 CALLDATASIZE SUB DUP2 ADD SWAP1 PUSH2 0xE1 SWAP2 SWAP1 PUSH2 0xD9A JUMP JUMPDEST PUSH2 0x308 JUMP JUMPDEST PUSH1 0x40 MLOAD PUSH2 0xF3 SWAP2 SWAP1 PUSH2 0xDF5 JUMP JUMPDEST PUSH1 0x40 MLOAD DUP1 SWAP2 SUB SWAP1 RETURN JUMPDEST PUSH2 0x104 PUSH2 0x326 JUMP JUMPDEST PUSH1 0x40 MLOAD PUSH2 0x111 SWAP2 SWAP1 PUSH2 0xE1F JUMP JUMPDEST PUSH1 0x40 MLOAD DUP1 SWAP2 SUB SWAP1 RETURN JUMPDEST PUSH2 0x134 PUSH1 0x4 DUP1 CALLDATASIZE SUB DUP2 ADD SWAP1 PUSH2 0x12F SWAP2 SWAP1 PUSH2 0xE3A JUMP JUMPDEST PUSH2 0x330 JUMP JUMPDEST PUSH1 0x40 MLOAD PUSH2 0x141 SWAP2 SWAP1 PUSH2 0xDF5 JUMP JUMPDEST PUSH1 0x40 MLOAD DUP1 SWAP2 SUB SWAP1 RETURN JUMPDEST PUSH2 0x152 PUSH2 0x409 JUMP JUMPDEST PUSH1 0x40 MLOAD PUSH2 0x15F SWAP2 SWAP1 PUSH2 0xEA9 JUMP JUMPDEST PUSH1 0x40 MLOAD DUP1 SWAP2 SUB SWAP1 RETURN JUMPDEST PUSH2 0x182 PUSH1 0x4 DUP1 CALLDATASIZE SUB DUP2 ADD SWAP1 PUSH2 0x17D SWAP2 SWAP1 PUSH2 0xD9A JUMP JUMPDEST PUSH2 0x420 JUMP JUMPDEST PUSH1 0x40 MLOAD PUSH2 0x18F SWAP2 SWAP1 PUSH2 0xDF5 JUMP JUMPDEST PUSH1 0x40 MLOAD DUP1 SWAP2 SUB SWAP1 RETURN JUMPDEST PUSH2 0x1B2 PUSH1 0x4 DUP1 CALLDATASIZE SUB DUP2 ADD SWAP1 PUSH2 0x1AD SWAP2 SWAP1 PUSH2 0xEC4 JUMP JUMPDEST PUSH2 0x4D3 JUMP JUMPDEST PUSH1 0x40 MLOAD PUSH2 0x1BF SWAP2 SWAP1 PUSH2 0xE1F JUMP JUMPDEST PUSH1 0x40 MLOAD DUP1 SWAP2 SUB SWAP1 RETURN JUMPDEST PUSH2 0x1D0 PUSH2 0x51C JUMP JUMPDEST PUSH1 0x40 MLOAD PUSH2 0x1DD SWAP2 SWAP1 PUSH2 0xCDF JUMP JUMPDEST PUSH1 0x40 MLOAD DUP1 SWAP2 SUB SWAP1 RETURN JUMPDEST PUSH2 0x200 PUSH1 0x4 DUP1 CALLDATASIZE SUB DUP2 ADD SWAP1 PUSH2 0x1FB SWAP2 SWAP1 PUSH2 0xD9A JUMP JUMPDEST PUSH2 0x5AE JUMP JUMPDEST PUSH1 0x40 MLOAD PUSH2 0x20D SWAP2 SWAP1 PUSH2 0xDF5 JUMP JUMPDEST PUSH1 0x40 MLOAD DUP1 SWAP2 SUB SWAP1 RETURN JUMPDEST PUSH2 0x230 PUSH1 0x4 DUP1 CALLDATASIZE SUB DUP2 ADD SWAP1 PUSH2 0x22B SWAP2 SWAP1 PUSH2 0xD9A JUMP JUMPDEST PUSH2 0x67B JUMP JUMPDEST PUSH1 0x40 MLOAD PUSH2 0x23D SWAP2 SWAP1 PUSH2 0xDF5 JUMP JUMPDEST PUSH1 0x40 MLOAD DUP1 SWAP2 SUB SWAP1 RETURN JUMPDEST PUSH2 0x260 PUSH1 0x4 DUP1 CALLDATASIZE SUB DUP2 ADD SWAP1 PUSH2 0x25B SWAP2 SWAP1 PUSH2 0xEF1 JUMP JUMPDEST PUSH2 0x699 JUMP JUMPDEST PUSH1 0x40 MLOAD PUSH2 0x26D SWAP2 SWAP1 PUSH2 0xE1F JUMP JUMPDEST PUSH1 0x40 MLOAD DUP1 SWAP2 SUB SWAP1 RETURN JUMPDEST PUSH1 0x60 PUSH1 0x68 DUP1 SLOAD PUSH2 0x285 SWAP1 PUSH2 0xF60 JUMP JUMPDEST DUP1 PUSH1 0x1F ADD PUSH1 0x20 DUP1 SWAP2 DIV MUL PUSH1 0x20 ADD PUSH1 0x40 MLOAD SWAP1 DUP2 ADD PUSH1 0x40 MSTORE DUP1 SWAP3 SWAP2 SWAP1 DUP2 DUP2 MSTORE PUSH1 0x20 ADD DUP3 DUP1 SLOAD PUSH2 0x2B1 SWAP1 PUSH2 0xF60 JUMP JUMPDEST DUP1 ISZERO PUSH2 0x2FE JUMPI DUP1 PUSH1 0x1F LT PUSH2 0x2D3 JUMPI PUSH2 0x100 DUP1 DUP4 SLOAD DIV MUL DUP4 MSTORE SWAP2 PUSH1 0x20 ADD SWAP2 PUSH2 0x2FE JUMP JUMPDEST DUP3 ADD SWAP2 SWAP1 PUSH1 0x0 MSTORE PUSH1 0x20 PUSH1 0x0 KECCAK256 SWAP1 JUMPDEST DUP2 SLOAD DUP2 MSTORE SWAP1 PUSH1 0x1 ADD SWAP1 PUSH1 0x20 ADD DUP1 DUP4 GT PUSH2 0x2E1 JUMPI DUP3 SWAP1 SUB PUSH1 0x1F AND DUP3 ADD SWAP2 JUMPDEST POP POP POP POP POP SWAP1 POP SWAP1 JUMP JUMPDEST PUSH1 0x0 PUSH2 0x31C PUSH2 0x315 PUSH2 0x720 JUMP JUMPDEST DUP5 DUP5 PUSH2 0x728 JUMP JUMPDEST PUSH1 0x1 SWAP1 POP SWAP3 SWAP2 POP POP JUMP JUMPDEST PUSH1 0x0 PUSH1 0x67 SLOAD SWAP1 POP SWAP1 JUMP JUMPDEST PUSH1 0x0 PUSH2 0x33D DUP5 DUP5 DUP5 PUSH2 0x8F1 JUMP JUMPDEST PUSH2 0x3FE DUP5 PUSH2 0x349 PUSH2 0x720 JUMP JUMPDEST PUSH2 0x3F9 DUP6 PUSH1 0x40 MLOAD DUP1 PUSH1 0x60 ADD PUSH1 0x40 MSTORE DUP1 PUSH1 0x28 DUP2 MSTORE PUSH1 0x20 ADD PUSH2 0x1303 PUSH1 0x28 SWAP2 CODECOPY PUSH1 0x66 PUSH1 0x0 DUP12 PUSH20 0xFFFFFFFFFFFFFFFFFFFFFFFFFFFFFFFFFFFFFFFF AND PUSH20 0xFFFFFFFFFFFFFFFFFFFFFFFFFFFFFFFFFFFFFFFF AND DUP2 MSTORE PUSH1 0x20 ADD SWAP1 DUP2 MSTORE PUSH1 0x20 ADD PUSH1 0x0 KECCAK256 PUSH1 0x0 PUSH2 0x3AF PUSH2 0x720 JUMP JUMPDEST PUSH20 0xFFFFFFFFFFFFFFFFFFFFFFFFFFFFFFFFFFFFFFFF AND PUSH20 0xFFFFFFFFFFFFFFFFFFFFFFFFFFFFFFFFFFFFFFFF AND DUP2 MSTORE PUSH1 0x20 ADD SWAP1 DUP2 MSTORE PUSH1 0x20 ADD PUSH1 0x0 KECCAK256 SLOAD PUSH2 0xB88 SWAP1 SWAP3 SWAP2 SWAP1 PUSH4 0xFFFFFFFF AND JUMP JUMPDEST PUSH2 0x728 JUMP JUMPDEST PUSH1 0x1 SWAP1 POP SWAP4 SWAP3 POP POP POP JUMP JUMPDEST PUSH1 0x0 PUSH1 0x6A PUSH1 0x0 SWAP1 SLOAD SWAP1 PUSH2 0x100 EXP SWAP1 DIV PUSH1 0xFF AND SWAP1 POP SWAP1 JUMP JUMPDEST PUSH1 0x0 PUSH2 0x4C9 PUSH2 0x42D PUSH2 0x720 JUMP JUMPDEST DUP5 PUSH2 0x4C4 DUP6 PUSH1 0x66 PUSH1 0x0 PUSH2 0x43E PUSH2 0x720 JUMP JUMPDEST PUSH20 0xFFFFFFFFFFFFFFFFFFFFFFFFFFFFFFFFFFFFFFFF AND PUSH20 0xFFFFFFFFFFFFFFFFFFFFFFFFFFFFFFFFFFFFFFFF AND DUP2 MSTORE PUSH1 0x20 ADD SWAP1 DUP2 MSTORE PUSH1 0x20 ADD PUSH1 0x0 KECCAK256 PUSH1 0x0 DUP10 PUSH20 0xFFFFFFFFFFFFFFFFFFFFFFFFFFFFFFFFFFFFFFFF AND PUSH20 0xFFFFFFFFFFFFFFFFFFFFFFFFFFFFFFFFFFFFFFFF AND DUP2 MSTORE PUSH1 0x20 ADD SWAP1 DUP2 MSTORE PUSH1 0x20 ADD PUSH1 0x0 KECCAK256 SLOAD PUSH2 0xBEC SWAP1 SWAP2 SWAP1 PUSH4 0xFFFFFFFF AND JUMP JUMPDEST PUSH2 0x728 JUMP JUMPDEST PUSH1 0x1 SWAP1 POP SWAP3 SWAP2 POP POP JUMP JUMPDEST PUSH1 0x0 PUSH1 0x65 PUSH1 0x0 DUP4 PUSH20 0xFFFFFFFFFFFFFFFFFFFFFFFFFFFFFFFFFFFFFFFF AND PUSH20 0xFFFFFFFFFFFFFFFFFFFFFFFFFFFFFFFFFFFFFFFF AND DUP2 MSTORE PUSH1 0x20 ADD SWAP1 DUP2 MSTORE PUSH1 0x20 ADD PUSH1 0x0 KECCAK256 SLOAD SWAP1 POP SWAP2 SWAP1 POP JUMP JUMPDEST PUSH1 0x60 PUSH1 0x69 DUP1 SLOAD PUSH2 0x52B SWAP1 PUSH2 0xF60 JUMP JUMPDEST DUP1 PUSH1 0x1F ADD PUSH1 0x20 DUP1 SWAP2 DIV MUL PUSH1 0x20 ADD PUSH1 0x40 MLOAD SWAP1 DUP2 ADD PUSH1 0x40 MSTORE DUP1 SWAP3 SWAP2 SWAP1 DUP2 DUP2 MSTORE PUSH1 0x20 ADD DUP3 DUP1 SLOAD PUSH2 0x557 SWAP1 PUSH2 0xF60 JUMP JUMPDEST DUP1 ISZERO PUSH2 0x5A4 JUMPI DUP1 PUSH1 0x1F LT PUSH2 0x579 JUMPI PUSH2 0x100 DUP1 DUP4 SLOAD DIV MUL DUP4 MSTORE SWAP2 PUSH1 0x20 ADD SWAP2 PUSH2 0x5A4 JUMP JUMPDEST DUP3 ADD SWAP2 SWAP1 PUSH1 0x0 MSTORE PUSH1 0x20 PUSH1 0x0 KECCAK256 SWAP1 JUMPDEST DUP2 SLOAD DUP2 MSTORE SWAP1 PUSH1 0x1 ADD SWAP1 PUSH1 0x20 ADD DUP1 DUP4 GT PUSH2 0x587 JUMPI DUP3 SWAP1 SUB PUSH1 0x1F AND DUP3 ADD SWAP2 JUMPDEST POP POP POP POP POP SWAP1 POP SWAP1 JUMP JUMPDEST PUSH1 0x0 PUSH2 0x671 PUSH2 0x5BB PUSH2 0x720 JUMP JUMPDEST DUP5 PUSH2 0x66C DUP6 PUSH1 0x40 MLOAD DUP1 PUSH1 0x60 ADD PUSH1 0x40 MSTORE DUP1 PUSH1 0x25 DUP2 MSTORE PUSH1 0x20 ADD PUSH2 0x132B PUSH1 0x25 SWAP2 CODECOPY PUSH1 0x66 PUSH1 0x0 PUSH2 0x5E5 PUSH2 0x720 JUMP JUMPDEST PUSH20 0xFFFFFFFFFFFFFFFFFFFFFFFFFFFFFFFFFFFFFFFF AND PUSH20 0xFFFFFFFFFFFFFFFFFFFFFFFFFFFFFFFFFFFFFFFF AND DUP2 MSTORE PUSH1 0x20 ADD SWAP1 DUP2 MSTORE PUSH1 0x20 ADD PUSH1 0x0 KECCAK256 PUSH1 0x0 DUP11 PUSH20 0xFFFFFFFFFFFFFFFFFFFFFFFFFFFFFFFFFFFFFFFF AND PUSH20 0xFFFFFFFFFFFFFFFFFFFFFFFFFFFFFFFFFFFFFFFF AND DUP2 MSTORE PUSH1 0x20 ADD SWAP1 DUP2 MSTORE PUSH1 0x20 ADD PUSH1 0x0 KECCAK256 SLOAD PUSH2 0xB88 SWAP1 SWAP3 SWAP2 SWAP1 PUSH4 0xFFFFFFFF AND JUMP JUMPDEST PUSH2 0x728 JUMP JUMPDEST PUSH1 0x1 SWAP1 POP SWAP3 SWAP2 POP POP JUMP JUMPDEST PUSH1 0x0 PUSH2 0x68F PUSH2 0x688 PUSH2 0x720 JUMP JUMPDEST DUP5 DUP5 PUSH2 0x8F1 JUMP JUMPDEST PUSH1 0x1 SWAP1 POP SWAP3 SWAP2 POP POP JUMP JUMPDEST PUSH1 0x0 PUSH1 0x66 PUSH1 0x0 DUP5 PUSH20 0xFFFFFFFFFFFFFFFFFFFFFFFFFFFFFFFFFFFFFFFF AND PUSH20 0xFFFFFFFFFFFFFFFFFFFFFFFFFFFFFFFFFFFFFFFF AND DUP2 MSTORE PUSH1 0x20 ADD SWAP1 DUP2 MSTORE PUSH1 0x20 ADD PUSH1 0x0 KECCAK256 PUSH1 0x0 DUP4 PUSH20 0xFFFFFFFFFFFFFFFFFFFFFFFFFFFFFFFFFFFFFFFF AND PUSH20 0xFFFFFFFFFFFFFFFFFFFFFFFFFFFFFFFFFFFFFFFF AND DUP2 MSTORE PUSH1 0x20 ADD SWAP1 DUP2 MSTORE PUSH1 0x20 ADD PUSH1 0x0 KECCAK256 SLOAD SWAP1 POP SWAP3 SWAP2 POP POP JUMP JUMPDEST PUSH1 0x0 CALLER SWAP1 POP SWAP1 JUMP JUMPDEST PUSH1 0x0 PUSH20 0xFFFFFFFFFFFFFFFFFFFFFFFFFFFFFFFFFFFFFFFF AND DUP4 PUSH20 0xFFFFFFFFFFFFFFFFFFFFFFFFFFFFFFFFFFFFFFFF AND SUB PUSH2 0x797 JUMPI PUSH1 0x40 MLOAD PUSH32 0x8C379A000000000000000000000000000000000000000000000000000000000 DUP2 MSTORE PUSH1 0x4 ADD PUSH2 0x78E SWAP1 PUSH2 0x1003 JUMP JUMPDEST PUSH1 0x40 MLOAD DUP1 SWAP2 SUB SWAP1 REVERT JUMPDEST PUSH1 0x0 PUSH20 0xFFFFFFFFFFFFFFFFFFFFFFFFFFFFFFFFFFFFFFFF AND DUP3 PUSH20 0xFFFFFFFFFFFFFFFFFFFFFFFFFFFFFFFFFFFFFFFF AND SUB PUSH2 0x806 JUMPI PUSH1 0x40 MLOAD PUSH32 0x8C379A000000000000000000000000000000000000000000000000000000000 DUP2 MSTORE PUSH1 0x4 ADD PUSH2 0x7FD SWAP1 PUSH2 0x1095 JUMP JUMPDEST PUSH1 0x40 MLOAD DUP1 SWAP2 SUB SWAP1 REVERT JUMPDEST DUP1 PUSH1 0x66 PUSH1 0x0 DUP6 PUSH20 0xFFFFFFFFFFFFFFFFFFFFFFFFFFFFFFFFFFFFFFFF AND PUSH20 0xFFFFFFFFFFFFFFFFFFFFFFFFFFFFFFFFFFFFFFFF AND DUP2 MSTORE PUSH1 0x20 ADD SWAP1 DUP2 MSTORE PUSH1 0x20 ADD PUSH1 0x0 KECCAK256 PUSH1 0x0 DUP5 PUSH20 0xFFFFFFFFFFFFFFFFFFFFFFFFFFFFFFFFFFFFFFFF AND PUSH20 0xFFFFFFFFFFFFFFFFFFFFFFFFFFFFFFFFFFFFFFFF AND DUP2 MSTORE PUSH1 0x20 ADD SWAP1 DUP2 MSTORE PUSH1 0x20 ADD PUSH1 0x0 KECCAK256 DUP2 SWAP1 SSTORE POP DUP2 PUSH20 0xFFFFFFFFFFFFFFFFFFFFFFFFFFFFFFFFFFFFFFFF AND DUP4 PUSH20 0xFFFFFFFFFFFFFFFFFFFFFFFFFFFFFFFFFFFFFFFF AND PUSH32 0x8C5BE1E5EBEC7D5BD14F71427D1E84F3DD0314C0F7B2291E5B200AC8C7C3B925 DUP4 PUSH1 0x40 MLOAD PUSH2 0x8E4 SWAP2 SWAP1 PUSH2 0xE1F JUMP JUMPDEST PUSH1 0x40 MLOAD DUP1 SWAP2 SUB SWAP1 LOG3 POP POP POP JUMP JUMPDEST PUSH1 0x0 PUSH20 0xFFFFFFFFFFFFFFFFFFFFFFFFFFFFFFFFFFFFFFFF AND DUP4 PUSH20 0xFFFFFFFFFFFFFFFFFFFFFFFFFFFFFFFFFFFFFFFF AND SUB PUSH2 0x960 JUMPI PUSH1 0x40 MLOAD PUSH32 0x8C379A000000000000000000000000000000000000000000000000000000000 DUP2 MSTORE PUSH1 0x4 ADD PUSH2 0x957 SWAP1 PUSH2 0x1127 JUMP JUMPDEST PUSH1 0x40 MLOAD DUP1 SWAP2 SUB SWAP1 REVERT JUMPDEST PUSH1 0x0 PUSH20 0xFFFFFFFFFFFFFFFFFFFFFFFFFFFFFFFFFFFFFFFF AND DUP3 PUSH20 0xFFFFFFFFFFFFFFFFFFFFFFFFFFFFFFFFFFFFFFFF AND SUB PUSH2 0x9CF JUMPI PUSH1 0x40 MLOAD PUSH32 0x8C379A000000000000000000000000000000000000000000000000000000000 DUP2 MSTORE PUSH1 0x4 ADD PUSH2 0x9C6 SWAP1 PUSH2 0x11B9 JUMP JUMPDEST PUSH1 0x40 MLOAD DUP1 SWAP2 SUB SWAP1 REVERT JUMPDEST PUSH2 0x9DA DUP4 DUP4 DUP4 PUSH2 0xC4A JUMP JUMPDEST PUSH2 0xA46 DUP2 PUSH1 0x40 MLOAD DUP1 PUSH1 0x60 ADD PUSH1 0x40 MSTORE DUP1 PUSH1 0x26 DUP2 MSTORE PUSH1 0x20 ADD PUSH2 0x12DD PUSH1 0x26 SWAP2 CODECOPY PUSH1 0x65 PUSH1 0x0 DUP8 PUSH20 0xFFFFFFFFFFFFFFFFFFFFFFFFFFFFFFFFFFFFFFFF AND PUSH20 0xFFFFFFFFFFFFFFFFFFFFFFFFFFFFFFFFFFFFFFFF AND DUP2 MSTORE PUSH1 0x20 ADD SWAP1 DUP2 MSTORE PUSH1 0x20 ADD PUSH1 0x0 KECCAK256 SLOAD PUSH2 0xB88 SWAP1 SWAP3 SWAP2 SWAP1 PUSH4 0xFFFFFFFF AND JUMP JUMPDEST PUSH1 0x65 PUSH1 0x0 DUP6 PUSH20 0xFFFFFFFFFFFFFFFFFFFFFFFFFFFFFFFFFFFFFFFF AND PUSH20 0xFFFFFFFFFFFFFFFFFFFFFFFFFFFFFFFFFFFFFFFF AND DUP2 MSTORE PUSH1 0x20 ADD SWAP1 DUP2 MSTORE PUSH1 0x20 ADD PUSH1 0x0 KECCAK256 DUP2 SWAP1 SSTORE POP PUSH2 0xADB DUP2 PUSH1 0x65 PUSH1 0x0 DUP6 PUSH20 0xFFFFFFFFFFFFFFFFFFFFFFFFFFFFFFFFFFFFFFFF AND PUSH20 0xFFFFFFFFFFFFFFFFFFFFFFFFFFFFFFFFFFFFFFFF AND DUP2 MSTORE PUSH1 0x20 ADD SWAP1 DUP2 MSTORE PUSH1 0x20 ADD PUSH1 0x0 KECCAK256 SLOAD PUSH2 0xBEC SWAP1 SWAP2 SWAP1 PUSH4 0xFFFFFFFF AND JUMP JUMPDEST PUSH1 0x65 PUSH1 0x0 DUP5 PUSH20 0xFFFFFFFFFFFFFFFFFFFFFFFFFFFFFFFFFFFFFFFF AND PUSH20 0xFFFFFFFFFFFFFFFFFFFFFFFFFFFFFFFFFFFFFFFF AND DUP2 MSTORE PUSH1 0x20 ADD SWAP1 DUP2 MSTORE PUSH1 0x20 ADD PUSH1 0x0 KECCAK256 DUP2 SWAP1 SSTORE POP DUP2 PUSH20 0xFFFFFFFFFFFFFFFFFFFFFFFFFFFFFFFFFFFFFFFF AND DUP4 PUSH20 0xFFFFFFFFFFFFFFFFFFFFFFFFFFFFFFFFFFFFFFFF AND PUSH32 0xDDF252AD1BE2C89B69C2B068FC378DAA952BA7F163C4A11628F55A4DF523B3EF DUP4 PUSH1 0x40 MLOAD PUSH2 0xB7B SWAP2 SWAP1 PUSH2 0xE1F JUMP JUMPDEST PUSH1 0x40 MLOAD DUP1 SWAP2 SUB SWAP1 LOG3 POP POP POP JUMP JUMPDEST PUSH1 0x0 DUP4 DUP4 GT ISZERO DUP3 SWAP1 PUSH2 0xBD0 JUMPI PUSH1 0x40 MLOAD PUSH32 0x8C379A000000000000000000000000000000000000000000000000000000000 DUP2 MSTORE PUSH1 0x4 ADD PUSH2 0xBC7 SWAP2 SWAP1 PUSH2 0xCDF JUMP JUMPDEST PUSH1 0x40 MLOAD DUP1 SWAP2 SUB SWAP1 REVERT JUMPDEST POP PUSH1 0x0 DUP4 DUP6 PUSH2 0xBDF SWAP2 SWAP1 PUSH2 0x1208 JUMP JUMPDEST SWAP1 POP DUP1 SWAP2 POP POP SWAP4 SWAP3 POP POP POP JUMP JUMPDEST PUSH1 0x0 DUP1 DUP3 DUP5 PUSH2 0xBFB SWAP2 SWAP1 PUSH2 0x123C JUMP JUMPDEST SWAP1 POP DUP4 DUP2 LT ISZERO PUSH2 0xC40 JUMPI PUSH1 0x40 MLOAD PUSH32 0x8C379A000000000000000000000000000000000000000000000000000000000 DUP2 MSTORE PUSH1 0x4 ADD PUSH2 0xC37 SWAP1 PUSH2 0x12BC JUMP JUMPDEST PUSH1 0x40 MLOAD DUP1 SWAP2 SUB SWAP1 REVERT JUMPDEST DUP1 SWAP2 POP POP SWAP3 SWAP2 POP POP JUMP JUMPDEST POP POP POP JUMP JUMPDEST PUSH1 0x0 DUP2 MLOAD SWAP1 POP SWAP2 SWAP1 POP JUMP JUMPDEST PUSH1 0x0 DUP3 DUP3 MSTORE PUSH1 0x20 DUP3 ADD SWAP1 POP SWAP3 SWAP2 POP POP JUMP JUMPDEST PUSH1 0x0 JUMPDEST DUP4 DUP2 LT ISZERO PUSH2 0xC89 JUMPI DUP1 DUP3 ADD MLOAD DUP2 DUP5 ADD MSTORE PUSH1 0x20 DUP2 ADD SWAP1 POP PUSH2 0xC6E JUMP JUMPDEST PUSH1 0x0 DUP5 DUP5 ADD MSTORE POP POP POP POP JUMP JUMPDEST PUSH1 0x0 PUSH1 0x1F NOT PUSH1 0x1F DUP4 ADD AND SWAP1 POP SWAP2 SWAP1 POP JUMP JUMPDEST PUSH1 0x0 PUSH2 0xCB1 DUP3 PUSH2 0xC4F JUMP JUMPDEST PUSH2 0xCBB DUP2 DUP6 PUSH2 0xC5A JUMP JUMPDEST SWAP4 POP PUSH2 0xCCB DUP2 DUP6 PUSH1 0x20 DUP7 ADD PUSH2 0xC6B JUMP JUMPDEST PUSH2 0xCD4 DUP2 PUSH2 0xC95 JUMP JUMPDEST DUP5 ADD SWAP2 POP POP SWAP3 SWAP2 POP POP JUMP JUMPDEST PUSH1 0x0 PUSH1 0x20 DUP3 ADD SWAP1 POP DUP2 DUP2 SUB PUSH1 0x0 DUP4 ADD MSTORE PUSH2 0xCF9 DUP2 DUP5 PUSH2 0xCA6 JUMP JUMPDEST SWAP1 POP SWAP3 SWAP2 POP POP JUMP JUMPDEST PUSH1 0x0 DUP1 REVERT JUMPDEST PUSH1 0x0 PUSH20 0xFFFFFFFFFFFFFFFFFFFFFFFFFFFFFFFFFFFFFFFF DUP3 AND SWAP1 POP SWAP2 SWAP1 POP JUMP JUMPDEST PUSH1 0x0 PUSH2 0xD31 DUP3 PUSH2 0xD06 JUMP JUMPDEST SWAP1 POP SWAP2 SWAP1 POP JUMP JUMPDEST PUSH2 0xD41 DUP2 PUSH2 0xD26 JUMP JUMPDEST DUP2 EQ PUSH2 0xD4C JUMPI PUSH1 0x0 DUP1 REVERT JUMPDEST POP JUMP JUMPDEST PUSH1 0x0 DUP2 CALLDATALOAD SWAP1 POP PUSH2 0xD5E DUP2 PUSH2 0xD38 JUMP JUMPDEST SWAP3 SWAP2 POP POP JUMP JUMPDEST PUSH1 0x0 DUP2 SWAP1 POP SWAP2 SWAP1 POP JUMP JUMPDEST PUSH2 0xD77 DUP2 PUSH2 0xD64 JUMP JUMPDEST DUP2 EQ PUSH2 0xD82 JUMPI PUSH1 0x0 DUP1 REVERT JUMPDEST POP JUMP JUMPDEST PUSH1 0x0 DUP2 CALLDATALOAD SWAP1 POP PUSH2 0xD94 DUP2 PUSH2 0xD6E JUMP JUMPDEST SWAP3 SWAP2 POP POP JUMP JUMPDEST PUSH1 0x0 DUP1 PUSH1 0x40 DUP4 DUP6 SUB SLT ISZERO PUSH2 0xDB1 JUMPI PUSH2 0xDB0 PUSH2 0xD01 JUMP JUMPDEST JUMPDEST PUSH1 0x0 PUSH2 0xDBF DUP6 DUP3 DUP7 ADD PUSH2 0xD4F JUMP JUMPDEST SWAP3 POP POP PUSH1 0x20 PUSH2 0xDD0 DUP6 DUP3 DUP7 ADD PUSH2 0xD85 JUMP JUMPDEST SWAP2 POP POP SWAP3 POP SWAP3 SWAP1 POP JUMP JUMPDEST PUSH1 0x0 DUP2 ISZERO ISZERO SWAP1 POP SWAP2 SWAP1 POP JUMP JUMPDEST PUSH2 0xDEF DUP2 PUSH2 0xDDA JUMP JUMPDEST DUP3 MSTORE POP POP JUMP JUMPDEST PUSH1 0x0 PUSH1 0x20 DUP3 ADD SWAP1 POP PUSH2 0xE0A PUSH1 0x0 DUP4 ADD DUP5 PUSH2 0xDE6 JUMP JUMPDEST SWAP3 SWAP2 POP POP JUMP JUMPDEST PUSH2 0xE19 DUP2 PUSH2 0xD64 JUMP JUMPDEST DUP3 MSTORE POP POP JUMP JUMPDEST PUSH1 0x0 PUSH1 0x20 DUP3 ADD SWAP1 POP PUSH2 0xE34 PUSH1 0x0 DUP4 ADD DUP5 PUSH2 0xE10 JUMP JUMPDEST SWAP3 SWAP2 POP POP JUMP JUMPDEST PUSH1 0x0 DUP1 PUSH1 0x0 PUSH1 0x60 DUP5 DUP7 SUB SLT ISZERO PUSH2 0xE53 JUMPI PUSH2 0xE52 PUSH2 0xD01 JUMP JUMPDEST JUMPDEST PUSH1 0x0 PUSH2 0xE61 DUP7 DUP3 DUP8 ADD PUSH2 0xD4F JUMP JUMPDEST SWAP4 POP POP PUSH1 0x20 PUSH2 0xE72 DUP7 DUP3 DUP8 ADD PUSH2 0xD4F JUMP JUMPDEST SWAP3 POP POP PUSH1 0x40 PUSH2 0xE83 DUP7 DUP3 DUP8 ADD PUSH2 0xD85 JUMP JUMPDEST SWAP2 POP POP SWAP3 POP SWAP3 POP SWAP3 JUMP JUMPDEST PUSH1 0x0 PUSH1 0xFF DUP3 AND SWAP1 POP SWAP2 SWAP1 POP JUMP JUMPDEST PUSH2 0xEA3 DUP2 PUSH2 0xE8D JUMP JUMPDEST DUP3 MSTORE POP POP JUMP JUMPDEST PUSH1 0x0 PUSH1 0x20 DUP3 ADD SWAP1 POP PUSH2 0xEBE PUSH1 0x0 DUP4 ADD DUP5 PUSH2 0xE9A JUMP JUMPDEST SWAP3 SWAP2 POP POP JUMP JUMPDEST PUSH1 0x0 PUSH1 0x20 DUP3 DUP5 SUB SLT ISZERO PUSH2 0xEDA JUMPI PUSH2 0xED9 PUSH2 0xD01 JUMP JUMPDEST JUMPDEST PUSH1 0x0 PUSH2 0xEE8 DUP5 DUP3 DUP6 ADD PUSH2 0xD4F JUMP JUMPDEST SWAP2 POP POP SWAP3 SWAP2 POP POP JUMP JUMPDEST PUSH1 0x0 DUP1 PUSH1 0x40 DUP4 DUP6 SUB SLT ISZERO PUSH2 0xF08 JUMPI PUSH2 0xF07 PUSH2 0xD01 JUMP JUMPDEST JUMPDEST PUSH1 0x0 PUSH2 0xF16 DUP6 DUP3 DUP7 ADD PUSH2 0xD4F JUMP JUMPDEST SWAP3 POP POP PUSH1 0x20 PUSH2 0xF27 DUP6 DUP3 DUP7 ADD PUSH2 0xD4F JUMP JUMPDEST SWAP2 POP POP SWAP3 POP SWAP3 SWAP1 POP JUMP JUMPDEST PUSH32 0x4E487B7100000000000000000000000000000000000000000000000000000000 PUSH1 0x0 MSTORE PUSH1 0x22 PUSH1 0x4 MSTORE PUSH1 0x24 PUSH1 0x0 REVERT JUMPDEST PUSH1 0x0 PUSH1 0x2 DUP3 DIV SWAP1 POP PUSH1 0x1 DUP3 AND DUP1 PUSH2 0xF78 JUMPI PUSH1 0x7F DUP3 AND SWAP2 POP JUMPDEST PUSH1 0x20 DUP3 LT DUP2 SUB PUSH2 0xF8B JUMPI PUSH2 0xF8A PUSH2 0xF31 JUMP JUMPDEST JUMPDEST POP SWAP2 SWAP1 POP JUMP JUMPDEST PUSH32 0x45524332303A20617070726F76652066726F6D20746865207A65726F20616464 PUSH1 0x0 DUP3 ADD MSTORE PUSH32 0x7265737300000000000000000000000000000000000000000000000000000000 PUSH1 0x20 DUP3 ADD MSTORE POP JUMP JUMPDEST PUSH1 0x0 PUSH2 0xFED PUSH1 0x24 DUP4 PUSH2 0xC5A JUMP JUMPDEST SWAP2 POP PUSH2 0xFF8 DUP3 PUSH2 0xF91 JUMP JUMPDEST PUSH1 0x40 DUP3 ADD SWAP1 POP SWAP2 SWAP1 POP JUMP JUMPDEST PUSH1 0x0 PUSH1 0x20 DUP3 ADD SWAP1 POP DUP2 DUP2 SUB PUSH1 0x0 DUP4 ADD MSTORE PUSH2 0x101C DUP2 PUSH2 0xFE0 JUMP JUMPDEST SWAP1 POP SWAP2 SWAP1 POP JUMP JUMPDEST PUSH32 0x45524332303A20617070726F766520746F20746865207A65726F206164647265 PUSH1 0x0 DUP3 ADD MSTORE PUSH32 0x7373000000000000000000000000000000000000000000000000000000000000 PUSH1 0x20 DUP3 ADD MSTORE POP JUMP JUMPDEST PUSH1 0x0 PUSH2 0x107F PUSH1 0x22 DUP4 PUSH2 0xC5A JUMP JUMPDEST SWAP2 POP PUSH2 0x108A DUP3 PUSH2 0x1023 JUMP JUMPDEST PUSH1 0x40 DUP3 ADD SWAP1 POP SWAP2 SWAP1 POP JUMP JUMPDEST PUSH1 0x0 PUSH1 0x20 DUP3 ADD SWAP1 POP DUP2 DUP2 SUB PUSH1 0x0 DUP4 ADD MSTORE PUSH2 0x10AE DUP2 PUSH2 0x1072 JUMP JUMPDEST SWAP1 POP SWAP2 SWAP1 POP JUMP JUMPDEST PUSH32 0x45524332303A207472616E736665722066726F6D20746865207A65726F206164 PUSH1 0x0 DUP3 ADD MSTORE PUSH32 0x6472657373000000000000000000000000000000000000000000000000000000 PUSH1 0x20 DUP3 ADD MSTORE POP JUMP JUMPDEST PUSH1 0x0 PUSH2 0x1111 PUSH1 0x25 DUP4 PUSH2 0xC5A JUMP JUMPDEST SWAP2 POP PUSH2 0x111C DUP3 PUSH2 0x10B5 JUMP JUMPDEST PUSH1 0x40 DUP3 ADD SWAP1 POP SWAP2 SWAP1 POP JUMP JUMPDEST PUSH1 0x0 PUSH1 0x20 DUP3 ADD SWAP1 POP DUP2 DUP2 SUB PUSH1 0x0 DUP4 ADD MSTORE PUSH2 0x1140 DUP2 PUSH2 0x1104 JUMP JUMPDEST SWAP1 POP SWAP2 SWAP1 POP JUMP JUMPDEST PUSH32 0x45524332303A207472616E7366657220746F20746865207A65726F2061646472 PUSH1 0x0 DUP3 ADD MSTORE PUSH32 0x6573730000000000000000000000000000000000000000000000000000000000 PUSH1 0x20 DUP3 ADD MSTORE POP JUMP JUMPDEST PUSH1 0x0 PUSH2 0x11A3 PUSH1 0x23 DUP4 PUSH2 0xC5A JUMP JUMPDEST SWAP2 POP PUSH2 0x11AE DUP3 PUSH2 0x1147 JUMP JUMPDEST PUSH1 0x40 DUP3 ADD SWAP1 POP SWAP2 SWAP1 POP JUMP JUMPDEST PUSH1 0x0 PUSH1 0x20 DUP3 ADD SWAP1 POP DUP2 DUP2 SUB PUSH1 0x0 DUP4 ADD MSTORE PUSH2 0x11D2 DUP2 PUSH2 0x1196 JUMP JUMPDEST SWAP1 POP SWAP2 SWAP1 POP JUMP JUMPDEST PUSH32 0x4E487B7100000000000000000000000000000000000000000000000000000000 PUSH1 0x0 MSTORE PUSH1 0x11 PUSH1 0x4 MSTORE PUSH1 0x24 PUSH1 0x0 REVERT JUMPDEST PUSH1 0x0 PUSH2 0x1213 DUP3 PUSH2 0xD64 JUMP JUMPDEST SWAP2 POP PUSH2 0x121E DUP4 PUSH2 0xD64 JUMP JUMPDEST SWAP3 POP DUP3 DUP3 SUB SWAP1 POP DUP2 DUP2 GT ISZERO PUSH2 0x1236 JUMPI PUSH2 0x1235 PUSH2 0x11D9 JUMP JUMPDEST JUMPDEST SWAP3 SWAP2 POP POP JUMP JUMPDEST PUSH1 0x0 PUSH2 0x1247 DUP3 PUSH2 0xD64 JUMP JUMPDEST SWAP2 POP PUSH2 0x1252 DUP4 PUSH2 0xD64 JUMP JUMPDEST SWAP3 POP DUP3 DUP3 ADD SWAP1 POP DUP1 DUP3 GT ISZERO PUSH2 0x126A JUMPI PUSH2 0x1269 PUSH2 0x11D9 JUMP JUMPDEST JUMPDEST SWAP3 SWAP2 POP POP JUMP JUMPDEST PUSH32 0x536166654D6174683A206164646974696F6E206F766572666C6F770000000000 PUSH1 0x0 DUP3 ADD MSTORE POP JUMP JUMPDEST PUSH1 0x0 PUSH2 0x12A6 PUSH1 0x1B DUP4 PUSH2 0xC5A JUMP JUMPDEST SWAP2 POP PUSH2 0x12B1 DUP3 PUSH2 0x1270 JUMP JUMPDEST PUSH1 0x20 DUP3 ADD SWAP1 POP SWAP2 SWAP1 POP JUMP JUMPDEST PUSH1 0x0 PUSH1 0x20 DUP3 ADD SWAP1 POP DUP2 DUP2 SUB PUSH1 0x0 DUP4 ADD MSTORE PUSH2 0x12D5 DUP2 PUSH2 0x1299 JUMP JUMPDEST SWAP1 POP SWAP2 SWAP1 POP JUMP INVALID GASLIMIT MSTORE NUMBER ORIGIN ADDRESS GASPRICE KECCAK256 PUSH21 0x72616E7366657220616D6F756E7420657863656564 PUSH20 0x2062616C616E636545524332303A207472616E73 PUSH7 0x657220616D6F75 PUSH15 0x74206578636565647320616C6C6F77 PUSH2 0x6E63 PUSH6 0x45524332303A KECCAK256 PUSH5 0x6563726561 PUSH20 0x656420616C6C6F77616E63652062656C6F77207A PUSH6 0x726FA2646970 PUSH7 0x73582212202710 SELFDESTRUCT EXTCODEHASH 0x23 STOP RETURN 0xB1 LOG1 0xBE 0xE7 0xE8 PUSH15 0x1F1947C759475B9BF229010C3270FE 0xE0 ISZERO SSTORE DUP13 PUSH5 0x736F6C6343 STOP ADDMOD GT STOP CALLER "
				},
				"gasEstimates": {
					"creation": {
						"codeDepositCost": "59400",
						"executionCost": "infinite",
						"totalCost": "infinite"
					},
					"external": {
						"tokenDebtAddress()": "2522",
						"vaultAddress()": "363"
					}
				},
				"methodIdentifiers": {
					"tokenDebtAddress()": "c7fc2228",
					"vaultAddress()": "430bf08a"
				}
			},
			"storageLayout": {
				"storage": [
					{
						"astId": 764,
						"contract": "contracts/FarmVault.sol:FarmVault",
						"label": "initialized",
						"offset": 0,
						"slot": "0",
						"type": "t_bool"
					},
					{
						"astId": 767,
						"contract": "contracts/FarmVault.sol:FarmVault",
						"label": "initializing",
						"offset": 1,
						"slot": "0",
						"type": "t_bool"
					},
					{
						"astId": 832,
						"contract": "contracts/FarmVault.sol:FarmVault",
						"label": "______gap",
						"offset": 0,
						"slot": "1",
						"type": "t_array(t_uint256)50_storage"
					},
					{
						"astId": 637,
						"contract": "contracts/FarmVault.sol:FarmVault",
						"label": "tokenDebt",
						"offset": 0,
						"slot": "51",
						"type": "t_contract(ERC20UpgradeSafe)628"
					}
				],
				"types": {
					"t_array(t_uint256)50_storage": {
						"base": "t_uint256",
						"encoding": "inplace",
						"label": "uint256[50]",
						"numberOfBytes": "1600"
					},
					"t_bool": {
						"encoding": "inplace",
						"label": "bool",
						"numberOfBytes": "1"
					},
					"t_contract(ERC20UpgradeSafe)628": {
						"encoding": "inplace",
						"label": "contract ERC20UpgradeSafe",
						"numberOfBytes": "20"
					},
					"t_uint256": {
						"encoding": "inplace",
						"label": "uint256",
						"numberOfBytes": "32"
					}
				}
			},
			"userdoc": {
				"kind": "user",
				"methods": {},
				"version": 1
			}
		}
	}
}